:100000000C94CE020C9407050C9415030C94150364
:100010000C9415030C9415030C9415030C94150300
:100020000C9415030C9415030C942E270C940128A2
:100030000C944F1D0C9415030C9415030C9415038C
:100040000C9415030C9415030C9415030C941503D0
:100050000C9415030C94B71D0C9415030C94150304
:100060000C9415030C9415030C9415030C941503B0
:100070000C9415030C9415030C9415030C941503A0
:100080000C9415030C9415030C9415030C94150390
:100090000C9415030C9415030C9415030C94150380
:1000A0000C9415030C9415030C9415030763423646
:1000B000B79BD8A71A39685618AEBAAB558C1D3CF9
:1000C000B7CC5763BD6DEDFD753EF6177231BF00BD
:1000D0000000803F05A84CCDB2D44EB93836A902F5
:1000E0000C50B9918688083CA6AAAA2ABE00000036
:1000F000803F155C1E001F00200021002200000030
:100100002B0014001A0008001500170000003942E7
:1001100004001600070009000A000000E1001D00AD
:100120001B000600190005000000E000E300E200EB
:10013000010003512C000251280027002600250051
:100140002400230000003100130012000C001800EE
:100150001C000000340033000F000E000D000B00E7
:100160000000E500380037003600100011000000E4
:10017000010001000100010001002A0002510000FD
:10018000000000000000000000000000000000006F
:10019000000000000000000000000000000000005F
:1001A000000000000000000000000000000000004F
:1001B000000000000000000000000000000000003F
:1001C000000000000000000000000000000000002F
:1001D000000000000000000000000000000000001F
:1001E000000000000000000000000000000000000F
:1001F00000000000000000000000000000000000FF
:10020000000000000000000000003A003B003C003D
:100210003D003E003F00000001004A0052004D003A
:100220004B00010000000100500051004F004E0043
:1002300001000000E10001000100010001000100D7
:100240000000E000E300E2004C0003512C000251EA
:10025000450044004300420041004000000001000E
:1002600030002F0001002E002D00000001003002A0
:100270002F02010001000100000001000100010047
:100280000100010001000000010001000100010067
:100290004C002A0002513A003B003C003D003E0069
:1002A0003F000000BA5CBF5CC15CC05C005CA900A0
:1002B00000000100BE5CC25CBD5C0100AA00000041
:1002C000E1000100010001000100A8000000E000C1
:1002D000E300E200010003512C00025145004400FC
:1002E000430042004100400000004A0049004E0027
:1002F00052004B00300000004D004C004F005100F8
:10030000500001000000AB00AC00AE000100010095
:10031000145C0000010001000100010001002A003E
:1003200002516801F000B40078005A007F3F1F645A
:100330003214643214783C1E1E140A0500000000BA
:100340000001010101010101010102020202020298
:10035000020202030303030303030304040404046B
:10036000040505050505060606060607070707082E
:100370000808080909090A0A0A0A0B0B0B0C0C0CDD
:100380000D0D0D0E0E0F0F0F101011111112121373
:10039000131414151516161717181819191A1A1BED
:1003A0001C1C1D1D1E1F1F20202122222324252549
:1003B00026272728292A2B2B2C2D2E2F2F30313280
:1003C00033343536363738393A3B3C3D3E3F404191
:1003D000424344464748494A4B4C4D4F5051525373
:1003E000555657585A5B5C5E5F6062636466676926
:1003F0006A6C6D6E707173747678797B7C7E8081A7
:10040000838486888A8B8D8F91929496989A9B9DEF
:100410009FA1A3A5A7A9ABADAFB1B3B5B7B9BBBDFC
:10042000BFC1C4C6C8CACCCFD1D3D6D8DADCDFE1CD
:10043000E4E6E8EBEDF0F2F5F7FAFCFF0403300038
:1004400000001803500072006F006A00650063002E
:10045000740020005A0065006E00000010034C007C
:10046000650067006F006E007500740000000403F3
:10047000090409025400030100A0FA090400000164
:10048000030101000921110100012240000705813B
:100490000308000A090401000103010200092111F7
:1004A000010001224D000705820308000A09040229
:1004B000000103000000092111010001223600079C
:1004C00005830308000A1201100100000008EBCEAA
:1004D000561200020102030105010980A1018502F3
:1004E0001601002603001A81002A83007510950169
:1004F0008100C0050C0901A1018503160100269C9D
:10050000021A01002A9C02751095018100C00501A4
:100510000902A1010901A100050919012905150018
:10052000250195057501810295017503810105017C
:10053000093009311581257F950275088106093832
:100540001581257F950175088106050C0A3802156D
:1005500081257F950175088106C0C005010906A1A6
:1005600001050719E029E7150025019508750181A6
:100570000295017508810105081901290595057580
:100580000191029501750391010507190029FF15D5
:100590000026FF00950675088100C00011241FBECB
:1005A000CFEFDAE0DEBFCDBF04B603FE27C08091F7
:1005B0004F0290915002A0915102B09152028730A7
:1005C000904BA740B04BD1F410924F0210925002C2
:1005D000109251021092520214BE84B7877F84BFDA
:1005E0000FB6F894A89580916000886180936000B0
:1005F000109260000FBEE0E0F8E3099511E0A0E082
:10060000B1E0ECEEFAE502C005900D92A034B1071E
:10061000D9F722E0A0E4B1E001C01D92AF34B207E7
:10062000E1F70E945B240C94742D0C9400008091DF
:10063000E901836088608093E901ADE1B1E061E0A8
:1006400070E08D91E82FE295EF70F0E041A18F709E
:100650009B0101C0220F8A95EAF7922F909594236F
:1006600091A382A1822B82A381E0A232B80749F72D
:10067000A6E1B1E061E070E08D91E82FE295EF70C6
:10068000F0E041A18F709B0101C0220F8A95EAF72B
:10069000922F9095942391A382A1822B82A381E033
:1006A000AD31B80749F7559A209AE0E4F1E0ABE4A0
:1006B000B1E08AE491E011921D928E179F07D9F75D
:1006C00008954F925F926F927F928F929F92AF9216
:1006D000BF92CF92DF92EF92FF920F931F93CF932F
:1006E000DF938091000105E010E0882311F010E015
:1006F00000E0C801855B9E4F7C018DE1C82E81E042
:10070000D82EE701AA24A394B12C8824839424E052
:10071000922E78801882D6018D916D01E82FE29596
:10072000EF70F0E091A18F70950101C0220F8A95C2
:10073000EAF7892F822B81A382A1622E6094862101
:1007400082A3B0EABA95F1F746E151E090E080E08B
:10075000DA017D91AD01A72FA295AF70B0E0909620
:10076000BC91A8817F70250102C0440C551C7A956C
:10077000E2F7B2016B2309F052C06A2D082E01C0C6
:10078000660F0A94EAF76A2B688301968730910511
:10079000F9F681A1862181A382A1282B22A3888139
:1007A000781659F0809255010E94811D909357014F
:1007B000809356018BB189258BB9219682E2C816A8
:1007C00081E0D80609F0A5CF809155018823A9F0D2
:1007D00080915601909157010E948D1D069768F0F7
:1007E000F801E05CFE4F80E0D7019D917D0191937F
:1007F0008F5F8530C9F71092550181E0DF91CF916D
:100800001F910F91FF90EF90DF90CF90BF90AF902E
:100810009F908F907F906F905F904F90089560E0D1
:10082000B2CF0F931F93CF93DF9380910001D0E05D
:10083000C0E0882311F0C5E0D0E00E946C058C0177
:10084000892BB9F4C05CDE4F90E080E0FC01E65AF1
:10085000FE4F20812993019685309105B9F70E94BA
:10086000B82280935901C801DF91CF911F910F9158
:10087000089501E010E0F7CFCF930E946103C82FE5
:100880000E941104892BD1F05D9880914A018F5FFD
:1008900080934A01863078F080910001F0E0E0E03A
:1008A000882311F0E5E0F0E0E05CFE4F1082118259
:1008B0001282138214828C2FCF9108955D9A109228
:1008C0004A01F9CF0E94610380910001E5E0F0E068
:1008D000882311F0F0E0E0E0E05CFE4F90E080E083
:1008E0002191DC01A65ABE4F2C93019685309105CB
:1008F000B9F7809159010C949008E82FF0E0E05C82
:10090000FE4F808108950895E8EDF0E080818061D8
:1009100080838AE18A95F1F700C08091D9008170C7
:1009200008950E94840491E08927809300010E9429
:100930008404882321F00E94FA04789408950E9488
:10094000781D0E94FE04F9CF0E9417030E946204E2
:10095000FDCF0E9491040E948404811102C00E9474
:10096000A4040895509A08955098589A0895589A52
:1009700008950E94B404489BFECF80E88A95F1F761
:1009800008950E94B40498E080E029B1880F217096
:10099000822B20E82A95F1F725E02A95F1F700004F
:1009A000915099F708950F931F93CF93082F0E94AA
:1009B000B204C8E010E0C15020F4CF911F910F9114
:1009C0000895C8010C2E02C0959587950A94E2F708
:1009D00080FF06C00E94B70480E88A95F1F7EBCF4C
:1009E0005898FACF0E94B204589880E88A95F1F797
:1009F0000C94B7040E94B2040C94B7040E94B4048F
:100A0000E89AE9E6F0E080818C7F808308951F9268
:100A10000F920FB60F921124EF92FF921F932F9314
:100A20003F934F935F936F937F938F939F93AF9376
:100A3000BF93CF93DF93EF93FF930E94F204D0E034
:100A4000C0E010E0CE01865A9E4F7C01FC018081FF
:100A50000E94D3040E94F204F7018081180F2196AE
:100A6000C530D10579F7812F0E94D3040E94F2048A
:100A7000F0E8FA95F1F780E48A95F1F70E94C10455
:100A8000809359010E94F204C09159010E94C1044F
:100A9000D82F0E94F2040E94B40480915801DC1700
:100AA000C9F0816080935801FF91EF91DF91CF9160
:100AB000BF91AF919F918F917F916F915F914F9176
:100AC0003F912F911F91FF90EF900F900FBE0F90CD
:100AD0001F9018958E7FE6CFEF92FF921F93CF93D2
:100AE000DF93F8940E94B204589825E02A95F1F714
:100AF00000000E94B4040E94B70430E83A95F1F770
:100B0000489B09C0789481E090E0DF91CF911F91DC
:100B1000FF90EF9008950E94B904D0E0C0E010E08B
:100B20000E94C104FE01E65AFE4F7F0180830E94AD
:100B3000B904F7018081180F2196C530D10581F7DE
:100B40000E94C104C82F0E94B904C113DBCF809159
:100B500059010E94D3040E94B904809159010E9456
:100B6000D3040E94B9040E94B2040E94B70478948E
:100B700090E080E0CACFCF93DF93EC010E94A41CE9
:100B8000BE0190E080E0DF91CF910C946B1A823D22
:100B90009C4551F4FB018281882339F081E090E08B
:100BA0000E94BB0580E0089581E0089581E00895EA
:100BB0000C94C7050E947C162FEF84E39CE0215023
:100BC00080409040E1F700C0000087E797E79093EE
:100BD0000108809300080C94DD1D0F931F93CF93A1
:100BE000DF938C01FC01C081D181CE010E94691B81
:100BF000BE010E949A08EC01B8010E94D805882322
:100C000009F4FFC0B801CE010E943A0B882309F411
:100C1000F8C0C23CFCE5DF0709F42AC108F059C05E
:100C2000CB3B9CE5D90709F4FCC070F5C531FCE568
:100C3000DF07D0F4C2308CE5D80708F093C1C115A6
:100C40009CE5D90709F4D8C0C130DC4509F4DFC000
:100C500081E08093640180936501C801DF91CF91A9
:100C60001F910F910C94D605C531FCE5DF0709F4FF
:100C700037C2CA3BDC4561F7F8018281882309F459
:100C8000C0C00E94710EBDC0CE3B9CE5D90709F4DF
:100C9000DEC080F4CC3BFCE5DF0709F4CDC0CD3BE2
:100CA000DC45B1F6F8018281882309F4AAC00E94CC
:100CB0004C0DA7C0F8018281C03CFCE5DF0709F4B8
:100CC000D2C008F4CBC0882309F49BC00E94B30DA6
:100CD00098C0C93CECE5DE0709F417C108F042C032
:100CE000C53C8CE5D80709F4D3C0F8F4C33CECE567
:100CF000DE0709F4C4C0C43CDC4509F0A9CFF80103
:100D00008281882309F47DC00E941B0C623071052A
:100D10008105910540F00E941B0C6530710581052D
:100D2000910508F491C082E0B0C0F8018281C73C0F
:100D3000FCE5DF0709F4D5C008F4BFC0882309F437
:100D400060C00E941B0C653171058105910540F062
:100D50000E941B0C673171058105910508F474C070
:100D600085E193C0CC3CECE5DE0709F496C1D0F4F4
:100D7000CA3C8CE5D80709F4CFC0CB3CDC4509F070
:100D800067CFF8018281882309F470C11092640151
:100D90000E94811D909361018093600182E00E9416
:100DA00084132FC0C03DECE5DE0709F4CBC0C13D84
:100DB000FCE5DF0709F4CFC0CD3CDC4509F048CFA6
:100DC000F801828181116DC180916501811186C117
:100DD00080916201909163010E948D1D843691057E
:100DE00008F07CC180E20E948B1388E20E945A12B4
:100DF00088E20E94351305C0F801828181110E94AA
:100E0000DA0580E0DF91CF911F910F910895F801ED
:100E100082818823B1F38091E90181608093E901A7
:100E2000F0CFF8018281882361F30E942F1C827227
:100E300059F00E94680EE5CFF8018281882309F3FA
:100E40000E942F1C8272A9F30E945E0EDACFF80175
:100E500082818823B1F20E94640DD3CF882389F266
:100E60000E94830DCECF882361F20E949B0DC9CFD3
:100E7000F8018281882329F20E94CB0DC2CFF801AC
:100E80008281882309F4BDCF81E00E94E30DB9CFB0
:100E9000F8018281882309F4B4CF0E941B0C6630CC
:100EA00071058105910538F00E941B0C68307105B1
:100EB0008105910548F286E0E8CF882309F4A1CFA7
:100EC0000E941B0C693071058105910540F00E945C
:100ED0001B0C6E3071058105910508F4B5CF89E0D2
:100EE000D4CF882309F48DCF0E941B0C6F3071057D
:100EF0008105910540F00E941B0C6431710581054C
:100F0000910508F4A1CF8FE0C0CFF801828188233A
:100F100009F477CF88E1B9CFF8018281882309F4F9
:100F200070CF0E941B0C693171058105910540F05D
:100F30000E941B0C623271058105910508F484CF73
:100F400089E1A3CFF8018281882309F45ACF80E098
:100F50000E94F62456CFF8018281882309F451CFEC
:100F600082E0F6CFF8018281882309F476CE0E94D0
:100F7000911C811102C00E946B1C0E94A91C90E070
:100F80009093400280933F02FE01E350FC45809124
:100F90003F028160E231F105C8F4EF52F84F0C9442
:100FA000262DE307EF07F307F707FB07FF07030803
:100FB00007080B080F08130817081B081F08230849
:100FC00027082B082F0880913F02826080933F0200
:100FD00080913F020E94AD1C0E947C1612CF80912E
:100FE0003F028460F3CF80913F028860EFCF809111
:100FF0003F028061EBCF80913F028062E7CF80911A
:101000003F028064E3CF80913F028068DFCF809110
:101010003F028460EACF80913F028E7FD7CF8091DC
:101020003F028D7FD3CF80913F028B7FCFCF8091C6
:101030003F02877FCBCF80913F028F7EC7CF8091C9
:101040003F028F7DC3CF80913F028F7BBFCF8091C6
:101050003F028F77BBCF80913F028B7FEACF909189
:101060003F02892F97FB87F98058B0CF80916401A8
:1010700081110FC080916001909161010E948D1DCE
:101080008436910530F486E20E945A1286E20E946C
:10109000351382E00E948B13B4CEF801828188233D
:1010A00051F0109265010E94811D9093630180931D
:1010B000620180E274CE8091650181110FC0809140
:1010C0006201909163010E948D1D8436910530F478
:1010D00087E20E945A1287E20E94351380E2DACF3B
:1010E0000E942F1CF8019281992381F08A7A91E065
:1010F00009F490E090935F01811106C089E20E949B
:10110000B81B0E94FC1B7DCE85E3F9CF80915F0167
:10111000811104C089E20E94BF1BF3CF85E3FBCF9E
:10112000089508950C9491080C94920890E080E042
:1011300008950895972F70E027E0929F600D711D2C
:101140001124FB0196E4899FE00DF11D1124EE0F9F
:10115000FF1FEE50FF4F859194910895FC01EE0F13
:10116000FF1FEE5DFC4F859194910895CF93DF931F
:101170000E949A080E948C0AEC018115914508F0A2
:101180004BC0C11580E5D80708F024C1C83ED10581
:1011900010F5C03ED10580F5C83AD10570F4C53AC6
:1011A000D10508F0AAC0C130D10531F118F0C43022
:1011B000D10510F5D0E0C0E01FC0CD3BD10508F44B
:1011C000A7C0CE01805C9109C03CD10598F30E9474
:1011D000AE08EC0111C0C11520E3D20788F4C11597
:1011E00080E2D80708F0EDC0C03FD10518F3CF3F2B
:1011F000D10509F008F4E3C0CE01DF91CF91089545
:10120000C11520E4D20708F0E2C0CE019927D3FF30
:10121000DBC0EC01D86CF0CFC11589E5D80740F5EB
:10122000C11528E5D20708F01EC1C11584E5D8070D
:1012300078F4C11523E5D20708F0FCC0C11582E59A
:10124000D80708F0E3C0DC2FCC27C16FD06AD4CF19
:10125000C11525E5D20708F401C1C11586E5D807F7
:1012600008F0A8CFDC2FCC27CC27DF71D062C4CF09
:10127000C53B2CE5D20709F401C1C8F4C33B2CE5FA
:10128000D20709F4F5C008F0F6C0C1152AE5D20767
:1012900008F090CFCE0134E0969587953A95E1F726
:1012A0008F70CF70C06ED0E0D06AD82BA5CFC83B6E
:1012B0008CE5D80709F4E8C060F4C63B8CE5D80794
:1012C00009F4DFC0C73BDC4509F074CFC0E0D2EDC4
:1012D00093CFCE0190568115904208F06BCF8D2FA1
:1012E0008F710E940C0BDD27D06290E0982F882729
:1012F00088279F71C82BD92B7FCFC53AD10509F418
:10130000C6C0C63AD10509F4C5C0C3E8D0E474CF5D
:10131000C83AD10509F4C1C0C93AD10509F4C0C021
:10132000CA3AD10509F4BFC0CB3AD10509F4BEC011
:10133000CC3AD10509F4BDC0CB3BD10509F4BCC002
:10134000CC3BD10509F4BBC0CD3AD10509F4BAC0F4
:10135000C03BD10509F4B9C0CE3AD10509F4B8C0F3
:10136000CF3AD10509F4B7C0C13BD10509F4B6C0E5
:10137000C23BD10509F4B5C0C33BD10509F4B4C0E3
:10138000C43BD10509F4B3C0C53BD10509F4B2C0D3
:10139000C63BD10509F4B1C0C73BD10509F4B0C0C3
:1013A000C83BD10509F4AFC0C93BD10509F4AEC0B3
:1013B000CA3BD10509F0ADC0CAE2D6E41DCFD06565
:1013C0001BCFCE019F7003CFEC01D06C15CFDF7027
:1013D000D06A12CFCE01E4E096958795EA95E1F7C1
:1013E00083709C2F937021E030E002C0220F331FE6
:1013F0009A95E2F73C68382BC695C695C37080E293
:10140000C89FE0011124C22BD32BF6CECE018370EE
:10141000992721E030E002C0220F331F8A95E2F7BE
:10142000C695C69580E2C89FE0011124C22BD32B3C
:10143000DC68E2CECE018370992721E030E002C063
:10144000220F331F8A95E2F7C695C69580E2C89FA2
:10145000E0011124C22BD32BDA68CECEDC2FCC27AF
:10146000C46FD06AC9CEDC2FCC27C06FD06AC4CE7F
:10147000C0E0D4EDC1CEC0E0D5EDBECEC0E0D1ED30
:10148000BBCEC0E0D0EDB8CEC0E0D3EDB5CEC1E864
:10149000D0E4B2CEC2E8D0E4AFCEC2EED4E4ACCE5B
:1014A000C9EED4E4A9CECAEED4E4A6CEC5EBD4E40A
:1014B000A3CEC6EBD4E4A0CEC3EBD4E49DCEC4EB64
:1014C000D4E49ACEC7EBD4E497CECCECD4E494CE5B
:1014D000CDECD4E491CEC3E8D5E48ECECAE8D5E411
:1014E0008BCEC2E9D5E488CEC4E9D5E485CEC1E28D
:1014F000D6E482CEC3E2D6E47FCEC4E2D6E47CCE8C
:10150000C5E2D6E479CEC6E2D6E476CEC7E2D6E42A
:1015100073CEC0E0D4E470CE8238910549F1B0F4C6
:101520008133910509F45CC048F48932910509F4CE
:1015300052C08A32910509F458C008958533910547
:1015400009F444C08933910599F00895833E9105CB
:1015500031F138F4803E910591F0823E9105B1F071
:101560000895863E910511F1873E910541F1089558
:1015700020913F022370C9F080EE90E00895209101
:101580003F0220FF12C089E390E0089520913F02BE
:1015900022FF0BC024FF2EC090E080E00895209130
:1015A0003F0222FD2AC024FDF7CF089520913F027B
:1015B00023FFFBCF24FDF0CF87EE90E0089520912C
:1015C0003F0223FFF0CF86EE90E0089520913F0286
:1015D00025FD16C0089520913F0225FD14C00895F1
:1015E00020913F0226FD12C0089520913F0226FD62
:1015F00010C0089583EE90E0089582EE90E0089583
:1016000089E290E0089585E390E008958AE290E011
:10161000089581E390E0C9CFCF93C82F0E94A91C01
:10162000282F30E03093400220933F0282FF06C013
:101630009C2F9871983079F4C77FC46083FF06C0EF
:101640009C2F9871983171F4C77EC46184FDC77E68
:101650008C2FCF9108959C2F9471943079F7CB7F84
:10166000C860ECCF9C2F9471943181F7CB7EC86118
:10167000EDCF08950F931F93CF938C01FB018281CF
:10168000811106C0C1E08C2FCF911F910F91089559
:10169000C0917301C11125C006311C4599F70E9404
:1016A000390B81E0809373010E94811D9093720138
:1016B0008093710110926601109268011092670187
:1016C00010926A011092690110926C0110926B01E4
:1016D00010926E0110926D011092700110926F01C4
:1016E000D2CF80917101909172010E948D1D883C32
:1016F000910540F680916601E82FF0E0EE0FFF1FA4
:10170000E959FE4F118300838F5F80936601C0E02B
:10171000BACFCF92DF92EF92FF920F931F93CF93A6
:10172000DF93E901662309F466C0E42EF12CEFEFA4
:10173000F0E0E61BF109EE9D8001EF9D100DFE9D8E
:10174000100D1124212FE12FFF27EE1AFF0A5CE371
:10175000C52ED12CB6010E94FE2CFB01BC01E69ED9
:10176000C001E79E900DF69E900D1124B6010E94D7
:10177000FE2CE230F10589F168F4812F262F210F2C
:10178000309781F0242F461B319761F080E020E0F4
:1017900040E008C0E430F10551F128F1842F861BA8
:1017A0003597A1F7E42FF0E0E45CFC4F4491E22F81
:1017B000F0E0E45CFC4F9491E82FF0E0E45CFC4F37
:1017C000E49149839883EA83DF91CF911F910F9130
:1017D000FF90EF90DF90CF900895862F810FE42F38
:1017E000412F2E2FDFCFE42FE61B842FF9CF842F3C
:1017F000462F410FD7CF842F242FD4CF88E090E0FD
:101800000C94342DAB01BC0188E090E00C94522D77
:10181000E1E0F2E083E08083109202028FEF8283A6
:101820008383609101027091020280910302909182
:1018300004020C94020C6091010260FF06C06695E0
:101840006F7370E090E080E0089560E070E0CB019D
:10185000089580910102E9E0F2E080FF06C060E1B6
:1018600070E089E092E00C941D11118210821282C6
:10187000339682E0E933F807C1F7F1CF9091010286
:1018800090FF0CC0E9E0F2E08183608342833396ED
:1018900092E0E933F907C1F70C94290C0895EF920F
:1018A000FF920F931F93CF93DF9300D01F92CDB77A
:1018B000DEB7182FE92EF62E042F809101029091A9
:1018C0000202A0910302B09104028093050290935A
:1018D0000602A0930702B09308028091010280FFE4
:1018E0001FC09E012F5F3F4F812F9E2D0E94890BAD
:1018F0008091050210FB87F980930502169580916F
:1019000006028078812BE0FA87F980930602F09234
:101910000702009308024B8169818A810E943E0C74
:101920000F900F900F90DF91CF911F910F91FF902B
:10193000EF9008956F927F928F929F92AF92BF9295
:10194000CF92DF92EF92FF920F931F93CF93DF938B
:10195000EC01662E742E8091010280FF8EC0982FBC
:101960009E77923079F5CE010E944F0C8091010252
:101970009C2FC0FB87F9809301029695809102020B
:101980008078892BD0FB87F9809302026092030252
:101990007092040260910102709102028091030230
:1019A00090910402DF91CF911F910F91FF90EF90E2
:1019B000DF90CF90BF90AF909F908F907F906F906F
:1019C0000C94020CE82FE695EF739EE39E0F9F7335
:1019D000943018F470900402C9CF9AE39E0F9F735D
:1019E000993070F4881F8827881F90910202292F50
:1019F000220FC22FC82B97FB992790F9D92FB6CF6A
:101A000087E28E0F8F738A3008F0B0CFE951FF0B59
:101A10002FEFE0FF21E0EE7FEE5DFC4F859194918A
:101A200034E0969587953A95E1F7AC01240350018F
:101A3000259FB00C11247E0158E9E51A5EEFF50AE6
:101A400009E012E049E3C42E42E0D42E58E6852E88
:101A500099249394C701B4010E94FE2C9801472D4C
:101A6000662D0E94890BEA0CFB1C0D5F1F4FC016F0
:101A7000D10681F70E94290C79CFDF91CF911F9178
:101A80000F91FF90EF90DF90CF90BF90AF909F901D
:101A90008F907F906F900895E1E0F2E02081221F07
:101AA0002227221F30910202432F440F842F822BC2
:101AB00037FB992790F9089668E671E00E94122D8D
:101AC000438162810C949A0C20910102221F2227EB
:101AD000221F30910202432F440F842F822B37FBA9
:101AE000992790F98830910540F4805A9E4F409193
:101AF0000402609103020C949A0C089768E671E066
:101B00000E94122DF4CF60910302683F90F4685F49
:101B100080910102881F8827881F90910202292F37
:101B2000220F97FB992790F940910402822B0C9485
:101B30009A0C6FEFEDCF60910302683090F068501F
:101B400080910102881F8827881F90910202292F07
:101B5000220F97FB992790F940910402822B0C9455
:101B60009A0C60E0EDCF40910402483F90F4485F4A
:101B700080910102881F8827881F90910202292FD7
:101B8000220F97FB992790F960910302822B0C9406
:101B90009A0C4FEFEDCF40910402483090F048503E
:101BA00080910102881F8827881F90910202292FA7
:101BB000220F97FB992790F960910302822B0C94D6
:101BC0009A0C40E0EDCF9091010290FF42C09178D5
:101BD000811126C092609093010260910102709180
:101BE000020280910302909104020E94020C8091F3
:101BF0000102982F9E779230D9F410928901881FA4
:101C00008827881F90910202292F220F97FB99277E
:101C100090F94091040260910302822B0C949A0C7B
:101C2000833210F09464D7CF8F73880F982BD3CF63
:101C3000982F96959F732EE3290F2F73273120F449
:101C400091E090938901DBCF995D9F739A30B8F64C
:101C5000D4CF08958091E90181608093E90181E00A
:101C600080938A010E94911C811104C00E946B1C08
:101C70000E94080C0E94FE0B609301027093020206
:101C800080930302909304026E7761F40E94080C23
:101C90000E94FE0B60930102709302028093030284
:101CA0009093040281E0809389018091010280FF7A
:101CB00004C086958F730C94E30D08958091010202
:101CC00086958F738F5F833208F081E00C94E30D6B
:101CD0008091010286958F73815009F482E20C9401
:101CE000E30D90910102892F8E7F90FF8160809398
:101CF00001026091010270910202809103029091B1
:101D000004020E94020C8091010280FF04C08695AB
:101D10008F730C94E30D109289012FEF80E792E00E
:101D2000215080409040E1F700C000000C94290C45
:101D3000CF93C82F80918701909188010E948D1DBB
:101D4000EC2FF0E0E85CFC4FE491E817190611F085
:101D500008F042C00E94811D909388018093870102
:101D60006091860170E090E080E00E94FF2A20E010
:101D700030E04FE753E40E94222A2BED3FE049E494
:101D800050E40E94282C0E94952C0E949C2A2BE44F
:101D90003AE34EE25FE30E94B52920EF3BEF48EDC6
:101DA00052E40E94282C0E94CE2A462F80910102E4
:101DB000881F8827881F90910202292F220F97FBE6
:101DC000992790F960910302822B0E944F0C809119
:101DD00086018F5F80938601CF910895CF93C82F9E
:101DE00080918401909185010E948D1DEC2FF0E07F
:101DF000EB5CFC4FE491E817190609F0E8F40E9447
:101E0000811D90938501809384014091040260912B
:101E1000030280918201909183010E944F0C809176
:101E2000820190918301019668E671E00E94FE2C88
:101E30009093830180938201CF910895DF92EF9276
:101E4000FF920F931F93CF93DF93D82E8091800141
:101E5000909181010E948D1DED2DE695F0E0EE5CE4
:101E6000FC4FE491E817190609F0A8F50E94811DBE
:101E7000909381018093800109E012E0D0E0C0E0FE
:101E800088E6E82EFF24F39480917E0190917F01F3
:101E90008C0F9D1FB7010E94FE2C980140910402F7
:101EA000609103020E94890B66960D5F1F4FC0363A
:101EB00081E0D80749F70E94290C80917E0190911A
:101EC0007F01D0FE10C00196B7010E94FE2C9093B6
:101ED0007F0180937E01DF91CF911F910F91FF9041
:101EE000EF90DF9008950197F2CFCF92DF92EF92BB
:101EF000FF920F931F93CF93DF93C82FFF24FA9481
:101F000080FD02C0FF24F39480917C0190917D01BB
:101F10000E948D1DC695EC2FF0E0E15DFC4FE49131
:101F2000E817190611F008F050C00E94811D909327
:101F30007D0180937C01C9E0D2E010E000E01982CD
:101F400018821A8294E0C92ED12CE12C80917B0159
:101F50008E0D87FD805F082E000C990B081719075E
:101F6000E9F4809104028C9DA0018D9D500D1124F7
:101F7000559547955595479580910102881F88276B
:101F8000881F90910202592F550F97FB992790F9BE
:101F90009E0160910302852B0E94890BEF0C81E06A
:101FA000C81AD10899F60F5F1F4F2396003111050B
:101FB00031F60E94290C80917B0191E0F91210C04A
:101FC00081110CC08FE080937B01DF91CF911F9135
:101FD0000F91FF90EF90DF90CF9008958150F3CF55
:101FE00090E001968F709927EECF0F931F93CF93B8
:101FF000DF93C82F8091790190917A010E948D1D05
:10200000EC2FF0E0E45DFC4FE491E817190611F0C5
:1020100008F052C00E94811D90937A01809379014B
:10202000C9E0D2E0FE01118210821282339682E072
:10203000E933F807C1F710E000E080917801082E3D
:10204000000C990B08171907E4F180910201082E82
:10205000000C990B80179107A4F180910102881F51
:102060008827881F90910202592F550F97FB9927B7
:1020700090F99E014091040260910302852B0E9419
:10208000890B0F5F1F4F239600311105B1F60E9497
:10209000290C8091010190917801980F909378011B
:1020A00020910201280F20930201121614F49F3090
:1020B0001CF0819580930101DF91CF911F910F91C9
:1020C0000895198218821A82DCCFEF92FF920F9343
:1020D0001F93CF93DF9380917601909177010E94B7
:1020E0008D1D883E9340C8F10E94811D9093770119
:1020F00080937601C0917401D09175012196C170D1
:10210000DD27D0937501C093740189E0E82E82E049
:10211000F82E10E008E7812F86958C0F9D2F911DDA
:102120008170992797014091040260910302FC019C
:102130000E9FC0010F9F900D11240E94890B1F5FFD
:10214000F3E0EF0EF11C103131F7DF91CF911F91C9
:102150000F91FF90EF900C94290CDF91CF911F917C
:102160000F91FF90EF90089580918901882391F15C
:1021700090910102892F86958F732EE3280F2F737C
:10218000243018F482500C94980E2AE3280F2F73F1
:10219000233018F486500C94EE0E27E3280F2F738B
:1021A000263018F489500C941E0F21E3280F2F734A
:1021B000263018F48F500C94750F2BE2280F2F73D4
:1021C000233018F485510C94F50F9E77903311F459
:1021D0000C94651008953BB1242F209523233BB127
:1021E000432B3FB7F894FC01680F791FE617F707F8
:1021F00011F43FBF0895819198E04BB9000000C0F1
:1022000087FF2BB9880F000000C000C000C02BB9A9
:1022100000C09A9591F7EACF2AB1242B2AB99B01E5
:10222000220F331F620F731F0E94EB1087EC90E0A8
:102230000197F1F700C00000089542E00C940C11E2
:102240009093900180938F010895E0918F01F09118
:102250009001309721F00190F081E02D099480E009
:102260000895E0918F01F0919001309721F0028064
:10227000F381E02D09940895E0918F01F091900190
:10228000309721F00480F581E02D09940895209184
:102290008D0130918E012817390771F090938E01CE
:1022A00080938D01E0918F01F0919001309721F0A2
:1022B0000680F781E02D0994089520918B013091DB
:1022C0008C012817390771F090938C0180938B0152
:1022D000E0918F01F0919001309721F00084F18519
:1022E000E02D099408950C94A90481E008950E94BA
:1022F000781D0E9417030E94EE1D0E9415220C9467
:102300002A0EBF92CF92DF92EF92FF920F931F930C
:10231000CF93DF93CDB7DEB72A970FB6F894DEBF21
:102320000FBECDBF0E943C040E947511882309F4A2
:1023300071C082E9C82E81E0D82E10E000E0B02EF6
:10234000802F0E947D04E82EF601F1906F01F816AF
:1023500009F45AC08091E90181FD0E94830490E054
:1023600080E0FE242F2D30E0482FB901082E02C056
:10237000759567950A94E2F760FF41C08E83BF822E
:1023800081E090E06C0102C0CC0CDD1C4A95E2F7C4
:102390002E2D30E02C213D21232B09F480E088876D
:1023A0000E94811D8160782F9A8789874E815F8185
:1023B00068858A850E942B12F801EE56FE4F8081B7
:1023C0008C2580830E94811F0E942511909191018C
:1023D000891789F10E942511809391012A960FB6E1
:1023E000F894DEBF0FBECDBFDF91CF911F910F914B
:1023F000FF90EF90DF90CF90BF900C9494080196DF
:102400008730910509F0B0CF0F5F1F4F0A301105DB
:1024100009F095CF8FEF89838A831B820E94811DEB
:102420008160782F9D838C8349815A816B818D8156
:102430000E942B12C7CF2A960FB6F894DEBF0FBEAC
:10244000CDBFDF91CF911F910F91FF90EF90DF9063
:10245000CF90BF900895CF93DF93CDB7DEB72B9782
:102460000FB6F894DEBF0FBECDBF4F835887698784
:102470007A878B871E821D8285E0FE013796DE01FA
:10248000119601900D928A95E1F749815A816B81ED
:102490007C818D819E812B960FB6F894DEBF0FBE96
:1024A000CDBFDF91CF910C943C19FC0180819181CB
:1024B0000C94AB1BCF93C82F882309F4D4C0823867
:1024C000C1F40E94251181FDCEC089E30E94B81B92
:1024D0000E94FC1B2FEF81EE94E021508040904041
:1024E000E1F700C0000089E30E94BF1BCF910C946C
:1024F000FC1B8338A1F40E94251180FDB4C083E544
:102500000E94B81B0E94FC1B2FEF81EE94E021502B
:1025100080409040E1F700C0000083E5E5CF8438BB
:10252000A1F40E94251182FD9EC087E40E94B81B81
:102530000E94FC1B2FEF81EE94E0215080409040E0
:10254000E1F700C0000087E4CFCF8CEF8C0F813A19
:1025500048F48C2F0E948621811185C08C2F0E9407
:10256000B81BC4CF80E28C0F883048F4C77081E07C
:1025700001C0880FCA95EAF70E94321CB7CF8BE5DD
:102580008C0F833068F481E890E0C53A31F083E83D
:1025900090E0C63A11F482E890E0CF910C94471194
:1025A00088E58C0F853108F05EC082EE90E0C83A75
:1025B00009F456C089EE90E0C93A09F451C08AEE98
:1025C00090E0CA3A09F44CC085EB90E0CB3A09F4AC
:1025D00047C086EB90E0CC3A09F442C083EB90E030
:1025E000CB3BF1F184EB90E0CC3BD1F187EB90E079
:1025F000CD3AB1F18CEC90E0C03B91F18DEC90E0E4
:10260000CE3A71F183E891E0CF3A51F18AE891E056
:10261000C13B31F182E991E0C23B11F184E991E0E3
:10262000C33BF1F081E292E0C43BD1F083E292E05F
:10263000C53BB1F084E292E0C63B91F085E292E0C6
:10264000C73B71F086E292E0C83B51F087E292E02E
:10265000C93B31F090E080E0CA3B11F48AE292E09D
:10266000CF910C945D11CF910895882309F44BC04C
:10267000823871F40E94251181FF45C089E30E94D0
:10268000B81B0E94FC1B89E30E94BF1B0C94FC1B1F
:10269000833859F40E94251180FF35C083E50E94DC
:1026A000B81B0E94FC1B83E5EFCF843859F40E94CD
:1026B000251182FF28C087E40E94B81B0E94FC1BE2
:1026C00087E4E2CF9CEF980F913AF0F290E2980FF6
:1026D000983050F4877091E001C0990F8A95EAF71D
:1026E000892F0E94381CD2CF9BE5980F933020F49D
:1026F00090E080E00C944711885A853120F490E0F6
:1027000080E00C945D110895882321F00E94321C12
:102710000C94FC1B0895882321F00E94381C0C9413
:10272000FC1B08958F929F92AF92BF92DF92EF921F
:10273000FF920F931F93CF93DF937C01D62FC72F68
:10274000FC01058102950F70128111110E94511C2C
:102750000E94F51BD82E882371F0112331F180E2FD
:102760008D0F883010F182E00E94DF1B0E94F51B64
:1027700091E0D82ED926BC2EB2949FE0B922EB2D41
:10278000F0E0EB53FC4E0C94262DD713D7132714EF
:1027900027146914911470147014D31470146E15E6
:1027A0006E15F815011670142416D12CE4CF0C2FD9
:1027B0000F70C07F11F00295007F1123A9F0002354
:1027C00059F080E28D0F883010F0D11109C0802FB0
:1027D0000E94321C0E94FC1B8D2F0E945A1214C0B2
:1027E000802F0E94431CF6CF8D2F0E9435130023AB
:1027F00059F080E28D0F883010F0D11124C0802F65
:102800000E94381C0E94FC1BDD2009F424C20E9497
:10281000D21B80FD20C2F70112820E94CC1B0E94B5
:10282000CD1AC7010E9437160E94CC1BDF91CF91B1
:102830001F910F91FF90EF90DF90BF90AF909F900E
:102840008F900C94EE1A802F0E94491CDBCFFC2F36
:10285000FF70BF2EC07FC03219F0B29480EFB82253
:10286000DD2369F0D13029F1112369F1002359F0FA
:10287000F701858180FFB0CF8F70858304C011235D
:1028800061F0011104C08B2D0E948413BDCF8B2DEC
:102890000130D1F70E94651CB7CF011106C00E941C
:1028A000681C8B2D0E948B13AFCF013009F4ACCF85
:1028B000F6CF112321F0063008F0A6CFE4CF053083
:1028C00008F0A2CFEECF002361F38D2F0E943513C5
:1028D0009BCF8C2F86958695837079F08130B9F0E7
:1028E00098E0B91609F49BC0B91608F48DCF86EFAD
:1028F0008B0D823008F493C087CF8D2F9C2F93705F
:10290000111102C090E080E00E9447117DCF8D2F11
:102910009C2F9370111102C090E080E00E945D1125
:1029200073CF112309F1D53F99F0D63FB9F0D43FC9
:1029300049F48091390290913A02816090933A0271
:10294000809339028D2F0E948A1E0E94761F5CCFD1
:102950008091390290913A028260F0CF80913902E1
:1029600090913A028460EACFD53F89F0D63FA9F032
:10297000D43F49F48091390290913A028E7F90932E
:102980003A02809339028D2F0E94F21EDECF809191
:10299000390290913A028D7FF2CF80913902909165
:1029A0003A028B7FECCF8C2F837009F04BC0111152
:1029B00036C02D2F229526952770220F220F6D2FBE
:1029C0006F70862E912CB12CA12C022E04C0880C85
:1029D000991CAA1CBB1C0A94D2F760E070E0CB01E2
:1029E000D4FF0FC06FE070E080E090E004C0660F9D
:1029F000771F881F991F2A95D2F76095709580954B
:102A00009095C695C695C370C23071F0A0F4682940
:102A100079298A299B29C13091F00E947F1A0E944E
:102A200025110E949408F0CE682979298A299B29CA
:102A30000E94911AF4CF0E947F1AC501B4010E942E
:102A40006D1AEDCF8695112311F08C2F817088239C
:102A500031F32D2F229526952770220F220F6D2FEF
:102A60006F70862E912CB12CA12C022E04C0880CE4
:102A7000991CAA1CBB1C0A94D2F760E070E0CB0141
:102A8000D4FF0FC06FE070E080E090E004C0660FFC
:102A9000771F881F991F2A95D2F7609570958095AA
:102AA0009095C695C695C370C23051F080F46829E0
:102AB00079298A299B29C13071F00E94441BAFCF2C
:102AC000682979298A299B290E94561BA8CF0E9430
:102AD000441BC501B4010E94321BA1CFE0E2ED0FFF
:102AE000E53108F066C0F0E0E858FA4E0C94262D67
:102AF0008D158D158D158D158D158D158D158D15C6
:102B00008D158D158D158D158D158D158D158D15B5
:102B10009E15AC15B315BA15C415DF708C2F8F71C7
:102B2000112331F00E94CD1A8D2F0E948413D8CE2C
:102B30000E94EE1A8D2F0E948B13D2CE112341F0EA
:102B4000053008F0CDCE8C2F8F710E94111BC8CE9E
:102B5000063008F0C5CEF7CF8C2F8F71112339F0D6
:102B60000E94CD1ABDCE8C2F8F711123C9F30E9404
:102B7000EE1AB6CE112329F08C2F8F710E94B81A4D
:102B8000AFCE0E94B31AACCE112349F0CF718C2F77
:102B90000E94CD1A63E08C2F0E94D61BA1CE81E04B
:102BA0000E94DF1B023008F49BCE82E00E94DF1BF4
:102BB00097CE112349F0002321F08D2F0E945A1245
:102BC0008FCE8C2F8F71CCCF002379F0D93349F47D
:102BD000FFEF27EE83E0F15020408040E1F700C096
:102BE00000008D2F0E9435137BCE8C2F8F71BFCFAD
:102BF0004C2F4F706D2FC7010E9496080E94E51957
:102C000003CE111101CECF70C230B1F040F4CC230D
:102C100081F0C13009F064CE0E944622F5CDC43067
:102C200089F068F080E0C53009F05ACE0E949C22FD
:102C3000EBCD0E942E22E8CD0E945F22E5CD0E94BE
:102C40007922E2CD85E0F2CF4C2F4F706D2FC70176
:102C50000E949908D9CDDF91CF911F910F91FF90DC
:102C6000EF90DF90BF90AF909F908F9008950F935B
:102C70001F93CF93DF93EC01988189812B813C8155
:102C8000232B39F08F3F19F481E09F3F19F080E04A
:102C900001C081E080FD17C0CE010E94ED058823B0
:102CA00091F0688179818A810E94B51B8C010E9414
:102CB000681B0E946A1AB801CE01DF91CF911F9163
:102CC0000F910C949213DF91CF911F910F91089562
:102CD0000E94511C0E94621C0E94C61B0E94FC1B89
:102CE0000E940C200E94761F90E080E00E94471115
:102CF00090E080E00C945D110E94401C0C946816DA
:102D00000E94AB1BE92FE295EF70E250EE30E0F449
:102D1000F0E0E357F94E0C94262D9B169B16A41653
:102D2000A416A616A416A416A4169B169B16AB16DC
:102D3000A416A416AB16803F19F020F4803E20F4B0
:102D400081E00895843FE1F380E00895803EC0F380
:102D5000813FD1F7F5CF93FB882780F90895CF9372
:102D6000DF9300D000D01F92CDB7DEB70F900F9049
:102D70000F900F900F90DF91CF910895CF93DF9335
:102D800000D000D000D0CDB7DEB726960FB6F894AD
:102D9000DEBF0FBECDBFDF91CF9108951F93CF93BC
:102DA000DF93C0919C0116E080919D018C1304C0BB
:102DB000DF91CF911F910895D0E01C9FF0011D9FDE
:102DC000F00D1124E256FE4F4081518162817381E2
:102DD000848195810E94BE162196C770E5CF4091EF
:102DE000CE015091CF016091D0017091D1018091BD
:102DF000D2019091D3010C94BE161F93CF93DF9311
:102E00008091D301807FD1F48091D0018823B1F0EB
:102E100080919C01D0919D01B091CE01C091CF01D4
:102E20004091D1015091D201A1E0BF3F09F0A0E053
:102E3000BA016095709516E0D81304C0DF91CF9168
:102E40001F91089521E04115510521F02A2FCF3F10
:102E500009F020E090E020FD38C0189FF001199F94
:102E6000F00D1124E256FE4F21812C132EC020813B
:102E70002B132BC02281211128C0238134812417D8
:102E8000350700F1241B350B24363105F0F4209171
:102E9000D3012F7020612093D30126E0289FF001F9
:102EA000299FF00D1124ED55FE4F80818F708061B8
:102EB00080838EEC91E00E943716DF91CF911F91B5
:102EC0000C94CE16260F371FDFCF01968770B4CF34
:102ED000AF92BF92CF92DF92EF92FF920F931F9328
:102EE000CF93DF93CDB7DEB761970FB6F894DEBF0F
:102EF0000FBECDBF8C0185E0F801DE011D9601906B
:102F00000D928A95E1F7D8014C9111965C91119739
:102F10001296EC903091CE016091CF018091D10159
:102F20009091D20121E0009731F06F3F19F421E038
:102F30003F3F09F020E0B22FB170BB2E20FD80C1D1
:102F4000F801C380D480A090D001AA2009F427C141
:102F5000C816D906D0F1D601A81BB90BCD01FF24A4
:102F6000F3948436910508F0F12C8091D301982FC9
:102F7000907FFF2009F4CEC0911187C0FE2C65130D
:102F800029C0341327C0E11025C08F708061809361
:102F9000D3010E94EF168EEC91E00E9437168091CB
:102FA000D301F80185838F2D61960FB6F894DEBFAB
:102FB0000FBECDBFDF91CF911F910F91FF90EF908A
:102FC000DF90CF90BF90AF900895809590958C0D35
:102FD0009D1DC5CF81E0CD2831F05F3F19F481E020
:102FE0004F3F09F080E080FD24C081E08E25F82F5E
:102FF000F170DF2E80FF3FC080919C0120919D01E8
:1030000036E0821318C04D875E878D859E850E94AD
:10301000AB1B292F22952F70223008F1243030F578
:103020009F7009F1D80115969C91907FE1F4FB2CDB
:10303000BACF80E0DCCF90E0389FF001399FF00DEF
:103040001124E256FE4F6181561306C0608146137B
:1030500003C062816E110FC001968770D2CF9F703E
:1030600011F0882321F3805E883008F3C8010E94A4
:103070003716BD2CDCCFEE2009F495CF8091D3011B
:1030800081608093D301F12C8ECF651314C034136B
:1030900012C0E11010C0F8018583C8010E943716E4
:1030A00086E0F801AEECB1E001900D928A95E1F76F
:1030B0000E94EF1678CF4D875E878D859E850E9492
:1030C0008016882319F1EE2009F18091D301803216
:1030D00070F02091CE013091CF0138872F8319866F
:1030E000DB86CA868C87CE0107960E94371686E05B
:1030F000F801AEECB1E001900D928A95E1F70E94E3
:10310000FD160E94EF16FF24F3944DCFC8010E94D4
:103110003716F9CF911113C07C2DD98AC88A6E2D2C
:1031200089890E94AF168EEC91E00E94371686E0E6
:10313000EEECF1E0DF011D928A95E9F7B9CF651356
:1031400012C0341310C0E1100EC0F8018583C8010D
:103150000E943716EEECF1E086E0DF011D928A95C1
:10316000E9F7FA2C20CF4D875E878D859E850E94DA
:103170008016882359F2EE2049F28091D3018032E3
:1031800008F4B5CF2091CE013091CF013A83298345
:103190001B82DD82CC828E83CE010196A6CFC8161B
:1031A000D90638F1F601E81BF90BCF01F12C843672
:1031B000910508F03DC0FE2CEE2009F4A7CF651361
:1031C00026C0341324C08091D30180FD17C0982FEE
:1031D000907FA1F0D80115968C931597903F09F434
:1031E0005CCF982F907F905F8F70892B15968C9372
:1031F00054CF809590958C0D9D1DD8CF86E0F80119
:10320000AEECB1E001900D928A95E1F7CCCE4D87FE
:103210005E878D859E850E948016811168CF809182
:10322000D30181608093D301C8010E943716BBCEC1
:103230007C2DD98AC88A6E2D89890E94AF1677CFD6
:10324000EE2009F463CF4D875E878D859E850E94B1
:103250008016F82E882309F459CF86E0F801AEECE9
:10326000B1E001900D928A95E1F78EEC91E00E9419
:1032700055120E94FD161CCF1F93CF93DF93CDB73D
:10328000DEB72C970FB6F894DEBF0FBECDBF4F83CD
:10329000588769877A878B879C87CE0107960E941B
:1032A0006817882309F442C09F8188852A853B8559
:1032B000232B39F08F3F19F481E09F3F19F080E014
:1032C00001C081E080FD08C04F81588569857A85FD
:1032D0008B859C850E94BE1616E080919C01909182
:1032E0009D01891709F467C0819FC001112482568E
:1032F0009E4F0E946817882309F45DC0E0919C01ED
:103300001E9FF0011124E256FE4F408151816281DF
:103310007381848195810E94BE1680919C0190E00A
:1033200001968770992780939C01D7CF86E0FE0194
:103330003796DE01119601900D928A95E1F79F81F3
:1033400088852A853B85232B39F08F3F19F481E04E
:103350009F3F19F080E001C081E080FDBDCF20914A
:103360009D0130E0C90101968770992740919C0129
:103370004817190699F096E0929FD001939FB00DDF
:103380001124A256BE4FFE01319601900D929A95DE
:10339000E1F780939D010E94CE169ECF0E947C167D
:1033A00010929D0110929C0186E0EEECF1E0DF01AD
:1033B0001D928A95E9F72C960FB6F894DEBF0FBEE2
:1033C000CDBFDF91CF911F910895EF92FF920F93A0
:1033D0001F93CF93DF938C01892B81F0F12CEE2486
:1033E000E394E8012196F8018491843770F48430E5
:1033F00008F05FC08130B1F08230A1F1DF91CF9150
:103400001F910F91FF90EF900895853709F44CC0FC
:1034100008F43DC09CE7980F903780F78F770E94A3
:10342000351349C00E5F1F4FFE01849190E2980F43
:10343000983060F48770FE2D01C0FF0F8A95EAF77F
:103440008F2F0E94541C0E94FC1B02C00E945A1223
:103450008F2D815030F2EFE9FFE03197F1F700C096
:103460000000F7CF0E5F1F4FFE01849190E2980F8E
:10347000983050F48770FE2D01C0FF0F8A95EAF74F
:103480008F2F0E945A1CDFCF0E943513E1CF0E5FB1
:103490001F4FFE01C491C150D8F28FE99FE0019700
:1034A000F1F700C00000F7CF0E5F1F4FFE01F49050
:1034B000CFCF0E945A128E01CBCF08950E945D1A81
:1034C0006093D8017093D9018093DA019093DB0166
:1034D0000C94681608950C945E1A0F931F93009134
:1034E000D8011091D9012091DA013091DB01602BD4
:1034F000712B822B932B1F910F910C945E1A0F93BB
:103500001F930091D8011091D9012091DA013091D7
:10351000DB0160237123822393231F910F910C946D
:103520005E1A0F931F930091D8011091D901209139
:10353000DA013091DB0160277127822793271F91E1
:103540000F910C945E1A0C945D1A0C94A31A0E94AD
:10355000A51A6093D4017093D5018093D6019093FE
:10356000D7010C94681660E070E0CB010C94A71AA8
:103570000F931F9341E050E060E070E08A019B01EF
:1035800004C0000F111F221F331F8A95D2F7C901F3
:10359000B8011F910F910C94A71A0F931F9341E04C
:1035A00050E060E070E004C0440F551F661F771FB5
:1035B0008A95D2F78091D4019091D501A091D6013E
:1035C000B091D7018A019B01082B192B2A2B3B2B89
:1035D000C901B8011F910F910C94A71A0F931F9363
:1035E00041E050E060E070E004C0440F551F661FEA
:1035F000771F8A95D2F7CB01BA01609570958095B7
:1036000090950091D4011091D5012091D60130916F
:10361000D70160237123822393231F910F910C9470
:10362000A71A0F931F9341E050E060E070E004C0E0
:10363000440F551F661F771F8A95D2F78091D401DA
:103640009091D501A091D601B091D7018A019B013B
:10365000082719272A273B27C901B8011F910F9175
:103660000C94A71A0F931F930091D4011091D501C8
:103670002091D6013091D701602B712B822B932B97
:103680001F910F910C94A71A0F931F930091D401CF
:103690001091D5012091D6013091D701602371237B
:1036A000822393231F910F910C94A71A0F931F93BA
:1036B0000091D4011091D5012091D6013091D7010C
:1036C00060277127822793271F910F910C94A71AC7
:1036D0000895BF92CF92DF92EF92FF920F931F93C4
:1036E000CF93DF938C01C090D401D090D501E090AE
:1036F000D601F090D7018091D8019091D901A09185
:10370000DA01B091DB01C82AD92AEA2AFB2ACFE1E3
:10371000D0E0BC2ED701C6010C2E04C0B695A795EB
:10372000979587950A94D2F780FD0EC0219788F768
:10373000B12C8B2DDF91CF911F910F91FF90EF90C6
:10374000DF90CF90BF900895B8018C2F0E94B608EB
:10375000019761F3EECFCF93DF93EC010E94691BD9
:10376000BE01DF91CF910C94B608CB010C94AB1B3A
:10377000682F80910301909104010C94EF1C682F35
:1037800080910301909104010C94F11C809103013C
:10379000909104010C94F31C8091DC018595859532
:1037A000859508958091DC018770089598E0899F40
:1037B00090011124622B6093DC010C94CD1A90913E
:1037C000DC01809589238093DC01282F277061F428
:1037D000282F082E000C330B9217130629F085951D
:1037E000859585950C94EE1A08959091DC0197705B
:1037F00081E009F480E00895E0910301F091040173
:103800008091E8018083E0910301F09104018081BF
:103810009091E701892B8083E0910301F0910401ED
:1038200080819091E601892B80839091DD0199231D
:1038300081F0E0910301F09104018081892B808364
:1038400080910301909104010E94BB1C8111109290
:10385000DD0180910301909104010C94311180915C
:10386000E80108959091E801892B8093E80108957B
:10387000982F90958091E80189238093E80108951D
:103880001092E80108959091E701892B8093E70158
:103890000895982F90958091E70189238093E701FF
:1038A00008951092E70108959091E601892B809385
:1038B000E6010895982F90958091E60189238093E1
:1038C000E60108951092E60108958093DD010895C0
:1038D0001092DD0108956DEE7EEF90E080E00E9491
:1038E0005E2D60E082E090E00E94402D60E083E089
:1038F00090E00E94402D60E084E090E00E94402D26
:1039000060E085E090E00E94402D60E086E090E07D
:103910000E94402D40E050E0BA0188E090E00C9415
:10392000522D90E080E00E943A2D21E08D3E9E4F86
:1039300009F020E0822F089582E090E00C942C2D75
:1039400083E090E00C942C2D682F83E090E00C94A1
:10395000402D84E090E00C942C2D682F84E090E0C2
:103960000C94402D86E090E00C942C2D682F86E07E
:1039700090E00C94402DFC0131969C01285F3F4F54
:1039800080E0919191118F5FE217F307D1F70895CD
:103990009C01FC0132969FEF80E04191461751F067
:1039A0009F3F19F4411101C0982F8F5F8630A9F70E
:1039B0009F3F09F40895290F311D97FD3A95F901AC
:1039C00062830895FC01329608962191261303C064
:1039D000DF0111971C92E817F907B9F708950C94C5
:1039E000C81C0C94E21CFC01118212821382148206
:1039F0001582168217820895089508950E94FD1C6D
:103A000080914602843051F11092EA0188E190E001
:103A100020E40FB6F894A895809360000FBE209321
:103A2000600080E00E94900880E00E94940883B7C4
:103A3000817F846083BF83B7816083BF78948895DA
:103A400083B78E7F83BF0FB6F894A89580916000EE
:103A5000886180936000109260000FBE0895089501
:103A6000CF930E94FC1C0E943C040E942F1DC0E0CA
:103A70008C2F0E947D04811105C0CF5FCA30C1F731
:103A8000CF91089581E0FCCF08950E94441D0E94CB
:103A90007C160E9415220E9425110C9494081F92F6
:103AA0000F920FB60F9211248F939F93AF93BF93F2
:103AB0008091EA01811113C080913B0290913C02F8
:103AC000A0913D02B0913E024196A11DB11D80938F
:103AD0003B0290933C02A0933D02B0933E02BF9103
:103AE000AF919F918F910F900FBE0F901F901895DF
:103AF00082E084BD93E095BD9AEF97BD80936E0000
:103B000008952FB7F89480913B0290913C02A091C8
:103B10003D02B0913E022FBF0895CF92DF92EF9207
:103B2000FF920F931F932FB7F89440913B0250914F
:103B30003C0260913D0270913E022FBF6A017B0101
:103B4000EE24FF248C0130E020E0C016D106E2060E
:103B5000F30650F0481B590BCA011F910F91FF90BB
:103B6000EF90DF90CF90089541505109F3CF7894B2
:103B70001F920F920FB60F9211248F939F93AF93C2
:103B8000BF9380913B0290913C02A0913D02B09185
:103B90003E020196A11DB11D80933B0290933C0211
:103BA000A0933D02B0933E02BF91AF919F918F9140
:103BB0000F900FBE0F901F90189587E797E790938F
:103BC00001088093000888E19AE00FB6F894A89560
:103BD000809360000FBE90936000FFCF0E94911C05
:103BE000811102C00E946B1C0E949C1C8093E90101
:103BF0000E94A91C90E09093400280933F020E9493
:103C0000A01C682F70E090E080E00C946B1A80910B
:103C1000ED0180FF12C06091080185E0689FB0014E
:103C20001124759567957595679560387105A8F5A8
:103C300061157105A1F1862F089581FF09C060917A
:103C4000080185E0689FB001112475956795EDCF57
:103C500082FF07C06091080185E0689FB0011124D0
:103C6000E4CF2091EE012223A9F090910701609109
:103C7000080185E0689FB00111242917B0F6269F3E
:103C8000A001279F500D1124692F70E0CA010E94E6
:103C9000122DCBCF65E070E0CECF8FE7089581E0A5
:103CA00008958091ED0180FF0CC06091060170E0E5
:103CB00075956795759567956115710549F1862F1D
:103CC000089581FF06C06091060170E075956795C3
:103CD000F3CF6091060182FD0BC09091EE01992314
:103CE000A1F06091050180910601961738F0682FC8
:103CF00070E06038710500F38FE70895899FC00177
:103D0000112470E00E94122DF4CF61E070E0D7CF53
:103D100081E00895803F31F40E94071E81958093D1
:103D2000F1010895813F19F40E94071EF8CF823FE8
:103D300031F40E94071E81958093F0010895833F1E
:103D400019F40E94071EF8CF893F29F40E94511EE2
:103D50008093F20108958A3F21F40E94511E8195BB
:103D6000F7CF8B3F31F40E94511E81958093F30170
:103D700008958C3F19F40E94511EF8CF843F31F40E
:103D80008091EF0181608093EF010895853F21F4D8
:103D90008091EF018260F7CF863F21F48091EF019F
:103DA0008460F1CF873F21F48091EF018860EBCFF1
:103DB000883F21F48091EF018061E5CF8D3F31F4A0
:103DC0008091ED0181608093ED0108958E3F21F493
:103DD0008091ED018260F7CF8F3FB9F78091ED01BF
:103DE0008460F1CF803FC1F48091F10187FD109292
:103DF000F1018091F00181110EC08091F1018111DA
:103E00000AC08091F201811106C08091F3018111F5
:103E100002C01092EE010895813F29F48091F101D2
:103E200018162CF3E6CF9091F001823F29F497FF0A
:103E3000E0CF1092F001DDCF833F19F41916CCF3D7
:103E4000D8CF893F39F48091F201181694F6109278
:103E5000F201CFCF8A3F29F48091F20187FFC9CFC9
:103E6000F6CF8B3F39F48091F30187FFC2CF1092D8
:103E7000F301BFCF8C3F29F48091F3011816BCF3F6
:103E8000B8CF843F31F48091EF018E7F8093EF01B2
:103E9000B0CF853F21F48091EF018D7FF7CF863F32
:103EA00021F48091EF018B7FF1CF873F21F4809146
:103EB000EF01877FEBCF883F21F48091EF018F7E68
:103EC000E5CF8D3F31F48091ED018E7F8093ED0140
:103ED00090CF8E3F21F48091ED018D7FF7CF8F3F02
:103EE00009F087CF8091ED018B7FF0CF8FEE91E0CD
:103EF0000E943C110E94811D9093EC018093EB0184
:103F000008951F93CF93DF938091EB019091EC0183
:103F10000E948D1DAC019091EE012091090130E0CD
:103F2000911106C020910A018AE0289F9001112476
:103F30004217530780F08091F0011091F101D09168
:103F4000F201C091F30181110AC0111161C0D111B8
:103F50005FC0C1115DC0DF91CF911F9108959F3F58
:103F600019F09F5F9093EE01181624F40E94071E2B
:103F70008093F0018091F00187FF05C00E94071E29
:103F800081958093F001111624F40E94071E8093FE
:103F9000F1018091F10187FF05C00E94071E819504
:103FA0008093F1014091F001442379F03091F101C7
:103FB000332359F025EB4203A00111245093F00163
:103FC0003203900111243093F1011D1624F40E9454
:103FD000511E8093F2018091F20187FF05C00E947B
:103FE000511E81958093F2011C1624F40E94511EEB
:103FF0008093F3018091F30187FF05C00E94511E59
:1040000081958093F301DF91CF911F910C94761FDE
:104010009F3F09F0A6CFB7CF85E0EFEEF1E0DF01DB
:104020001D928A95E9F71092EE011092ED01089524
:10403000833081F128F4813059F08230D1F0089535
:10404000853009F449C0B8F1863009F456C00895A6
:1040500080910A01482F460F5527551F4F3F5105A4
:1040600024F4680F60930A0108958FEF80930A018A
:10407000089580910901482F460F5527551F4F3F3E
:10408000510524F4680F6093090108958FEF809320
:104090000901089580910801482F460F5527551FA3
:1040A0004F3F510524F4680F6093080108958FEF86
:1040B00080930801089580910701482F460F5527E6
:1040C000551F4F3F510524F4680F60930701089571
:1040D0008FEF80930701089580910601482F460FC6
:1040E0005527551F4F3F510524F4680F6093060173
:1040F00008958FEF80930601089580910501482F60
:10410000460F5527551F4F3F510524F4680F609304
:10411000050108958FEF809305010895833011F113
:1041200028F4813049F0823091F00895853081F192
:1041300020F18630C1F1089580910A01681720F4BA
:10414000861B80930A01089510920A0108958091B8
:104150000901681720F4861B8093090108951092C5
:104160000901089580910801681720F4861B809347
:1041700008010895109208010895809107016817B9
:1041800020F4861B8093070108951092070108957B
:1041900080910601681720F4861B8093060108951C
:1041A00010920601089580910501681720F4861B7E
:1041B0008093050108951092050108950F931F93B0
:1041C00041E050E060E070E08A019B0104C0000F14
:1041D000111F221F331F8A95D2F7C901B8010E940F
:1041E0006B1A1F910F910C947C168732A8F58E31B3
:1041F00008F07BC08E3009F46DC058F4873009F4A4
:104200005AC08B3009F44BC0863009F44AC080E0B4
:104210000895863109F443C068F48031C1F7909164
:10422000E901892F877F93FF88608093E90183FDEF
:104230000FC035C0893199F18B3149F79091E9016F
:10424000892F8D7F91FF82608093E90181FF27C0D4
:104250008091E90181603BC0883309F150F48932D3
:1042600021F0853311F0873291F680E00E94DE2044
:1042700016C08334D1F320F48A3348F28953F6CF41
:10428000883429F60E947C162FEF83ED90E32150AD
:1042900080409040E1F700C000000E94DD1D81E0F9
:1042A00008958091E901817F8E7F8093E90181E00B
:1042B0008093F50108959091E901892F8E7F90FFF9
:1042C00081608093E90180FDEACF897F877F8093B9
:1042D000E901E5CF9091E901892F8B7F92FF8460FE
:1042E0008093E90182FDB4CFDACF8D51BFCF80E05A
:1042F00008950C9477218E518A3030F4E82FF0E045
:10430000E95DFE4F8081089580E00895CF93C82F26
:104310008091F5018130C9F030F08230D9F11092EE
:10432000F50180E010C0E0910301F091040180816B
:104330008232B9F78C2F0E94772181111BC08C2FFC
:104340000E94F5208170CF910895E0910301F091D2
:1043500004018081823271F38C2F0E9479218111B6
:1043600010C0C43181F048F4CB3059F0C03171F045
:1043700080E0E8CF81E090E0E5CFC93221F0C8339A
:10438000B9F781E0DFCF1092F501F2CF82E08093A0
:10439000F501F7CFC93219F188F4C43101F120F4E5
:1043A000C73081F181E0CFCF82EE8C0F8630D0F71D
:1043B0008C2F0E947B218093F401F4CFCE3401F145
:1043C00040F46AE0CB3471F78091F4010E94182028
:1043D000E9CFC13579F061E0C235B1F3E3CF809127
:1043E000F401882319F01092F401DCCF81E080936E
:1043F000F501A9CF61E08091F4010E948E20D2CF17
:104400006AE0F9CF8EE180930A0182E3809309018B
:104410008AE08093080184E18093070188E080931B
:10442000060188E280930501BDCF0E94911C811195
:1044300002C00E946B1C0E94B21C809341028C300F
:1044400020F081708A60809341028091410280FF58
:1044500003C086950C94900880E0FCCF80914102C7
:10446000982F9695953030F49F5F990F8170892B26
:1044700080934102809141028160809341020E94B9
:10448000B61C8091410286950C949008809141025F
:10449000982F9E7F79F08250809341028E7F91E029
:1044A00009F490E08091410290FB80F980934102F1
:1044B0000E94B61C8091410286950C9490089091C0
:1044C0004102892F8E7F90FF81608093410281306D
:1044D00019F483E080934102809141020E94B61C4E
:1044E0008091410280FF03C086950C94900880E083
:1044F000FCCF90914102892F86958F5F8F779170C5
:104500008630B8F4880F892B809341028091410254
:104510008E7F91E009F490E08091410290FB80F958
:10452000809341020E94B61C8091410286950C94B2
:10453000900890934102EACF863008F085E0982FEA
:10454000990F809141028170892B809341028E7F67
:1045500091E009F490E08091410290FB80F9809312
:1045600041020E94B61C8091410286950C949008ED
:1045700080914102869508958091FE0108950F93E0
:104580001F93CF93DF9300D01F92CDB7DEB78C017E
:104590000E940625823011F0843019F583E089836A
:1045A0001B830A838093E9008FEF9091E80081508C
:1045B00095FD06C095ED9A95F1F700008111F5CFB4
:1045C0008091E80085FF0DC050E040E063E070E0BE
:1045D000CE0101960E9423258091E8008E7780937A
:1045E000E8000F900F900F90DF91CF911F910F91E6
:1045F0000895CF93DF9300D01F92CDB7DEB72091FF
:104600004602243031F522E02983805891099B83AA
:104610008A8383E08093E9008FEF9091E8008150D6
:1046200095FD06C095ED9A95F1F700008111F5CF43
:104630008091E80085FF0DC050E040E063E070E04D
:10464000CE0101960E9423258091E8008E77809309
:10465000E8000F900F900F90DF91CF910895CF93C6
:10466000DF93EC010E940625823011F08430F9F4CA
:1046700082E08093E9008FEF9091E800815095FDF2
:1046800006C095ED9A95F1F700008111F5CF809164
:10469000E80085FF0CC050E040E065E070E0CE012E
:1046A0000E9423258091E8008E778093E800DF91B7
:1046B000CF910895CF93DF93EC010E9406258230BD
:1046C00011F0843039F581E08093E9008FEF90910B
:1046D000E800815095FD06C095ED9A95F1F7000030
:1046E0008111F5CF8091E80085FF14C050E040E0D3
:1046F00068E070E0CE010E9423258091E8008E776B
:104700008093E80088E0FE01A6EFB1E001900D92F1
:104710008A95E1F7DF91CF9108958091450281114B
:1047200009C00E94B3260E9410278091E200846095
:104730008093E20008951092450208950895089527
:104740000C94451D42E061EC81E00E94312642E07C
:1047500061EC82E00E94312642E061EC83E00C943F
:10476000312680914802833009F452C030F4813000
:1047700059F1823009F48EC008958A3009F47AC064
:104780008B3009F460C0893009F041C08091470244
:104790008132E9F580914B0290914C02892BB9F559
:1047A0008091E800877F8093E8008091E80082FF95
:1047B0002AC08091F1008093FE018091E8008B7700
:1047C0008093E8000C94652680914702813AF9F4C1
:1047D0008091E800877F8093E80080914B02909160
:1047E0004C02892B61F468E086EF91E070E00E9452
:1047F00072258091E8008B778093E800089560E04F
:1048000090E080E0F3CF809146028111CECF0895F1
:1048100080914702813AD9F780914B0290914C02E6
:10482000892BA9F78091E800877F8093E800809129
:10483000E80080FFFCCF809115018093F10080910A
:10484000E8008E77BDCF80914702813201F78091D9
:104850004B0290914C02892BD1F68091E800877F22
:104860008093E8000E94652680914902809315019B
:104870000C947C1680914702813249F68091E800C1
:10488000877F8093E8000E94652680914A0280938A
:10489000FF01089580914702813A09F0B8CF8091D5
:1048A000E800877F8093E8008091E80080FFFCCFDC
:1048B0008091FF01C2CF84B7877F84BF0FB6F89481
:1048C000A8958091600088618093600010926000DC
:1048D0000FBE80E880936100109261000E94731106
:1048E0000E94B3260E9410278091E200846080938A
:1048F000E20078940E9499290E9477118BE091E060
:104900000E94201180914602853029F00E94811179
:104910000E94B410F7CF0E94FE1C809144028823AD
:1049200089F30E94301D882369F30E940D25EACF88
:104930000C949A24292F33272330310579F158F428
:1049400021303105F1F02230310519F190E080E09D
:1049500030E020E01AC021323105C9F122323105A0
:10496000A9F76330710590F7FB01EE0FFF1FEC5CB8
:10497000FE4F208131816F5C7E4FFB01808190E092
:1049800004C082E190E026EC34E0FA013183208318
:10499000089584E590E022E734E0F7CF992781304D
:1049A000910579F040F08230910571F0039771F62E
:1049B000ECE3F4E002C0EEE6F4E0849190E09F01C5
:1049C000E4CFECE5F4E0F9CFE2E4F4E0F6CF6330D5
:1049D000710508F0BBCF660F771FFB01E65CFE4F49
:1049E0002081318189E090E0D0CF0895CF93C82F06
:1049F0000E94F524C0930002CF9108958091460251
:104A0000843011F081E0089582E0089580910002E1
:104A1000811102C00C94FE24089580E189BD82E1D9
:104A200089BD09B400FEFDCF8091D8008F7D8093B1
:104A3000D8008091E00082608093E0008091E000E7
:104A400081FDFCCF0895AF92BF92CF92DF92FF928B
:104A50000F931F93CF93DF936C01EB018A010E94A8
:104A60008426F82E811123C00115110539F0F801B3
:104A700080819181C81BD90BC80ED91EB12CA12CE5
:104A80002097A9F08091E80085FD22C08091E80080
:104A90008E778093E80001151105A1F0F80180815F
:104AA0009181A80EB91EB182A08285E0F82E8F2DCB
:104AB000DF91CF911F910F91FF90DF90CF90BF902A
:104AC000AF9008950E9484268823D1F2F82EEFCF6C
:104AD000F60181916F018093F1002197FFEFAF1AEA
:104AE000BF0ACECFFC0180914D0290914E028617F5
:104AF0009707A0F06115710529F49091E8009E7761
:104B00009093E80090E06115710551F4911108C08F
:104B10008091E80082FF35C080E00895BC01F2CFAB
:104B2000809146028823C9F18530C9F18091E8005F
:104B300083FD31C08091E80082FDEACF8091E800DA
:104B400080FFE1CF2091F3008091F200322F282FD7
:104B50006115710519F02830310558F091E02830C1
:104B6000310509F090E02091E8002E772093E800CD
:104B7000CACF81918093F100615071092F5F3F4F3F
:104B8000E7CF80914602882341F0853041F0809143
:104B9000E80083FFBDCF81E0089582E0089583E0BF
:104BA0000895FC0180914D0290914E02861797075F
:104BB000A0F06115710529F48091E8008E7780934B
:104BC000E80090E06115710551F4911108C08091E1
:104BD000E80082FF36C080E00895BC01F2CF8091EA
:104BE00046028823D1F18530D1F18091E80083FD20
:104BF00032C08091E80082FDEACF8091E80080FF1A
:104C0000E1CF2091F3008091F200322F282F61151F
:104C1000710519F02830310558F091E02830310540
:104C200009F090E08091E8008E778093E800CACF89
:104C300084918093F1003196615071092F5F3F4F4D
:104C4000E6CF80914602882341F0853041F0809183
:104C5000E80083FFBCCF81E0089582E0089583E0FF
:104C60000895982F973028F08F708093E90081E0A5
:104C700008959093E900242F762F50E0981731F093
:104C80007091EC002091ED005091F00021FD02C0E8
:104C90009F5FE8CF3091EB003E7F3093EB00309187
:104CA000ED003D7F3093ED003091EB0031603093AB
:104CB000EB007093EC002093ED005093F0002091F6
:104CC000EE0027FDE5CF80E008958091470287FF41
:104CD00013C08091E80082FF06C08091E8008B77C6
:104CE0008093E80004C0809146028111F2CF0895BC
:104CF000809146028823D9F38091E80080FFF8CFA5
:104D00008091E8008E77ECCF2091E4003091E500AF
:104D100085E69091EC0090FF06C09091E80090FF2E
:104D200006C080E008959091E80092FDFACF90913E
:104D30004602992391F0953091F09091EB0095FD0A
:104D400010C04091E4005091E5002417350709F3A5
:104D500081509A01F1F684E0089582E0089583E09D
:104D6000089581E008950E9421270E942927E0EEFE
:104D7000F0E0808181608083E8EDF0E080818F77D2
:104D8000808319BCA7EDB0E08C918E7F8C938081DD
:104D90008F7E80831092450208950F931F93CF93C7
:104DA000DF930E9421270E942927C8EDD0E0888147
:104DB0008F77888388818068888388818F7D8883C6
:104DC00019BC1092460210924202109244021092B4
:104DD000430200EE10E0F80180818B7F80838881A0
:104DE0008160888342E060E080E00E943126E1EE4D
:104DF000F0E080818E7F8083E2EEF0E08081816050
:104E00008083808188608083F80180818E7F8083A9
:104E1000888180618883DF91CF911F910F910895E0
:104E2000E8EDF0E080818F7E8083E7EDF0E0808127
:104E30008160808384E082BF81E0809345020C948E
:104E4000CD26E8EDF0E080818E7F80831092E20035
:104E500008951092DA001092E10008951F920F92C7
:104E60000FB60F9211242F933F934F935F936F933D
:104E70007F938F939F93AF93BF93EF93FF93809113
:104E8000E10082FF0BC08091E20082FF07C08091A9
:104E9000E1008B7F8093E1000E9498298091DA00E5
:104EA00080FF19C08091D80080FF15C08091DA0082
:104EB0008E7F8093DA008091D90080FF94C080E1DA
:104EC00089BD82E189BD09B400FEFDCF81E08093F8
:104ED00046020E948D238091E10080FF19C08091DD
:104EE000E20080FF15C08091E2008E7F8093E20097
:104EF0008091E20080618093E2008091D80080621E
:104F00008093D80019BC85E0809346020E949F23BD
:104F10008091E10084FF29C08091E20084FF25C0D8
:104F200080E189BD82E189BD09B400FEFDCF809199
:104F3000D8008F7D8093D8008091E1008F7E809390
:104F4000E1008091E2008F7E8093E2008091E20098
:104F500081608093E20080914202882309F449C075
:104F600084E0809346020E94A0238091E10083FFA9
:104F700029C08091E20083FF25C08091E100877FF6
:104F80008093E10082E08093460210924202809179
:104F9000E1008E7F8093E1008091E2008E7F80931C
:104FA000E2008091E20080618093E20042E060E0F4
:104FB00080E00E9431268091F00088608093F000AC
:104FC0000E949E23FF91EF91BF91AF919F918F918E
:104FD0007F916F915F914F913F912F910F900FBEF5
:104FE0000F901F90189519BC109246020E949B23A7
:104FF00072CF8091E30087FD02C081E0B2CF83E0F1
:10500000B0CF1F920F920FB60F9211242F933F93A0
:105010004F935F936F937F938F939F93AF93BF93C0
:10502000CF93EF93FF93C091E900CF708091EC0094
:105030001092E9008091F000877F8093F0007894CF
:105040000E943D281092E9008091F00088608093D2
:10505000F000C093E900FF91EF91CF91BF91AF9124
:105060009F918F917F916F915F914F913F912F9180
:105070000F900FBE0F901F9018951F93CF93DF9343
:10508000CDB7DEB7AA970FB6F894DEBF0FBECDBF7F
:10509000E7E4F2E08091F100819322E0EF34F2073F
:1050A000C9F70E94B1238091E80083FF44C080913A
:1050B0004702909148029A3008F03DC0E92FF0E095
:1050C000EC59F74D0C94262D6E2894289B28942893
:1050D0009B28F22814299B286B297829803889F08D
:1050E000823849F580914B028F70873020F580938C
:1050F000E9008091EB0085FB882780F91092E90098
:1051000006C0809143029091440291118260909177
:10511000E800977F9093E8008093F1001092F100EF
:105120008091E8008E772DC0282F2D7F21F48823D1
:10513000D1F0823059F18091E80083FF0AC080915C
:10514000E800877F8093E8008091EB008062809385
:10515000EB00AA960FB6F894DEBF0FBECDBFDF916D
:10516000CF911F91089580914902813021F79330AA
:1051700009F080E0809344021092E9008091E800F9
:10518000877F8093E8000E946526D5CF80914902F1
:105190008111F2CF80914B028F702FEF280F2630B4
:1051A00050F68093E9002091EB0020FFE5CF93308B
:1051B00031F48091EB0080628093EB00DDCF909121
:1051C000EB0090619093EB0021E030E001C0220FF2
:1051D0008A95EAF72093EA001092EA008091EB00AA
:1051E0008860EACF8111A7CF109149021F77809183
:1051F000E3008078812B8093E3008091E800877F33
:105200008093E8000E9465268091E80080FFFCCF33
:105210008091E30080688093E30083E0111101C076
:1052200082E08093460287CF8058823008F083CF97
:105230008091490290914A028C3D23E09207A1F5AA
:1052400083E08A838AE289834FB7F894DE0113965C
:1052500020E03EE051E2E32FF0E050935700E4916C
:1052600020FF03C0E295EF703F5FEF708E2F90E05C
:10527000EA30C0F0C7968D939D932F5F243159F784
:105280004FBF8091E800877F8093E8006AE270E07A
:10529000CE0101960E9472258091E8008B77809361
:1052A000E80049CFC096E7CF60914B0270914C0265
:1052B000AE014F5F5F4F0E949824BC01892B09F417
:1052C0003ACF9091E800977F9093E80089819A8186
:1052D0000E94D125E1CF803809F02DCF8091E800E0
:1052E000877F8093E800809142028093F10018CF7D
:1052F000811121CF90914902923008F01CCF80910A
:10530000E800877F8093E800909342020E94652620
:1053100080914202882331F084E0809346020E940B
:10532000A22309CF8091E30087FDF6CF81E0F5CF7E
:105330000895CF9380914602882399F0C091E900A7
:10534000CF708091EC0080FD0EC080E0C82B1092E1
:10535000E9008091E80083FD0E943D28CF70C09352
:10536000E900CF91089580E8F1CF5058BB27AA27D4
:105370000E94CD290C94782B0E946A2B38F00E9451
:10538000712B20F039F49F3F19F426F40C94402B34
:105390000EF4E095E7FB0C943A2BE92F0E94892B41
:1053A00058F3BA17620773078407950720F079F45A
:1053B000A6F50C94AB2B0EF4E0950B2EBA2FA02D76
:1053C0000B01B90190010C01CA01A0011124FF27B2
:1053D000591B99F0593F50F4503E68F11A16F040AD
:1053E000A22F232F342F4427585FF3CF46953795AC
:1053F0002795A795F0405395C9F77EF41F16BA0B71
:10540000620B730B840BBAF09150A1F0FF0FBB1F1E
:10541000661F771F881FC2F70EC0BA0F621F731F67
:10542000841F48F4879577956795B795F7959E3FC4
:1054300008F0B0CF9395880F08F09927EE0F979555
:10544000879508950E94362A0C94782B0E94712B20
:1054500058F00E946A2B40F029F45F3F29F00C9429
:105460003A2B51110C94AC2B0C94402B0E94892B9D
:1054700068F39923B1F3552391F3951B550BBB2783
:10548000AA2762177307840738F09F5F5F4F220FC8
:10549000331F441FAA1FA9F335D00E2E3AF0E0E8BF
:1054A00032D091505040E695001CCAF72BD0FE2F09
:1054B00029D0660F771F881FBB1F2617370748079D
:1054C000AB07B0E809F0BB0B802DBF01FF27935855
:1054D0005F4F3AF09E3F510578F00C943A2B0C94B4
:1054E000AC2B5F3FE4F3983ED4F3869577956795B0
:1054F000B795F7959F5FC9F7880F911D969587958A
:1055000097F90895E1E0660F771F881FBB1F6217A8
:1055100073078407BA0720F0621B730B840BBA0B66
:10552000EE1F88F7E095089529F416F00C943A2BB5
:105530000C94AB2B0C94402B0E94912BA8F3963823
:10554000A0F707F80F92E8942BE33AEA48EB5FE7FD
:105550000E943E2C0F920F920F924DB75EB70F92A2
:105560000E94F42BECEAF0E00E94432B4F915F91F4
:10557000EF91FF91E595EE1FFF1F49F0FE57E068A0
:105580004427EE0F441FFA95E1F74195550B0E9411
:10559000BE2B0F9007FE0C94B22B08950E94912B06
:1055A00088F09F5798F0B92F9927B751B0F0E1F0E4
:1055B000660F771F881F991F1AF0BA95C9F714C094
:1055C000B13091F00E94AB2BB1E008950C94AB2B5D
:1055D000672F782F8827B85F39F0B93FCCF38695CD
:1055E00077956795B395D9F73EF49095809570952A
:1055F00061957F4F8F4F9F4F0895E89409C097FBA7
:105600003EF490958095709561957F4F8F4F9F4F99
:105610009923A9F0F92F96E9BB279395F6958795DD
:1056200077956795B795F111F8CFFAF4BB0F11F4A0
:1056300060FF1BC06F5F7F4F8F4F9F4F16C0882347
:1056400011F096E911C0772321F09EE8872F762F7D
:1056500005C0662371F096E8862F70E060E02AF0BE
:105660009A95660F771F881FDAF7880F96958795AA
:1056700097F9089597F99F6780E870E060E00895D2
:105680009FEF80EC0895DF93CF931F930F93FF92CA
:10569000EF92DF927B018C01689406C0DA2EEF0155
:1056A0000E943B2CFE01E894A591259135914591EE
:1056B0005591A6F3EF010E94CD29FE019701A801A3
:1056C000DA9469F7DF90EF90FF900F911F91CF91DF
:1056D000DF91089500240A94161617061806090685
:1056E000089500240A941216130614060506089558
:1056F000092E0394000C11F4882352F0BB0F40F4E0
:10570000BF2B11F460FF04C06F5F7F4F8F4F9F4F1F
:10571000089557FD9058440F551F59F05F3F71F0A1
:105720004795880F97FB991F61F09F3F79F0879508
:105730000895121613061406551FF2CF4695F1DF91
:1057400008C0161617061806991FF1CF8695710521
:10575000610508940895E894BB2766277727CB0155
:1057600097F908959B01AC0160E070E080E89FE349
:105770000C94222A0C943A2B0C949D2C0E94912B71
:10578000D8F39923C9F3940F511DA3F391505040BE
:1057900094F059F0882332F0660F771F881F9150DC
:1057A0005040C1F79E3F51052CF7880F911D9695EB
:1057B000879597F908955F3FACF0983E9CF0BB2722
:1057C000869577956795B79508F4B1609395C1F77D
:1057D000BB0F58F711F460FFE8CF6F5F7F4F8F4F1B
:1057E0009F4FE3CF0C94AC2BFA01DC01AA0FBB1F37
:1057F0009B01AC01BF5728F4222733274427507858
:1058000020C0B75190F4AB2F0024469537952795CB
:10581000011CA395D2F3002071F0220F331F441F07
:10582000B395DAF30ED00C94B52961307105A0E878
:105830008A07B94630F49B01AC0166277727882791
:105840009078309621F020833183428353830895EA
:105850000E943B2C0C94782B0E946A2B38F00E94FB
:10586000712B20F0952311F00C943A2B0C94402BC3
:1058700011240C94AC2B0E94892B70F3959FC1F3DB
:10588000950F50E0551F629FF001729FBB27F00DEE
:10589000B11D639FAA27F00DB11DAA1F649F662743
:1058A000B00DA11D661F829F2227B00DA11D621F92
:1058B000739FB00DA11D621F839FA00D611D221F4C
:1058C000749F3327A00D611D231F849F600D211D30
:1058D000822F762F6A2F11249F5750409AF0F1F0B3
:1058E00088234AF0EE0FFF1FBB1F661F771F881F1C
:1058F00091505040A9F79E3F510580F00C943A2BEF
:105900000C94AC2B5F3FE4F3983ED4F386957795E7
:105910006795B795F795E7959F5FC1F7FE2B880FC1
:10592000911D9695879597F908959F930E94AD2CA8
:105930000F9007FCEE5F0C94D62C9F3F31F09150F6
:1059400020F4879577956795B795880F911D969563
:10595000879597F908950C94402B0E94912BD8F3CA
:10596000E894E0E0BB279F57F0F02AED3FE049ECD8
:1059700006C0EE0FBB0F661F771F881F28F0B23AD4
:1059800062077307840728F0B25A620B730B840B0B
:10599000E3959A9572F7803830F49A95BB0F661F9D
:1059A000771F881FD2F790480C949F2CEF93E0FF4D
:1059B00007C0A2EA2AED3FE049EC5FEB0E94CD2947
:1059C0000E94782B0F90039401FC9058E4EDF0E0D6
:1059D0000C94EA2C9F938F937F936F93FF93EF9395
:1059E0009B01AC010E94282CEF91FF910E94432B58
:1059F0002F913F914F915F910C94282CAA1BBB1BB8
:105A000051E107C0AA1FBB1FA617B70710F0A61BBE
:105A1000B70B881F991F5A95A9F780959095BC01DF
:105A2000CD01089597FB072E16F4009407D077FD5B
:105A300009D00E94FE2C07FC05D03EF4909581957C
:105A40009F4F0895709561957F4F0895EE0FFF1F4A
:105A50000590F491E02D0994F999FECF92BD81BD96
:105A6000F89A992780B50895A6E1B0E044E050E0A7
:105A70000C94662DA8E1B0E042E050E00C94662D55
:105A8000262FF999FECF92BD81BDF89A019700B4F7
:105A9000021639F01FBA20BD0FB6F894FA9AF99A97
:105AA0000FBE08950396272F0E94412D0E94402D7E
:105AB000252F0E94412D242F0C94412D0196272F34
:105AC0000E94412D0C94402DDC01CB01FC01F99981
:105AD000FECF06C0F2BDE1BDF89A319600B40D923A
