:100000000C94D7020C9445050C941E030C941E030B
:100010000C941E030C941E030C941E030C941E03DC
:100020000C941E030C941E030C94FB270C94CD28F7
:100030000C94EA1D0C941E030C941E030C941E03D6
:100040000C941E030C941E030C941E030C941E03AC
:100050000C941E030C94521E0C941E030C941E034D
:100060000C941E030C941E030C941E030C941E038C
:100070000C941E030C941E030C941E030C941E037C
:100080000C941E030C941E030C941E030C941E036C
:100090000C941E030C941E030C941E030C941E035C
:1000A0000C941E030C941E030C941E03CA06CC066B
:1000B000D706CE06D006D206D406D606D906DB066B
:1000C000DD06E806DF06E106E306E506E706EA06E2
:1000D0009B149B14D514D51414153415CD16CD16B8
:1000E0007615CD16261626169A16A216CD16C71602
:1000F00033163316331633163316331633163316B8
:1001000033163316331633163316331633163316A7
:10011000451653165A1661166B166017601772173C
:1001200072176917721772177217601760176E17B8
:10013000721772176E173A296129532A6129532AB7
:10014000AD29D029532A262A352A07634236B79B80
:10015000D8A71A39685618AEBAAB558C1D3CB7CC27
:100160005763BD6DEDFD753EF6177231BF0000009F
:10017000803F05A84CCDB2D44EB93836A9020C50F8
:10018000B9918688083CA6AAAA2ABE000000803F32
:10019000155C1E001F0020002100220000002B0023
:1001A00014001A000800150017000000394204006E
:1001B0001600070009000A000000E1001D001B00F6
:1001C0000600190005000000E000E300E200BA5C50
:1001D00002512C004C002A00270026002500240094
:1001E000230000003100130012000C0018001C0056
:1001F0000000340033000F000E000D000B00000063
:1002000028003800370036001000110000004E00B2
:100210004B002E002D0002512C0028000000000091
:1002200000000000000000000000000000000000CE
:1002300000000000000000000000000000000000BE
:1002400000000000000000000000000000000000AE
:10025000000000000000000000000000000000009E
:10026000000000000000000000000000000000008E
:10027000000000000000000000000000000000007E
:10028000000000000000000000000000000000006E
:10029000000000000000000000000000000000005E
:1002A00000000000000000003A003B003C003D0060
:1002B0003E003F0000000100BF5CC15CC05C005C10
:1002C0002F0000000100BE5CC25CBD5C01000100AB
:1002D0000000E10001000100010001000100000038
:1002E000E000E300E200BB5C01000100010045000A
:1002F0004400430042004100400000004A00490021
:100300004E0052004B00300000004D004C004F00EA
:100310005100500001000000AB00AC00AE00010035
:100320000100145C0000AA00A900A800010001005F
:10033000010001006801F000B40078005A007F3F1E
:100340001F643214643214783C1E1E140A05000027
:10035000000000010101010101010101020202028C
:10036000020202020203030303030303030404045F
:100370000404040505050505060606060607070725
:1003800007080808080909090A0A0A0A0B0B0B0CD6
:100390000C0C0D0D0D0E0E0F0F0F10101111111270
:1003A0001213131414151516161717181819191AED
:1003B0001A1B1C1C1D1D1E1F1F202021222223244E
:1003C000252526272728292A2B2B2C2D2E2F2F3089
:1003D000313233343536363738393A3B3C3D3E3F9F
:1003E0004041424344464748494A4B4C4D4F505187
:1003F0005253555657585A5B5C5E5F606263646641
:1004000067696A6C6D6E707173747678797B7C7EC7
:100410008081838486888A8B8D8F91929496989A16
:100420009B9D9FA1A3A5A7A9ABADAFB1B3B5B7B92C
:10043000BBBDBFC1C4C6C8CACCCFD1D3D6D8DADC05
:10044000DFE1E4E6E8EBEDF0F2F5F7FAFCFF040398
:10045000300000001803500072006F006A00650051
:100460006300740020005A0065006E000000100355
:100470004C00650067006F006E007500740000009E
:100480000403090409025400030100A0FA0904004E
:1004900000010301010009211101000122400007B0
:1004A00005810308000A0904010001030102000993
:1004B0002111010001224D000705820308000A09ED
:1004C000040200010300000009211101000122368D
:1004D000000705830308000A12011001000000084C
:1004E000EBCE561200020102030105010980A101B1
:1004F00085021601002603001A81002A8300751068
:1005000095018100C0050C0901A1018503160100B8
:10051000269C021A01002A9C02751095018100C0D8
:1005200005010902A1010901A10005091901290517
:10053000150025019505750181029501750381015D
:100540000501093009311581257F9502750881065D
:1005500009381581257F950175088106050C0A3833
:10056000021581257F950175088106C0C005010926
:1005700006A101050719E029E71500250195087571
:100580000181029501750881010508190129059568
:10059000057501910295017503910105071900295F
:1005A000FF150026FF00950675088100C000112484
:1005B0001FBECFEFDAE0DEBFCDBF04B603FE27C01B
:1005C00080914F0290915002A0915102B09152023D
:1005D0008730904BA740B04BD1F410924F0210924D
:1005E0005002109251021092520214BE84B7877FBB
:1005F00084BF0FB6F894A8958091600088618093BD
:100600006000109260000FBEE0E0F8E3099511E091
:10061000A0E0B1E0E0E9FCE502C005900D92A03455
:10062000B107D9F722E0A0E4B1E001C01D92AF34D8
:10063000B207E1F70E9420250C94462E0C9400008E
:100640008091E901836088608093E901ADE1B1E0C8
:1006500041E050E025E02A0F8D91E82FE295EF7000
:10066000F0E031A18F70BA0102C0660F771F8A9542
:10067000E2F7CB01962F9095932391A392A1892B1A
:1006800082A32A13E9CFA6E1B1E041E050E027E0E0
:100690002A0F8D91E82FE295EF70F0E031A18F7075
:1006A000BA0102C0660F771F8A95E2F7CB01962F39
:1006B0009095932391A392A1892B82A32A13E9CF2A
:1006C000559A209AABE4B1E0E0E4F1E08AE08E0FC5
:1006D00011921D928E13FCCF08952F923F924F924C
:1006E0005F926F927F928F929F92AF92BF92CF92C2
:1006F000DF92EF92FF920F931F93CF93DF9300D07F
:1007000000D0CDB7DEB780910001811104C035E083
:10071000C32ED12C02C0C12CD12C9601255B3E4F9B
:1007200079013C832B830DE111E0AA24A394B12C21
:100730008824839494E0992E25E0722E700E6B81AC
:100740007C81DB015C901C92F80181918F01E82F84
:10075000E295EF70F0E021A18F70A50102C0440F77
:10076000551F8A95E2F7CA01242B21A322A1642EEA
:100770006094262122A350EA5A95F1F7A6E1B1E050
:10078000BA83A98320E030E0A981BA813D90BA8381
:10079000A983432D42954F7050E0DA0190962C903A
:1007A000AB81BC814C90432D4F70D50102C0AA0F84
:1007B000BB1F4A95E2F7AD01422139F44A2D022EC2
:1007C00001C0440F0A94EAF701C040E04429AB811C
:1007D000BC814C932F5F3F4F27303105A9F691A183
:1007E000692261A292A1892B82A31196BC83AB835B
:1007F000FB018081581659F0809255010E941C1E01
:1008000090935701809356018BB189258BB9701253
:1008100096CF809155018823D1F080915601909117
:1008200057010E94281E069790F080E090E0FC019E
:10083000EC0DFD1DE05CFE4FD701A80FB91F2C91F8
:10084000208301968530910591F71092550181E042
:100850000F900F900F900F90DF91CF911F910F91FC
:10086000FF90EF90DF90CF90BF90AF909F908F90D0
:100870007F906F905F904F903F902F9008950F93CF
:100880001F93CF93DF9380910001811103C000E09B
:1008900010E002C005E010E00E94B805EC01892BD1
:1008A000B1F420E030E0F901E65AFE4F8081F90111
:1008B000E00FF11FE05CFE4F80832F5F3F4F25303C
:1008C000310589F70E9477238093590102C0C1E066
:1008D000D0E0CE01DF91CF911F910F910895CF937A
:1008E0000E946D03C82F0E943F04892BF9F05D9888
:1008F00090914A019F5F90934A019630D0F0809189
:100900000001811103C040E050E002C045E050E02A
:1009100020E030E0F901E40FF51FE05CFE4F1082AB
:100920002F5F3F4F25303105A9F703C05D9A109224
:100930004A018C2FCF9108950E946D038091000190
:10094000811103C025E030E002C020E030E080E00B
:1009500090E0FC01E20FF31FE05CFE4F4081FC01E0
:10096000E65AFE4F408301968530910591F78091BC
:1009700059010C94CC08E82FF0E0E05CFE4F808138
:1009800008950895E8EDF0E08081806180838AE138
:100990008A95F1F700C08091D900817008950E9476
:1009A000C20491E08927809300010E94C204882339
:1009B00019F00E94380504C00E94131E0E943C05D5
:1009C000789408950E9420030E949C04FDCF0E9409
:1009D000CF040E94C204811102C00E94E204089563
:1009E000509A08955098589A0895589A08950E94D8
:1009F000F004589880E88A95F1F70C94F5040E9469
:100A0000F204489BFECF80E88A95F1F708950E9492
:100A1000F20498E080E029B12170880F822B20E851
:100A20002A95F1F725E02A95F1F70000915099F702
:100A300008950F931F93CF93082F0E94F004C8E0EE
:100A400010E0C15088F0C8010C2E02C09595879522
:100A50000A94E2F780FF03C00E94F50401C0589891
:100A600080E88A95F1F7EDCFCF911F910F9108950E
:100A70000E94F0040C94F5040E94F204E89AE9E65E
:100A8000F0E080818C7F808308951F920F920FB6D3
:100A90000F921124CF92DF92EF92FF921F932F9328
:100AA0003F934F935F936F937F938F939F93AF93F6
:100AB000BF93EF93FF93CF93DF931F92CDB7DEB732
:100AC0000E94F704C12CD12C10E0C601865A9E4F1B
:100AD0007C01FC0180810E9419050E94F704F70146
:100AE0008081180FFFEFCF1ADF0A85E0C816D10406
:100AF00061F7812F0E9419050E94F70490E89A95EA
:100B0000F1F7E0E4EA95F1F70E94070580935901B7
:100B10000E94F704109159010E94070589830E94E1
:100B2000F7040E94F2048981181721F0809158017E
:100B3000816003C0809158018E7F809358010F908F
:100B4000DF91CF91FF91EF91BF91AF919F918F91E5
:100B50007F916F915F914F913F912F911F91FF90E6
:100B6000EF90DF90CF900F900FBE0F901F901895D1
:100B7000CF92DF92EF92FF921F93CF93DF931F925A
:100B8000CDB7DEB7F8940E94F004589825E02A9576
:100B9000F1F700000E94F2040E94F50430E83A9553
:100BA000F1F7489934C00E94FF04C12CD12C10E009
:100BB0000E940705F601E65AFE4F7F0180830E94DE
:100BC000FF04F7018081180FFFEFCF1ADF0A25E03D
:100BD000C216D10469F70E94070589830E94FF04A9
:100BE0008981181314C0809159010E9419050E942F
:100BF000FF04809159010E9419050E94FF040E9480
:100C0000F0040E94F504789480E090E003C07894AA
:100C100081E090E00F90DF91CF911F91FF90EF90D6
:100C2000DF90CF900895CF93DF93EC010E94471D92
:100C3000BE0180E090E0DF91CF910C94241B823DB7
:100C40009C4551F4FB018281882339F081E090E0DA
:100C50000E94130680E0089581E0089581E00895E0
:100C60000C941F060E944E172FEF84E39CE0215046
:100C700080409040E1F700C0000087E797E790933D
:100C80000108809300080C94781E0F931F93CF9354
:100C9000DF938C01FC01C081D181CE010E94231C15
:100CA000BE010E94D608EC01B8010E9430068823DC
:100CB00009F46CC2B801CE010E94750B882309F4B7
:100CC00065C2C23CFCE5DF0741F4F801828188235C
:100CD00009F45CC20E940C0E59C2C33C8CE5D807D3
:100CE00008F014C1CB3B9CE5D90761F4F80182817F
:100CF000882309F44BC20E94D51C8272E1F00E9445
:100D0000AB0E44C2CC3BECE5DE07C0F0CE3B9CE52D
:100D1000D90709F4CCC008F0DEC0CC3BFCE5DF0706
:100D200009F0CDC0F8018281882309F42FC20E9406
:100D3000D51C827221F30E94A10E28C2C531FCE5A8
:100D4000DF0708F07DC0C2308CE5D80708F452C038
:100D5000F8018281882309F459C00E94341D811151
:100D600002C00E940E1D0E944C1D90E09093400214
:100D700080933F02FE01E350FC45E231F10530F47F
:100D8000EA5AFF4F80913F020C94F82D80913F0268
:100D9000816027C0826025C0846023C0806121C03B
:100DA00080621FC080641DC080681BC08460886032
:100DB00018C08E7F16C08D7F14C08B7F12C08F7EAF
:100DC00010C08F7D0EC08F7B0CC08F770AC08B7FC9
:100DD000877F07C087FB222720F991E0922790FBAD
:100DE00087F980933F0280913F020E94501D0E942C
:100DF0004E17CCC1C1159CE5D90779F0C130DC454F
:100E0000A1F081E08093640180936501C801DF91C6
:100E1000CF911F910F910C942E06F80182818823A7
:100E200009F4B4C10E943206B1C1F801828188235D
:100E300009F4ACC18091E90181608093E901A6C108
:100E4000C531FCE5DF0739F50E94D51C282FF801D4
:100E500082814091030150910401882379F02A7A1C
:100E600091E009F490E090935F01911102C069E272
:100E700001C065E3CA010E94911D0AC080915F0113
:100E8000811102C069E201C065E3CA010E94931D9D
:100E90000E94A21C7BC1CA3BDC4509F0B2CFF8011D
:100EA0008281882309F472C10E94E80E6FC1F801A3
:100EB0008281882309F46AC10E949D0D67C1CD3BE0
:100EC000DC4509F09ECFF8018281882309F45EC1D8
:100ED0000E94850D5BC1F8018281C03CFCE5DF0703
:100EE00031F4882309F452C10E94D70D4FC1C13C8F
:100EF000DC4530F4882309F449C10E94BC0D46C189
:100F0000882309F443C10E94F10D40C1C93CECE5BE
:100F1000DE0749F4F8018281882309F437C188E1AA
:100F20000E94260E33C1CA3CFCE5DF0708F088C0EA
:100F3000C53C8CE5D807B1F4F8018281882309F417
:100F400025C10E94550C663071058105910540F060
:100F50000E94550C683071058105910508F4EBCEAF
:100F600086E0DECFC63C9CE5D90728F5C33CECE51E
:100F7000DE0739F4F8018281882309F407C181E092
:100F8000CFCFC43CDC4509F03CCFF80182818823F7
:100F900009F4FCC00E94550C623071058105910571
:100FA00040F00E94550C653071058105910508F4EB
:100FB000C2CE82E0B5CFF8018281C73CFCE5DF07F5
:100FC000A1F4882309F4E2C00E94550C6F3071052A
:100FD0008105910540F00E94550C64317105810531
:100FE000910508F4A8CE8FE09BCFC83CDC45A0F467
:100FF000882309F4CBC00E94550C69307105810526
:10100000910540F00E94550C6E30710581059105E7
:1010100008F491CE89E084CF882309F4B7C00E94F8
:10102000550C653171058105910540F00E94550C04
:10103000673171058105910508F47DCE85E170CF9A
:10104000CC3CECE5DE0739F5F8018281882361F0BC
:10105000109265010E941C1E9093630180936201AF
:1010600080E20E944E1492C08091650181110FC0F0
:1010700080916201909163010E94281E843691053F
:1010800030F487E20E94E01287E20E94EF1380E2D0
:101090000E9455147BC0CD3CFCE5DF0708F041C041
:1010A000CA3C8CE5D807B1F4F8018281882309F4A1
:1010B0006DC00E94550C693171058105910540F0A4
:1010C0000E94550C623271058105910508F433CEFA
:1010D00089E126CFCB3CDC4509F093CEF801828133
:1010E000882351F0109264010E941C1E90936101AC
:1010F0008093600182E0B5CF8091640181110FC0BF
:1011000080916001909161010E94281E84369105B2
:1011100030F486E20E94E01286E20E94EF1382E041
:10112000B7CFC03DECE5DE0731F4F80182818823BA
:1011300069F180E009C0C13DFCE5DF0741F4F80139
:101140008281882319F182E00E94BE251FC0CD3C18
:10115000DC4509F056CEF8018281811179CF80916A
:101160006501811194CF80916201909163010E9489
:10117000281E8436910508F08ACF80E20E9455141B
:1011800088E20E94E01288E20E94EF1380E0DF9183
:10119000CF911F910F910895089508950C94CD0853
:1011A0000C94CE0880E090E00895089597E0799F30
:1011B000F001112496E4899FE00DF11D1124E60F42
:1011C000F11DEE0FFF1FE057FE4F8591949108959A
:1011D000880F991FFC01EC5CFC4F85919491089558
:1011E000CF93DF930E94D6080E94CB0AEC018115B1
:1011F00021E5920708F042C0811530E5930708F019
:101200001EC1883E910500F5803E910508F0BFC1E2
:10121000883A910570F4853A910508F09DC08130B7
:10122000910509F4B4C108F46BC1049708F0AFC18B
:1012300067C18D3B910508F49AC0803C910508F484
:101240005FC1805C9109EBC0811540E3940780F495
:10125000811550E2950708F0E1C0803F910508F440
:101260004FC18F3F910511F008F091C1D0658FC13A
:10127000811560E4960708F0DFC0D5C0C11589E587
:10128000D80740F5C11528E5D20708F025C1C115DA
:1012900034E5D30778F4C11543E5D40708F001C15C
:1012A000C11552E5D50708F0E6C0DC2FCC27C16F89
:1012B000D06A6DC1C11565E5D60708F408C1C1152E
:1012C00086E5D80708F01CC1CF71DD27DC2FCC27BD
:1012D000D0625DC1C53B2CE5D20709F408C1D8F442
:1012E000C33B4CE5D40709F4FCC008F0FDC0C115B0
:1012F0006AE5D60708F004C18C2F8F70806E90E0ED
:10130000906A24E0D695C7952A95E1F7CF709C01A5
:101310003C2BE9013CC1C83B8CE5D80709F4EDC082
:1013200060F4C63B3CE5D30709F4E4C0C73BDC45A9
:1013300009F0E6C0C0E0D2ED2AC1CE019056811579
:10134000904208F0DDC08D2F8F710E94480BDD2781
:10135000D0628F71D82B1BC1853A910509F4D3C097
:10136000863A910509F0D2C0C2E8D0E410C1883AAB
:10137000910509F4CEC0893A910509F4CDC08A3AA5
:10138000910509F4CCC08B3A910509F4CBC08C3A95
:10139000910509F4CAC08B3B910509F4C9C08C3B87
:1013A000910509F4C8C08D3A910509F4C7C0803B86
:1013B000910509F4C6C08E3A910509F4C5C08F3A6B
:1013C000910509F4C4C0813B910509F4C3C0823B77
:1013D000910509F4C2C0833B910509F4C1C0843B67
:1013E000910509F4C0C0853B910509F4BFC0863B57
:1013F000910509F4BEC0873B910509F4BDC0883B47
:10140000910509F4BCC0893B910509F4BBC08A3B36
:10141000910509F4BAC0C0E0D4E4B9C09F700E943D
:10142000E808EC01B4C09927D3FF03C0EC01D86CE5
:10143000AEC0EC01D06CABC0DF70D06AA8C0282F62
:10144000237081E090E002C0880F991F2A95E2F78F
:101450009C689E0174E0369527957A95E1F7237094
:10146000922BCF70C695C69560E2C69FE00111240D
:10147000C82BD92B8CC02C2F2695269580E2289F2F
:1014800090011124C370DD2781E090E0AC0102C01F
:10149000440F551FCA95E2F7EA01C22BD32BDC6833
:1014A00076C02C2F2695269580E2289F9001112446
:1014B000C370DD2781E090E0AC0102C0440F551FEE
:1014C000CA95E2F7EA01C22BD32BDA6860C0DC2FA1
:1014D000CC27C46FD06A5BC0DC2FCC27C06FD06A2A
:1014E00056C0C0E0D4ED53C0C0E0D5ED50C0C0E060
:1014F000D1ED4DC0C0E0D0ED4AC0C0E0D3ED47C053
:10150000C0E0D0E044C0C1E8D0E441C0C3E8D0E4CA
:101510003EC0C2EED4E43BC0C9EED4E438C0CAEE4B
:10152000D4E435C0C5EBD4E432C0C6EBD4E42FC05C
:10153000C3EBD4E42CC0C4EBD4E429C0C7EBD4E49F
:1015400026C0CCECD4E423C0CDECD4E420C0C3E866
:10155000D5E41DC0CAE8D5E41AC0C2E9D5E417C075
:10156000C4E9D5E414C0C1E2D6E411C0C3E2D6E4B4
:101570000EC0C4E2D6E40BC0C5E2D6E408C0C6E2A1
:10158000D6E405C0C7E2D6E402C0CAE2D6E4CE0182
:10159000DF91CF9108958238910549F1B0F48133FC
:1015A000910509F458C048F48932910509F44EC0F8
:1015B0008A32910509F454C008958533910509F4E0
:1015C00040C08933910599F00895833E910529F132
:1015D00038F4803E910591F0823E9105A1F0089586
:1015E000863E9105F9F0873E910531F108952091ED
:1015F0003F0220FD3AC021FD38C0089580913F028E
:1016000080FD35C032C080913F0282FF32C08091A0
:101610003F0284FD30C083EE39C080913F0282FDDD
:1016200028C0F5CF80913F0283FF27C080913F0201
:1016300084FD21C087EE2AC080913F0283FD1DC03A
:10164000F5CF80913F0285FD1AC01BC080913F02FB
:1016500085FD17C014C080913F0286FD14C015C0DF
:1016600080913F0286FD11C00EC080EE0FC089E35D
:101670000DC082EE0BC080E009C086EE07C089E293
:1016800005C085E303C08AE201C081E390E00895CC
:10169000CF93C82F0E944C1D90E0909340028093FE
:1016A0003F0282FF0DC09C2F9871983019F4C77FBC
:1016B000C46006C09C2F9471943011F4CB7FC86035
:1016C00083FF0DC09C2F9871983119F4C77EC461B7
:1016D00006C09C2F9471943111F4CB7EC86184FDB7
:1016E000C77E8C2FCF91089508950F931F93CF93AA
:1016F000FB012281211102C0C1E041C08C01C091D7
:101700007301C11125C086319C45B1F70E94740B4D
:1017100081E0809373010E941C1E9093720180935C
:101720007101109266011092680110926701109287
:101730006A011092690110926C0110926B01109273
:101740006E0110926D011092700110926F0117C01E
:1017500080917101909172010E94281E883C910530
:1017600058F690916601E92FF0E0EE0FFF1FE9595E
:10177000FE4F118300839F5F90936601C0E08C2F22
:10178000CF911F910F910895EF92FF920F931F93A6
:10179000CF93DF93E901662309F44BC0242F30E097
:1017A000EFEFF0E0E61BF109B901E69F9001E79F3A
:1017B000300DF69F300D1124232F8B01031B1109CF
:1017C0005CE3E52EF12CB7010E94D02DFB01BC019A
:1017D000069FC001079F900D169F900D1124B70121
:1017E0000E94D02DE230F105B1F040F4309779F04D
:1017F000319711F5832F242F461B21C0E430F105CA
:10180000A1F068F03597C1F4842F861B18C0832F90
:10181000262F230F14C0862F830FE42F03C0E42F3D
:10182000E61B842F432F2E2F0AC0842F462F430FF1
:1018300006C0842F242F03C080E020E040E0E42F86
:10184000F0E0E25BFC4F4491E22FF0E0E25BFC4F02
:101850009491E82FF0E0E25BFC4FE4914983988398
:10186000EA83DF91CF911F910F91FF90EF90089540
:1018700088E090E00C94062EAB01BC0188E090E07B
:101880000C94242EE1E0F2E083E0808310920202C7
:101890008FEF8283838360910102709102028091B5
:1018A0000302909104020C943C0C6091010260FFD1
:1018B00006C066956F7370E080E090E0089560E088
:1018C00070E0CB0108958091010280FF06C060E1C5
:1018D00070E089E092E00C94A01180E090E0FC01BF
:1018E000E75FFD4F118210821282039680339105CB
:1018F000B1F7EDCF9091010290FF0FC020E030E0F2
:10190000F901E75FFD4F8183608342832D5F3F4F85
:1019100020333105A9F70C94630C0895EF92FF92E0
:101920000F931F93CF93DF9300D01F92CDB7DEB7F5
:1019300000910102109102022091030230910402F1
:1019400000930502109306022093070230930802C9
:101950002091010220FF21C0042FF62EE92E182F1E
:101960009E012F5F3F4F0E94C40B8091050210FB28
:1019700087F9809305021695809106028078182BCE
:10198000E0FA17F910930602F0920702009308029A
:101990004B8169818A810E947A0C0F900F900F9081
:1019A000DF91CF911F910F91FF90EF9008958F924B
:1019B0009F92AF92BF92CF92DF92EF92FF920F93DE
:1019C0001F93CF93DF93EC01062F142F8091010218
:1019D00080FF8EC0982F9E77923021F4CE010E9416
:1019E0008E0C5CC0E82FE695EF739EE39E0F9F730D
:1019F000943018F41091040251C09AE39E0F9F7323
:101A0000993070F4881F8827881F90910202292F2F
:101A1000220FC22FC82B97FB992790F9D92F3EC0D0
:101A200087E28E0F8F738A30C8F5F0E07997E0FD7A
:101A300002C021E001C02FEFEE7FEC5CFC4F8591EE
:101A40009491AC0184E0569547958A95E1F724037B
:101A50006001259FD00C11244E0188E9881A8EEF71
:101A6000980A99E0E92E92E0F92E28E6A22EBB24EE
:101A7000B394C401B5010E94D02D9701412F602F6E
:101A80000E94C40B8C0C9D1C93E0E90EF11C89E3B1
:101A9000E81682E0F80669F70E94630C8091010263
:101AA0009C2FC0FB87F980930102969580910202DA
:101AB0008078892BD0FB87F9809302020093030280
:101AC000109304026091010270910202809103025E
:101AD00090910402DF91CF911F910F91FF90EF90B1
:101AE000DF90CF90BF90AF909F908F900C943C0C64
:101AF000DF91CF911F910F91FF90EF90DF90CF90EA
:101B0000BF90AF909F908F900895E1E0F2E0208128
:101B1000221F2227221F30910202432F440F842FBD
:101B2000822B37FB992790F9089668E671E00E94AE
:101B3000E42D438162810C94D70C20910102221F75
:101B40002227221F30910202432F440F842F822B21
:101B500037FB992790F9883091051CF4805A9E4FE5
:101B600001C0089768E671E00E94E42D40910402EC
:101B7000609103020C94D70C60910302862F90E0D1
:101B8000883F910514F4685F01C06FEF80910102F6
:101B9000881F8827881F90910202292F220F97FB08
:101BA000992790F940910402822B0C94D70C6091F4
:101BB0000302862F90E0089714F0685001C060E09F
:101BC00080910102881F8827881F90910202292F87
:101BD000220F97FB992790F940910402822B0C94D5
:101BE000D70C40910402842F90E0883F910514F4B3
:101BF000485F01C04FEF80910102881F8827881F2E
:101C000090910202292F220F97FB992790F960915A
:101C10000302822B0C94D70C40910402842F90E095
:101C2000089714F0485001C040E080910102881FDD
:101C30008827881F90910202292F220F97FB99274E
:101C400090F960910302822B0C94D70C90910102C1
:101C500090FF42C09178811102C0926007C0833228
:101C600010F0946403C08F73880F982B9093010237
:101C7000609101027091020280910302909104022E
:101C80000E943C0C80910102982F9E77923019F4AB
:101C90001092890110C0982F96959F732EE3290FFB
:101CA0002F73273120F491E09093890104C0995D4E
:101CB0009F739A3068F3881F8827881F90910202CB
:101CC000292F220F97FB992790F9409104026091E8
:101CD0000302822B0C94D70C08958091E901816056
:101CE0008093E90181E080938A010E94341D811173
:101CF00004C00E940E1D0E94420C0E94380C60938A
:101D000001027093020280930302909304026E77A3
:101D100061F40E94420C0E94380C6093010270939F
:101D20000202809303029093040281E08093890170
:101D30008091010280FF04C086958F730C94260E5B
:101D400008958091010286958F738F5F833208F02A
:101D500081E00C94260E8091010286958F7381504C
:101D600009F482E20C94260ECF93DF93C1E0D2E017
:101D70008881816088836091010270910202809164
:101D80000302909104020E943C0C888186958F7317
:101D9000DF91CF910C94260EE1E0F2E080818E7FFE
:101DA0008083609101027091020280910302909100
:101DB00004020E943C0C109289012FEF80E792E010
:101DC000215080409040E1F700C000000C94630C6B
:101DD0008091010280FD0C94CC0E0C94B40ECF9334
:101DE000C82F80918701909188010E94281EEC2FB6
:101DF000F0E0E65BFC4FE491F0E08E179F0708F4FB
:101E000043C00E941C1E90938801809387016091BB
:101E1000860170E080E090E00E94D12B20E030E06D
:101E20004FE753E40E94F42A2BED3FE049E450E4ED
:101E30000E94FA2C0E94672D0E946E2B2BE43AE33D
:101E40004EE25FE30E94872A20EF3BEF48ED52E429
:101E50000E94FA2C0E94A02B462F80910102881F1D
:101E60008827881F90910202292F220F97FB99271C
:101E700090F960910302822B0E948E0C8091860162
:101E800090E0019680938601CF910895CF93C82F5B
:101E900080918401909185010E94281EEC2FF0E032
:101EA000E95BFC4FE491F0E08E179F07E8F00E9499
:101EB0001C1E9093850180938401409104026091DF
:101EC000030280918201909183010E948E0C809187
:101ED000820190918301019668E671E00E94D02D05
:101EE0009093830180938201CF910895CF92DF92E6
:101EF000FF920F931F93CF93DF93F82E8091800171
:101F0000909181010E94281EEF2DE695F0E0EC5B98
:101F1000FC4FE491F0E08E179F07F0F10E941C1E29
:101F2000909381018093800109E012E0C0E0D0E04D
:101F300088E6C82EDD24D39480917E0190917F01A4
:101F40008C0F9D1FB6010E94D02D98014091040274
:101F5000609103020E94C40B66960D5F1F4FC0364E
:101F600081E0D80749F70E94630C20917E013091EF
:101F70007F01F0FE0BC0C901019668E671E00E9486
:101F8000D02D90937F0180937E0106C021503109AE
:101F900030937F0120937E01DF91CF911F910F91AC
:101FA000FF90DF90CF900895AF92BF92CF92DF92D3
:101FB000EF92FF920F931F93CF93DF93C82F80FF71
:101FC00002C01FEF01C011E080917C0190917D0162
:101FD0000E94281EC695EC2FF0E0EF5BFC4FE491C9
:101FE000F0E08E179F0708F465C00E941C1E9093B6
:101FF0007D0180937C0129E0C22E22E0D22E3BE0BD
:10200000E32E32E0F32EC0E0D0E0F70131971082EA
:10201000F6011082F701108294E0A92EB12C00E0A5
:1020200080917B01800F87FD805F082E000C990B4B
:10203000C817D907E9F4809104028A9DA0018B9DFD
:10204000500D11245595479555954795809101025E
:10205000881F8827881F90910202592F550F97FBE0
:10206000992790F9960160910302852B0E94C40B79
:10207000010FF1E0AF1AB10899F6219683E0C80E7E
:10208000D11CE3E0EE0EF11CC031D10509F0BDCF4B
:102090000E94630C80917B01113031F4811102C0E8
:1020A0008FE006C0815004C090E001968F709927A0
:1020B00080937B01DF91CF911F910F91FF90EF9063
:1020C000DF90CF90BF90AF900895EF92FF920F9363
:1020D0001F93CF93DF93C82F8091790190917A015C
:1020E0000E94281EEC2FF0E0E25CFC4FE491F0E04F
:1020F0008E179F0708F464C00E941C1E90937A01FB
:102100008093790180E090E0FC01E75FFD4F118250
:1021100010821282039680339105B1F789E0E82E90
:1021200082E0F82E0BE012E0C0E0D0E08091780170
:10213000082E000C990BC817D907ECF0809102010A
:10214000082E000C990B8C179D07ACF080910102B2
:10215000881F8827881F90910202592F550F97FBDF
:10216000992790F997014091040260910302852B11
:102170000E94C40B07C0F80131971082F70110824A
:10218000F80110822196F3E0EF0EF11C0D5F1F4F56
:10219000C031D10559F60E94630C809101019091E4
:1021A0007801980F9093780120910201280F2093D5
:1021B0000201121614F49F301CF0819580930101E6
:1021C000DF91CF911F910F91FF90EF900895EF92C3
:1021D000FF920F931F93CF93DF938091760190919D
:1021E00077010E94281E883E9340D0F10E941C1E59
:1021F0009093770180937601C0917401D09175011D
:102200002196C170DD27D0937501C093740189E0D8
:10221000E82E82E0F82E10E008E7812F8695FE0177
:10222000E80FF11DCF0181709927970140910402B9
:1022300060910302FC010E9FC0010F9F900D1124BD
:102240000E94C40B1F5FF3E0EF0EF11C103129F761
:10225000DF91CF911F910F91FF90EF900C94630C41
:10226000DF91CF911F910F91FF90EF900895809192
:102270008901882391F190910102892F86958F73AE
:102280002EE3280F2F73243018F482500C94EF0E95
:102290002AE3280F2F73233018F486500C94460F2E
:1022A00027E3280F2F73263018F489500C94760FEB
:1022B00021E3280F2F73263018F48F500C94D40F7D
:1022C0002BE2280F2F73233018F485510C946510DE
:1022D0009E77903311F40C94E71008952BB1342FAE
:1022E000309523233BB1432B3FB7F894FC01680F93
:1022F000791FE617F70789F0819198E04BB9000044
:1023000000C087FF2BB9880F000000C000C000C0CC
:102310002BB900C09A9591F7ECCF3FBF08952AB131
:10232000242B2AB99B01220F331F620F731F0E94B7
:102330006E1187EC90E00197F1F700C0000008955E
:1023400042E00C948F119093900180938F01089537
:10235000E0918F01F0919001309721F00190F08190
:10236000E02D099480E00895E0918F01F0919001B3
:10237000309721F00280F381E02D09940895E091D7
:102380008F01F0919001309721F00480F581E02DCC
:102390000994089520918D0130918E018217930741
:1023A00071F090938E0180938D01E0918F01F091F7
:1023B0009001309721F00680F781E02D099408956F
:1023C00020918B0130918C018217930771F09093CB
:1023D0008C0180938B01E0918F01F09190013097F7
:1023E00021F00084F185E02D099408950C94E70410
:1023F00081E008950E94131E0E9420030E94891EFE
:102400000E94C9220C946D0ECF92DF92EF92FF9240
:102410000F931F93CF93DF93CDB7DEB72B970FB6F4
:10242000F894DEBF0FBECDBF0E946F040E94F8116A
:10243000811111C08FEF89838A831B820E941C1E29
:102440008160782F9D838C8349815A816B818D8136
:102450000E94AC1256C082E9C82E81E0D82E00E05E
:1024600010E0E02E802F0E94BB04F60141916F0125
:10247000F42EF82631F40F5F1F4F0A30110589F74B
:10248000D9CF9091E90191FF04C08B870E94C104CC
:102490008B8520E030E04F2D50E0922FBA01022EC4
:1024A00002C0759567950A94E2F760FF24C02E83F9
:1024B000EF8221E030E0690102C0CC0CDD1C9A956E
:1024C000E2F790E08C219D21892B09F420E02887F8
:1024D0000E941C1E8160782F9A8789874E815F81B8
:1024E00068858A850E94AC12F801EE56FE4F808105
:1024F000C826C08206C02F5F3F4F2730310569F6DE
:10250000BACF0E941C20109191010E94A8111817A7
:10251000A1F00E94A811809391012B960FB6F89418
:10252000DEBF0FBECDBFDF91CF911F910F91FF9006
:10253000EF90DF90CF900C94D0082B960FB6F894C4
:10254000DEBF0FBECDBFDF91CF911F910F91FF90E6
:10255000EF90DF90CF900895CF93DF93CDB7DEB7A4
:102560002B970FB6F894DEBF0FBECDBF4F835887B1
:1025700069877A878B87DE01119686E0FD011192CB
:102580008A95E9F785E0FE01379601900D928A95CC
:10259000E1F749815A816B817C818D819E810E9406
:1025A000F5192B960FB6F894DEBF0FBECDBFDF91A5
:1025B000CF910895FC01808191810E94621C089551
:1025C000CF93DF931F92CDB7DEB7882309F403C101
:1025D000682F8238C1F40E94A81181FDFCC069E314
:1025E00080910301909104010E94911D0E94A21C00
:1025F0002FEF81EE94E0215080409040E1F700C041
:10260000000069E319C0833811F50E94A81180FD0C
:10261000E2C063E580910301909104010E94911D45
:102620000E94A21C2FEF81EE94E021508040904048
:10263000E1F700C0000063E580910301909104017F
:102640000E94931D0F90DF91CF910C94A21C8438AF
:10265000C1F40E94A81182FDBEC067E4809103010D
:10266000909104010E94911D0E94A21C2FEF81EE07
:1026700094E0215080409040E1F700C0000067E402
:10268000DBCF8CEF860F813A70F4862F69830E942E
:102690003222698181119FC08091030190910401D0
:1026A0000E94911DCFCF80E2860F883048F467707A
:1026B00081E001C0880F6A95EAF70E94D81CC2CF5A
:1026C0008BE5860F833088F4653A29F0663A31F05D
:1026D00083E890E005C081E890E002C082E890E0E5
:1026E0000F90DF91CF910C94CA1188E5860F853148
:1026F00008F071C0683A61F1693A69F16A3A71F1BA
:102700006B3A79F16C3A81F16B3B89F16C3B91F159
:102710006D3A99F1603BA1F16E3AA9F16F3AB1F1CE
:10272000613BB9F1623BC1F1633BC9F1643BD1F15B
:10273000653BD9F1663BE1F1673BE9F1683BF1F1BB
:10274000693BF9F16A3B09F43FC080E090E03EC08C
:1027500082EE90E03BC089EE90E038C08AEE90E0D7
:1027600035C085EB90E032C086EB90E02FC083EB64
:1027700090E02CC084EB90E029C087EB90E026C06D
:102780008CEC90E023C08DEC90E020C083E891E0D9
:102790001DC08AE891E01AC082E991E017C084E97F
:1027A00091E014C081E292E011C083E292E00EC099
:1027B00084E292E00BC085E292E008C086E292E0FB
:1027C00005C087E292E002C08AE292E00F90DF91BA
:1027D000CF910C94E0110F90DF91CF910895882351
:1027E00009F45BC0682F823879F40E94A81181FF38
:1027F00054C069E380910301909104010E94911DEE
:102800000E94A21C69E310C08338B1F40E94A81191
:1028100080FF43C063E580910301909104010E9411
:10282000911D0E94A21C63E5809103019091040117
:102830000E94931D0C94A21C843879F40E94A81164
:1028400082FF2BC067E480910301909104010E94F4
:10285000911D0E94A21C67E4E7CF8CEF860F813A9E
:1028600018F380E2860F883048F4677081E001C079
:10287000880F6A95EAF70E94DE1CDCCF8BE5860F95
:10288000833020F480E090E00C94CA11685A6531DE
:1028900020F480E090E00C94E0110895882321F06A
:1028A0000E94D81C0C94A21C0895882321F00E9439
:1028B000DE1C0C94A21C08954F925F926F927F923F
:1028C000AF92BF92CF92DF92EF92FF920F931F933E
:1028D000CF93DF931F92CDB7DEB77C01A72EFC010B
:1028E000058102950F701281112321F069830E94E6
:1028F000F51C698169830E949B1C6981882381F092
:10290000112371F080E2860F883050F082E00E943F
:10291000841C0E949B1C91E0B82EB926698101C0DD
:10292000B12CCA2CC2948FE0C822D12CF601E859F0
:10293000FF4F0C94F82D8A2D807F0A2D0F7088236D
:1029400011F00295007F1123C1F0002309F4DDC1CD
:1029500080E2860F883010F0611105C0802F6983F6
:102960000E94D81C04C0802F69830E94E81C6981E2
:1029700069830E94A21C6981C8C1862F69830E9455
:10298000EF136981002309F408C280E2860F8830C2
:1029900010F0611104C0802F0E94DE1C03C0802F44
:1029A0000E94EE1C0E94A21CF8C18A2D807F9A2DE5
:1029B0009F70803211F4892F03C0892F8295807F08
:1029C000662319F06130B1F01FC0112349F00023D4
:1029D00009F452C1013009F04FC10E94081DDDC148
:1029E000002319F0013009F4D8C189830E940B1D1E
:1029F000898148C1112321F0063008F0CEC13CC1C5
:102A0000053008F0CAC13EC1112351F0002309F47A
:102A100033C1F701958190FF78C19F7095832CC1D8
:102A2000002309F42FC182C18A2D86958695837073
:102A300090E0009719F0019761F0AFC1112321F0E8
:102A4000862F9A2D937002C080E090E00E94CA11F8
:102A5000B4C1112321F0862F9A2D937002C080E01B
:102A600090E00E94E011A9C11123F9F0653F51F0F7
:102A7000663F71F0643FA9F48091390290913A0267
:102A800081600BC08091390290913A02826005C04A
:102A90008091390290913A02846090933A02809337
:102AA0003902862F0E94241F1EC0653F51F0663FE9
:102AB00071F0643FA9F48091390290913A028E7FBF
:102AC0000BC08091390290913A028D7F05C08091B0
:102AD000390290913A028B7F90933A0280933902A7
:102AE000862F0E948C1F0E94112067C18A2D83703F
:102AF00009F052C011115DC1862F829586958770AD
:102B0000880F880F962F9F70492E512C612C712CA5
:102B1000082E04C0440C551C661C771C0A94D2F77E
:102B200064FF14C00FE010E020E030E0B901A8011C
:102B300004C0440F551F661F771F8A95D2F7CB013B
:102B4000BA01609570958095909503C060E070E043
:102B5000CB012A2D26952695237030E022303105B1
:102B600069F02330310589F0642975298629972970
:102B70002130310571F00E94381B1BC16429752971
:102B8000862997290E944A1B14C10E94381BC30141
:102B9000B2010E94261B0DC1112319F08A2D8170EC
:102BA00001C08695882309F404C1862F82958695F5
:102BB0008770880F880F962F9F70492E512C612C9B
:102BC000712C082E04C0440C551C661C771C0A94FA
:102BD000D2F764FF14C00FE010E020E030E0B9014C
:102BE000A80104C0440F551F661F771F8A95D2F7AE
:102BF000CB01BA01609570958095909503C060E017
:102C000070E0CB012A2D269526952370422F50E0A7
:102C10004230510569F04330510589F06429752926
:102C2000862997294130510571F00E94FE1BC1C0D1
:102C300064297529862997290E94101CBAC00E9410
:102C4000FE1BC301B2010E94EC1BB3C0862F90E0B3
:102C5000FC01E05EF109E531F10508F052C0E858E9
:102C6000FF4F0C94F82D062F0F708A2D8F711123B2
:102C700031F00E94851B802F0E944E148EC00E944E
:102C8000A61B802F0E94551488C0112341F00530E7
:102C900008F083C08A2D8F710E94CB1B7EC0063046
:102CA00008F07BC0F7CF112339F08A2D8F710E9475
:102CB000851B73C01123C9F38A2D8F710E94A61B37
:102CC0006CC0112329F08A2D8F710E94701B65C082
:102CD0000E946B1B62C0112351F01A2D1F71812FAE
:102CE0000E94851B63E0812F0E947B1C56C081E0FF
:102CF0000E94841C023008F450C082E00E94841CB0
:102D00004CC0112331F0002381F2862F0E94E01283
:102D100044C0002389F2693349F45FEF77EE83E022
:102D2000515070408040E1F700C00000862F0E94A3
:102D3000EF1333C04A2D4F70C7010E94D2080E9482
:102D4000991A3BC0111139C08A2D8F7090E08230E2
:102D5000910599F03CF4009769F00197F1F40E9415
:102D600003232BC08430910571F054F00597A9F42A
:102D700080E00AC00E94E62220C00E941F231DC0DE
:102D80000E9439231AC085E00E945C2316C04A2D98
:102D90004F70C7010E94D50810C098E0C916D10431
:102DA00041F05CF0FAE0CF1AD10822E0C216D1045B
:102DB00020F40E94A8110E94D008BB2001F10E94BB
:102DC000771C80FD1CC0F70112820E94711C0E94BA
:102DD000851BC7010E940F170E94711C0F90DF9185
:102DE000CF911F910F91FF90EF90DF90CF90BF9008
:102DF000AF907F906F905F904F900C94A61B0F90B8
:102E0000DF91CF911F910F91FF90EF90DF90CF90C6
:102E1000BF90AF907F906F905F904F9008950F9309
:102E20001F93CF93DF93EC01888199812B813C81A3
:102E3000232BB9F09F3F11F48F3F99F0CE010E94F0
:102E40004506882371F0688179818A810E946D1C12
:102E50008C010E94221C0E94231BB801CE010E94FB
:102E60005C14DF91CF911F910F9108950E94F51C82
:102E70000E94051D80910301909104010E94951DFF
:102E80000E94A21C0E94AA200E94112080E090E0D3
:102E90000E94CA1180E090E00C94E0110E94E51CB1
:102EA0000C9436170E94621CE92FE295EF70F0E057
:102EB0003297EE30F105B0F4E357FF4F0C94F82D44
:102EC000803F91F018F4803E68F40EC0843F51F4C6
:102ED0000BC0803E48F0813F29F406C093FB882751
:102EE00080F9089580E0089581E00895CF93DF93FD
:102EF00000D000D01F92CDB7DEB70F900F900F908B
:102F00000F900F90DF91CF910895CF93DF9300D072
:102F100000D000D0CDB7DEB726960FB6F894DEBF4E
:102F20000FBECDBFDF91CF9108951F93CF93DF9355
:102F3000C0919C0116E080919D01C81799F0D0E0E6
:102F40001C9FF0011D9FF00D1124E256FE4F4081A1
:102F5000518162817381848195810E9485172196B8
:102F6000C770E9CFDF91CF911F9108954091CE01B5
:102F70005091CF016091D0017091D1018091D20127
:102F80009091D3010C9485178091D30182958F7015
:102F900009F054C08091D001882309F44FC080917A
:102FA0009C01A0919D016091CE017091CF01409153
:102FB000D1015091D201B6E08A1709F43FC090E0E8
:102FC00041155105C1F17F3F11F46F3FA1F1B89F49
:102FD000F001B99FF00D1124E256FE4F21817213CA
:102FE0002AC02081621327C02281211124C023819D
:102FF00034812417350710F421503109241B350B77
:1030000024363105C0F42091D3012F702061209324
:10301000D30126E0289FF001299FF00D1124ED55E2
:10302000FE4F80818F70806180838EEC91E00E94E2
:103030000F170C94951701968770BECF0895CF9205
:10304000DF92EF92FF920F931F93CF93DF93CDB751
:10305000DEB762970FB6F894DEBF0FBECDBF8C010E
:1030600085E0F801DE011D9601900D928A95E1F749
:10307000D8014C9111965C91119712966C91129710
:103080001396CD90DC9014973091CE017091CF01C2
:103090008091D1019091D201009709F46BC17F3FDB
:1030A00019F43F3F09F466C1E090D001EE2009F425
:1030B000C0C02091D301C816D90628F0F601E81B3C
:1030C000F90BCF0104C0809590958C0D9D1DFF24B8
:1030D000F3948436910578F0F12C207F09F0C6C076
:1030E0007C2DD98AC88A89890E9476178EEC91E056
:1030F0000E940F17B1C0822F807F09F046C0751360
:1031000014C0341312C0611110C02F7020612093BD
:10311000D3010E94B6178EEC91E00E940F178091A8
:10312000D301D80115968C932EC0CD2819F15F3F9D
:1031300011F44F3FF9F0F62E61111CC080919C01F3
:1031400020919D0136E0821709F45AC090E0389F23
:10315000F001399FF00D1124E256FE4F7181571393
:1031600006C07081471303C07281711103C00196BC
:103170008770E9CFF62E662309F427C18091D30129
:1031800081608093D301F12C20C1751308C03413E2
:1031900006C0611104C08091D301D801C3C04D871E
:1031A0005E878D859E856A8B0E9452176A89882367
:1031B000E1F16623D1F12091D301822F82958F70A6
:1031C00090E0029774F08091CE019091CF019887A2
:1031D0008F831986DB86CA862C87CE0107960E94CC
:1031E0000F1786E0F801AEECB1E001900D928A95E0
:1031F000E1F70E94C4170E94B617FF24F394E5C0BC
:103200004D875E878D859E850E94621C292F2295A1
:103210002F7030E0223031050CF0CBC09F7009F0E8
:10322000C5C0805E883008F4D0C0C8010E940F1766
:10323000E4CFC816D90608F453C0F601E81BF90B11
:10324000CF018436910508F450C0F12C7C2DD98A29
:10325000C88A89890E947617EEECF1E086E0DF01EA
:103260001D928A95E9F70E94B617AFC0751314C076
:10327000341312C0611110C08091D301F80185830D
:10328000C8010E940F1786E0EEECF1E0DF011D920D
:103290008A95E9F7FE2C99C04D875E878D859E85BE
:1032A0006A8B0E9452176A89882309F4BECF66236D
:1032B00009F4BBCF2091D301822F82958F7090E0CB
:1032C00002970CF48ECF8091CE019091CF019A831A
:1032D00089831B82DD82CC822E83CE0101967FCF33
:1032E000809590958C0D9D1DACCFF62E662309F42C
:1032F0009CCF75132EC034132CC02091D30120FD18
:103300001FC0822F82958F70D9F0D80115962C930B
:1033100015978F3049F08F5F982F9295907F822F6D
:103320008F70892B15968C93C8010E940F1786E029
:10333000F801AEECB1E001900D928A95E1F793CFE0
:1033400086E0F801AEECB1E001900D928A95E1F7CC
:103350003CC04D875E878D859E850E9452178111E6
:1033600040CF8091D30181608093D301C8010E9436
:103370000F172BC0662309F458CF4D875E878D85C4
:103380009E850E945217F82E882309F44ECF86E0BE
:10339000F801AEECB1E001900D928A95E1F78EEC68
:1033A00091E00E94DA120E94C4175DCF811139CFDB
:1033B0000CC0243031050CF038CF9F7009F431CFA8
:1033C000F8019581907F09F02CCF8F2D62960FB672
:1033D000F894DEBF0FBECDBFDF91CF911F910F914B
:1033E000FF90EF90DF90CF9008951F93CF93DF93DE
:1033F000CDB7DEB72C970FB6F894DEBF0FBECDBFAA
:103400004F83588769877A878B879C87CE01079679
:103410000E941F18882369F08F8198852A853B8533
:10342000232BF1F19F3F09F063C08F3F09F060C08B
:1034300037C086E0FE013796DE01119601900D92AD
:103440008A95E1F76F817885EA85FB85309741F1B0
:103450007F3F11F46F3F21F120919D0130E0C901C0
:1034600001968770992740919C0150E08417950739
:1034700009F447C069837A83FD83EC8396E0929FC9
:10348000D001939FB00D1124A256BE4FFE0131967C
:1034900001900D929A95E1F780939D010E949517F6
:1034A00016E080919C0190919D018917C1F1189FB0
:1034B000C001112482569E4F0E941F18882379F163
:1034C000E0919C011E9FF0011124E256FE4F4081C5
:1034D000518162817381848195810E9485178091D9
:1034E0009C0190E001968770992780939C01D9CF29
:1034F0004F81588569857A858B859C850E948517C3
:10350000CFCF0E944E1710929D0110929C01EEECBD
:10351000F1E086E0DF011D928A95E9F7C1CF2C9694
:103520000FB6F894DEBF0FBECDBFDF91CF911F91D4
:103530000895EF92FF920F931F93CF93DF938C0127
:10354000892B09F46CC0F12CEE24E394E801219658
:10355000F8018491843740F4843008F051C0813000
:1035600081F0823019F15BC0853709F444C0A8F1BD
:103570009CE7980F903708F052C08F770E94EF13A6
:1035800041C00E5F1F4FFE01C49180E28C0F883056
:1035900048F4C7708E2D01C0880FCA95EAF70E94C3
:1035A000F81C14C08C2F0E94E0122DC00E5F1F4F1C
:1035B000FE01C49180E28C0F883058F4C7708E2DC4
:1035C00001C0880FCA95EAF70E94FE1C0E94A21C47
:1035D0001AC08C2F0E94EF1316C00E5F1F4FFE0102
:1035E000C491CC2381F08FE99FE00197F1F700C0EF
:1035F0000000C150F6CF0E5F1F4FFE01F49003C0D4
:103600000E94E0128E018F2D882309F49FCFEFE9ED
:10361000FFE03197F1F700C000008150F5CFDF9156
:10362000CF911F910F91FF90EF90089508950E9400
:10363000161B6093D8017093D9018093DA0190939F
:10364000DB010C94361708950C94171B0F931F93EE
:103650000091D8011091D9012091DA013091DB015C
:10366000602B712B822B932B1F910F910C94171BA6
:103670000F931F930091D8011091D9012091DA0185
:103680003091DB0160237123822393231F910F91DB
:103690000C94171B0F931F930091D8011091D9011F
:1036A0002091DA013091DB0160277127822793276F
:1036B0001F910F910C94171B08950C945C1B0E9492
:1036C0005D1B6093D4017093D5018093D6019093D4
:1036D000D7010C94361760E070E0CB010C945F1BAF
:1036E0000F931F9341E050E060E070E08A019B017E
:1036F00004C0000F111F221F331F8A95D2F7C90182
:10370000B8011F910F910C945F1B0F931F9341E021
:1037100050E060E070E004C0440F551F661F771F43
:103720008A95D2F78091D4019091D501A091D601CC
:10373000B091D7018A019B01082B192B2A2B3B2B17
:10374000C901B8011F910F910C945F1B0F931F9338
:1037500041E050E060E070E004C0440F551F661F78
:10376000771F8A95D2F74095509560957095809116
:10377000D4019091D501A091D601B091D7018A01D1
:103780009B01082319232A233B23C901B8011F9158
:103790000F910C945F1B0F931F9341E050E060E08A
:1037A00070E004C0440F551F661F771F8A95D2F73B
:1037B0008091D4019091D501A091D601B091D7010B
:1037C0008A019B01082719272A273B27C901B8012D
:1037D0001F910F910C945F1B0F931F930091D401C5
:1037E0001091D5012091D6013091D701602B712B1A
:1037F000822B932B1F910F910C945F1B0F931F93A0
:103800000091D4011091D5012091D6013091D701BA
:1038100060237123822393231F910F910C945F1BCC
:103820000F931F930091D4011091D5012091D601DF
:103830003091D70160277127822793271F910F911D
:103840000C945F1B0895CF92DF92EF92FF920F933B
:103850001F93CF93DF938C01C090D801D090D901F2
:10386000E090DA01F090DB018091D4019091D501D4
:10387000A091D601B091D701C82AD92AEA2AFB2AF9
:10388000CFE1D0E0D701C6010C2E04C0B695A795B4
:10389000979587950A94D2F780FF06C0B8018C2FC0
:1038A0000E94F008019721F4219760F780E001C0A1
:1038B0008C2FDF91CF911F910F91FF90EF90DF90B0
:1038C000CF900895CF93DF93EC010E94231CBE019B
:1038D0000E94F008DF91CF910895CB010E94621CF5
:1038E00008958091DC018595859585950895809151
:1038F000DC018770089598E0899F90011124262BA0
:103900002093DC010C94851B2091DC01809582239F
:103910008093DC01982F977069F430E0482F082ECF
:10392000000C550B2417350729F08595859585954D
:103930000C94A61B08959091DC01977081E009F426
:1039400080E00895E0910301F09104018091E80185
:103950008083E0910301F091040190818091E7015F
:10396000892B8083E0910301F09104019081809183
:10397000E601892B80838091DD01882381F0E0912D
:103980000301F09104019081892B808380910301D0
:10399000909104010E945E1D81111092DD018091C1
:1039A0000301909104010C94B4118091E8010895F1
:1039B0009091E801892B8093E8010895809590917A
:1039C000E80189238093E80108951092E8010895A1
:1039D0009091E701892B8093E7010895809590915C
:1039E000E70189238093E70108951092E701089584
:1039F0009091E601892B8093E6010895809590913E
:103A0000E60189238093E60108951092E601089566
:103A10008093DD0108951092DD0108956DEE7EEF33
:103A200080E090E00E94302E60E082E090E00E9412
:103A3000122E60E083E090E00E94122E60E084E0AD
:103A400090E00E94122E60E085E090E00E94122E2D
:103A500060E086E090E00E94122E40E050E0BA0163
:103A600088E090E00C94242E80E090E00E940C2EE0
:103A700021E08D3E9E4F09F020E0822F089582E0E4
:103A800090E00C94FE2D83E090E00C94FE2D682FC6
:103A900083E090E00C94122E84E090E00C94FE2DD4
:103AA000682F84E090E00C94122E86E090E00C9455
:103AB000FE2D682F86E090E00C94122EFC013196CA
:103AC0009C01285F3F4F80E0919191118F5FE21739
:103AD000F307D1F708959C01FC0132969FEF80E037
:103AE0004191461789F09F3F19F4411101C0982F69
:103AF0008F5F8630A9F79F3F39F0F901E90FF11D7B
:103B000097FDFA95628308950895FC013296089610
:103B10002081261301C010823196E817F907C1F7FA
:103B200008950C946B1D0C94851DFC01319608962C
:103B30001192E817F907E1F7089580914602843061
:103B400051F11092EA0120E488E190E00FB6F89478
:103B5000A895809360000FBE2093600080E00E94D3
:103B6000CC0880E00E94D00883B7817F846083BF47
:103B700083B7816083BF7894889583B78E7F83BF36
:103B80000FB6F894A89580916000886180936000DA
:103B9000109260000FBE089508950895CF930E947B
:103BA000CC1D0E946F040E94CD1DC0E08C2F0E948E
:103BB000BB04811104C0CF5FCA30C1F701C081E0EE
:103BC000CF9108950E944E170E94C9220E94A81109
:103BD0000C94D0081F920F920FB60F9211248F935E
:103BE0009F93AF93BF938091EA01811113C080919D
:103BF0003B0290913C02A0913D02B0913E02419661
:103C0000A11DB11D80933B0290933C02A0933D0205
:103C1000B0933E02BF91AF919F918F910F900FBED5
:103C20000F901F90189582E084BD93E095BD9AEFA8
:103C300097BD80936E0008952FB7F89480913B0252
:103C400090913C02A0913D02B0913E022FBF089599
:103C5000CF92DF92EF92FF920F931F932FB7F894BA
:103C600040913B0250913C0260913D0270913E02B6
:103C70002FBF6A017B01EE24FF248C0120E030E09D
:103C8000C016D106E206F30610F4415051099A011C
:103C9000281B390BC9011F910F91FF90EF90DF9006
:103CA000CF90089578941F920F920FB60F9211241F
:103CB0008F939F93AF93BF9380913B0290913C026F
:103CC000A0913D02B0913E020196A11DB11D8093CD
:103CD0003B0290933C02A0933D02B0933E02BF9101
:103CE000AF919F918F910F900FBE0F901F901895DD
:103CF00087E797E790930108809300089AE088E1AE
:103D00000FB6F894A895809360000FBE9093600062
:103D1000FFCF0E94341D811102C00E940E1D0E941F
:103D20003F1D8093E9010E944C1D90E0909340025A
:103D300080933F020E94431D682F70E080E090E076
:103D40000C94241B8091ED0180FF0BC06091080151
:103D500085E0689FB0011124759567957595679505
:103D60002BC081FF09C06091080185E0689FB00108
:103D700011247595679520C082FF07C060910801E6
:103D800085E0689FB001112417C09091EE0199233E
:103D9000D1F060910701961788F72091080185E01E
:103DA000289F90011124929FA001939F500D1124F0
:103DB00070E0CA010E94E42D6038710540F461157D
:103DC000710539F002C065E070E0862F08958FE735
:103DD000089581E008958091ED0180FF08C0609111
:103DE000060170E0759567957595679521C081FF0F
:103DF00006C06091060170E07595679519C082FF55
:103E000004C06091060170E010C09091EE0199230A
:103E1000C1F0609105019617A0F780910601899F76
:103E2000C001112470E00E94E42D6038710528F46F
:103E30006115710521F0862F08958FE7089581E0BF
:103E4000089561E070E0F4CF803F21F40E94A21E4B
:103E5000819504C0813F29F40E94A21E8093F10144
:103E60000895823F21F40E94A21E819504C0833FE1
:103E700029F40E94A21E8093F0010895893F19F44D
:103E80000E94EB1E05C08A3F31F40E94EB1E819513
:103E90008093F20108958B3F21F40E94EB1E8195DF
:103EA00004C08C3F29F40E94EB1E8093F301089517
:103EB000843F21F48091EF01816017C0853F21F498
:103EC0008091EF01826011C0863F21F48091EF0163
:103ED00084600BC0873F21F48091EF01886005C0AA
:103EE000883F31F48091EF0180618093EF01089564
:103EF0008D3F21F48091ED0181600BC08E3F21F454
:103F00008091ED01826005C08F3F29F48091ED0121
:103F100084608093ED010895803F39F48091F10130
:103F200087FF6CC01092F10169C0813F29F4809134
:103F3000F1011816BCF362C09091F001823F29F4A0
:103F400097FF5CC01092F00159C0833F19F4191615
:103F5000CCF354C0893F41F48091F20118160CF063
:103F60004DC01092F2014AC08A3F29F48091F201BB
:103F700087FF44C0F6CF8B3F39F48091F30187FF70
:103F80003DC01092F3013AC08C3F29F48091F301B7
:103F90001816BCF333C0843F21F48091EF018E7F6B
:103FA00017C0853F21F48091EF018D7F11C0863FBE
:103FB00021F48091EF018B7F0BC0873F21F480912A
:103FC000EF01877F05C0883F31F48091EF018F7E3C
:103FD0008093EF0113C08D3F21F48091ED018E7F1E
:103FE0000BC08E3F21F48091ED018D7F05C08F3F86
:103FF00029F48091ED018B7F8093ED018091F00198
:1040000081110EC08091F10181110AC08091F201ED
:10401000811106C08091F301811102C01092EE015E
:1040200008958FEE91E00E94BF110E941C1E909394
:10403000EC018093EB0108951F93CF93DF93809160
:10404000EB019091EC010E94281EAC019091EE01D1
:10405000992321F02091090130E006C020910A0146
:104060008AE0289F900111244217530708F46EC07C
:104070008091F001C091F101D091F2011091F30112
:10408000811107C0C1115EC0D1115CC011115AC0AD
:104090005DC09F3F19F09F5F9093EE01181624F4C6
:1040A0000E94A21E8093F0018091F00187FF05C05D
:1040B0000E94A21E81958093F0011C1624F40E9498
:1040C000A21E8093F1018091F10187FF05C00E943B
:1040D000A21E81958093F1014091F001442379F073
:1040E0003091F101332359F025EB4203A001112453
:1040F0005093F0013203C00111249093F1011D1679
:1041000024F40E94EB1E8093F2018091F20187FF5C
:1041100005C00E94EB1E81958093F201111624F4D4
:104120000E94EB1E8093F3018091F30187FF05C08D
:104130000E94EB1E81958093F301DF91CF911F9137
:104140000C9411209F3F09F0A6CFAECFDF91CF9105
:104150001F910895EFEEF1E085E0DF011D928A9551
:10416000E9F71092EE011092ED010895833081F18C
:1041700028F4813059F08230D1F00895853009F467
:1041800049C0B8F1863009F456C0089580910A01FB
:10419000262F30E0280F311D2F3F310524F4680F02
:1041A00060930A0108958FEF80930A01089580912A
:1041B0000901262F30E0280F311D2F3F310524F44F
:1041C000680F6093090108958FEF809309010895A6
:1041D00080910801262F30E0280F311D2F3F310537
:1041E00024F4680F6093080108958FEF809308010D
:1041F000089580910701262F30E0280F311D2F3FB1
:10420000310524F4680F6093070108958FEF8093C0
:104210000701089580910601262F30E0280F311DF7
:104220002F3F310524F4680F6093060108958FEF46
:1042300080930601089580910501262F30E0280F14
:10424000311D2F3F310524F4680F60930501089557
:104250008FEF809305010895833011F128F48130A8
:1042600049F0823091F00895853081F120F1863057
:10427000C1F1089580910A01681720F4861B80938C
:104280000A01089510920A010895809109016817A2
:1042900020F4861B80930901089510920901089566
:1042A00080910801681720F4861B80930801089507
:1042B00010920801089580910701681720F4861B69
:1042C00080930701089510920701089580910601D7
:1042D000681720F4861B809306010895109206014A
:1042E000089580910501681720F4861B80930501CD
:1042F00008951092050108950F931F938732D8F502
:104300008E3108F081C08E3009F46BC098F487308C
:1043100009F459C08B3009F48BC0863009F08FC086
:104320008091E901817F8E7F8093E90181E0809314
:10433000F50186C0863109F47BC068F4803109F04C
:104340007EC08091E90183FB222720F991E092272A
:1043500090FB83F94FC0893109F46AC08B3109F0B1
:104360006EC08091E90181FB222720F991E092271C
:1043700090FB81F93FC0883309F45AC050F4893268
:1043800009F458C0853309F455C0873209F452C086
:1043900056C0833409F44EC028F48A3308F44FC061
:1043A000895333C0883409F04AC00E944E170FEF7A
:1043B00013ED20E3015010402040E1F700C0000061
:1043C0000E94781E35C08091E901982F90959170D8
:1043D00090FB80F98093E90191112AC0897F877F42
:1043E00010C08091E90182FB222720F991E09227F9
:1043F00090FB82F98093E9019923D1F08091E90142
:1044000081608093E90114C08D5141E050E060E08B
:1044100070E08A019B0104C0000F111F221F331F8F
:104420008A95D2F7C901B8010E94241B0E944E1739
:1044300081E006C061E070E080E090E0F5CF80E0D0
:104440001F910F91089580E0089580E008958E51A6
:104450008A3030F4E82FF0E0E95DFE4F8081089566
:1044600080E00895CF93C82F8091F501813069F0E5
:1044700018F08230C9F183C0E0910301F09104018A
:104480008081823209F07DC007C0E0910301F09184
:1044900004018081823261F48C2F0E9423228111D9
:1044A00004C08C2F0E947C211DC081E090E01AC0C6
:1044B0008C2F0E942522811114C0C43179F048F458
:1044C000CB3079F0C03109F060C082E08093F50113
:1044D00008C0C93219F0C83321F057C01092F50155
:1044E00054C081E0817053C0C93289F118F5C431DC
:1044F00071F1B0F4C73009F046C08EE180930A0133
:1045000082E3809309018AE08093080184E180932B
:10451000070188E08093060188E28093050133C09B
:1045200082EE8C0F863078F58C2F0E9427228093A4
:10453000F40129C0CE34E9F020F4CB3421F56AE04F
:1045400013C0C13579F0C235F1F461E00DC080913E
:10455000F401882319F01092F40115C081E08093D2
:10456000F50115C061E006C08091F4010E94B620FB
:104570000AC06AE08091F4010E942C2104C01092CC
:10458000F50180E004C081E002C080E0ABCFCF91B4
:1045900008950E94341D811102C00E940E1D0E94C8
:1045A000551D80934102282F269530E02630310595
:1045B00024F081708A60809341028091410280FFE3
:1045C00002C0869501C080E00C94CC082091410285
:1045D000822F8695482F50E04530510544F48F5F77
:1045E000982F990F822F8170892B8093410280919F
:1045F00041028160809341020E94591D80914102D5
:1046000086950C94CC0880914102982F969591F054
:104610009158990F8170892B809341028E7F91E090
:1046200009F490E08091410290FB80F9809341026F
:104630000E94591D8091410286950C94CC0880916E
:104640004102982F909590FB80F980934102813030
:1046500019F483E080934102809141020E94591D28
:104660008091410280FF02C0869501C080E00C94D9
:10467000CC0890914102892F86958F5F8F7791703A
:10468000863028F4880F892B8093410202C09093D2
:104690004102809141028E7F91E009F490E0809187
:1046A000410290FB80F9809341020E94591D809144
:1046B000410286950C94CC08863008F085E0880F7E
:1046C000909141029170892B809341028E7F91E0FD
:1046D00009F490E08091410290FB80F980934102BF
:1046E0000E94591D8091410286950C94CC088091BE
:1046F0004102869508958091FE0108950F931F93BE
:10470000CF93DF9300D01F92CDB7DEB78C010E940C
:10471000CE25823011F0843019F593E099831B8304
:104720000A839093E9008FEF9091E800815095FD06
:1047300006C095ED9A95F1F700008111F5CF8091B3
:10474000E80085FF0DC040E050E063E070E0CE017E
:1047500001960E94EB258091E8008E778093E80017
:104760000F900F900F90DF91CF911F910F910895AF
:10477000CF93DF9300D01F92CDB7DEB720914602D2
:10478000243031F522E02983805891099B838A8364
:1047900083E08093E9008FEF9091E800815095FDD0
:1047A00006C095ED9A95F1F700008111F5CF809143
:1047B000E80085FF0DC040E050E063E070E0CE010E
:1047C00001960E94EB258091E8008E778093E800A7
:1047D0000F900F900F90DF91CF910895CF93DF93BB
:1047E000EC010E94CE25823011F08430F9F482E091
:1047F0008093E9009FEF8091E800915085FD06C00D
:1048000085ED8A95F1F700009111F5CF8091E800D0
:1048100085FF0CC040E050E065E070E0CE010E94F2
:10482000EB258091E8008E778093E800DF91CF91AF
:104830000895CF93DF93EC010E94CE25823011F0D2
:10484000843039F581E08093E9009FEF8091E800A2
:10485000915085FD06C085ED8A95F1F70000911114
:10486000F5CF8091E80085FF14C040E050E068E09B
:1048700070E0CE010E94EB259091E8009E77909326
:10488000E80098E0FE01A6EFB1E001900D929A9544
:10489000E1F7DF91CF91089580914502811109C020
:1048A0000E9480270E94DD278091E200846080932F
:1048B000E2000895109245020895089508950C9419
:1048C000E21D42E061EC81E00E94FA2642E061ECE8
:1048D00082E00E94FA2642E061EC83E00C94FA2622
:1048E00080914802833009F453C030F4813071F074
:1048F000823009F48CC008958A3009F478C08B3076
:1049000009F45EC0893009F09AC020C08091470246
:10491000813A09F094C08091E800877F8093E80095
:1049200080914B0290914C02892B21F468E086EF34
:1049300091E003C060E080E090E070E00E943626E5
:104940008091E8008B778093E8000895809147027A
:10495000813209F074C080914B0290914C02892BF6
:1049600009F06DC08091E800877F8093E800809116
:10497000E80082FD05C0809146028111F8CF5FC03A
:104980008091F1008093FE018091E8008B7753C005
:1049900080914702813A09F052C080914B02909178
:1049A0004C02892B09F04BC08091E800877F8093EF
:1049B000E8008091E80080FFFCCF8091150136C0AF
:1049C000809147028132D9F580914B0290914C023F
:1049D000892BA9F58091E800877F8093E8000E94E9
:1049E0002F2780914902809315010C944E178091D6
:1049F0004702813221F58091E800877F8093E800AB
:104A00000E942F2780914A028093FF010895809190
:104A10004702813AA1F48091E800877F8093E80003
:104A20008091E80080FFFCCF8091FF018093F1002E
:104A30008091E8008E778093E8000C942F270895EA
:104A400084B7877F84BF0FB6F894A89580916000E3
:104A5000886180936000109260000FBE80E88093B0
:104A60006100109261000E94F6110E9480270E944E
:104A7000DD278091E20084608093E20078940E94B8
:104A80006C2A0E94FA118BE091E00E94A3118091A0
:104A90004602853069F40E949D1D8091440288235E
:104AA000B1F30E94CE1D882391F30E94D525EFCF4C
:104AB0000E9404120E943711EACF0C945F25292F1F
:104AC000332723303105C9F064F42130310581F0FA
:104AD0002230310509F049C084E590E024E834E053
:104AE00048C02132310521F12232310571F13DC03A
:104AF00082E190E028ED34E03CC0992781309105B7
:104B000071F02CF4892B89F5E0E8F4E00DC08230D7
:104B1000910541F0039749F5EEE4F4E005C0EEE6B7
:104B2000F4E002C0E4E5F4E0849190E09F0121C04C
:104B300063307105D0F4660F771FFB01E65CFE4F12
:104B40002081318189E090E014C06330710568F400
:104B5000FB01EE0FFF1FEC5CFE4F20813181FB015A
:104B6000EF5CFE4F808190E004C080E090E020E0A8
:104B700030E0FA013183208308950895CF93C82F40
:104B80000E94BD25C0930002CF91089580914602F6
:104B9000843011F081E0089582E008958091000250
:104BA000811102C00C94C625089580E189BD82E17F
:104BB00089BD09B400FEFDCF8091D8008F7D809320
:104BC000D8008091E00082608093E0008091E00056
:104BD00081FDFCCF0895CF92DF92EF92FF920F9369
:104BE0001F93CF93DF93EC018B016A010E944E2744
:104BF000811133C0C114D10439F0F6018081918153
:104C0000081B190BC80FD91FE12CF12C0115110538
:104C100019F18091E80085FD16C08091E8008E773B
:104C20008093E800C114D10449F0F601808191819C
:104C3000E80EF91EF182E08285E00FC00E944E2747
:104C4000882321F30AC089918093F1000150110952
:104C5000FFEFEF1AFF0ADACF80E0DF91CF911F91CB
:104C60000F91FF90EF90DF90CF90089520914D022B
:104C700030914E022617370748F06115710539F457
:104C80002091E8002E772093E80001C0B90140E0B0
:104C900061157105A9F120914602222309F443C050
:104CA000253009F442C02091E80023FD40C0209146
:104CB000E80022FD32C02091E80020FFE9CF4091BA
:104CC000F3002091F20030E0342BFC01CF0161159C
:104CD000710559F02830310540F481918093F1003D
:104CE000615071092F5F3F4FF1CF41E0283031050E
:104CF00009F040E02091E8002E772093E800C8CF2B
:104D00004111C9CF0AC080914602882361F08530E5
:104D100061F08091E80083FD0AC08091E80082FF85
:104D2000F2CF80E0089582E0089583E0089581E065
:104D3000089520914D0230914E022617370748F012
:104D40006115710539F42091E8002E772093E80071
:104D500001C0B901FC0120E06115710591F180915C
:104D60004602882309F440C0853009F43FC0809191
:104D7000E80083FD3DC08091E80082FD2FC0809156
:104D8000E80080FFE9CF2091F3008091F20090E0ED
:104D9000922B6115710559F08830910540F42491EA
:104DA0002093F1003196615071090196F2CF21E014
:104DB000089709F020E08091E8008E778093E80062
:104DC000CBCF2111CCCF0AC080914602882361F05D
:104DD000853061F08091E80083FD0AC08091E80091
:104DE00082FFF2CF80E0089582E0089583E0089585
:104DF00081E00895982F973058F59093E90098171F
:104E000039F07091EC002091ED005091F00003C05A
:104E1000242F762F50E021FF19C03091EB003E7F08
:104E20003093EB003091ED003D7F3093ED003091F9
:104E3000EB0031603093EB007093EC002093ED00B9
:104E40005093F0002091EE0027FF07C09F5FD3CF63
:104E50008F708093E90081E0089580E0089580914B
:104E6000470287FF11C08091E80082FD05C0809154
:104E700046028111F8CF11C08091E8008B770BC0FA
:104E800080914602882349F08091E80080FFF8CFA6
:104E90008091E8008E778093E80008952091E400E7
:104EA0003091E50095E64091EC00842F817040FF41
:104EB00022C08091E80080FD1CC0809146028823BA
:104EC00091F0853091F08091EB0085FD10C040910C
:104ED000E4005091E5004217530729F39A019150DD
:104EE00011F784E0089582E0089583E0089581E059
:104EF000089580E008954091E80042FFDECF0895D4
:104F00000E94EE270E94F627E0EEF0E080818160AB
:104F10008083E8EDF0E080818F77808319BCA7ED76
:104F2000B0E08C918E7F8C9380818F7E80831092F5
:104F3000450208950F931F93CF93DF930E94EE27AE
:104F40000E94F627C8EDD0E088818F77888388811A
:104F50008068888388818F7D888319BC109246027F
:104F600010924202109244021092430200EE10E0AE
:104F7000F80180818B7F808388818160888342E013
:104F800060E080E00E94FA26E1EEF0E080818E7F12
:104F90008083E2EEF0E080818160808380818860A0
:104FA0008083F80180818E7F8083888180618883FF
:104FB000DF91CF911F910F910895E8EDF0E080818E
:104FC0008F7E8083E7EDF0E080818160808384E0E4
:104FD00082BF81E0809345020C949A27E8EDF0E0CF
:104FE00080818E7F80831092E20008951092DA0013
:104FF0001092E10008951F920F920FB60F921124A4
:105000002F933F934F935F936F937F938F939F93D0
:10501000AF93BF93EF93FF938091E10082FF0BC0AA
:105020008091E20082FF07C08091E1008B7F809336
:10503000E1000E946B2A8091DA0080FF1FC08091FE
:10504000D80080FF1BC08091DA008E7F8093DA0049
:105050008091D90080FF0DC080E189BD82E189BDCA
:1050600009B400FEFDCF81E0809346020E944C24EB
:1050700005C019BC109246020E945A248091E1009A
:1050800080FF19C08091E20080FF15C08091E2008E
:105090008E7F8093E2008091E20080618093E20045
:1050A0008091D80080628093D80019BC85E08093FD
:1050B00046020E945E248091E10084FF30C080910E
:1050C000E20084FF2CC080E189BD82E189BD09B482
:1050D00000FEFDCF8091D8008F7D8093D800809115
:1050E000E1008F7E8093E1008091E2008F7E8093CB
:1050F000E2008091E20081608093E20080914202B0
:10510000882311F084E007C08091E30087FD02C08E
:1051100081E001C083E0809346020E945F24809179
:10512000E10083FF29C08091E20083FF25C08091C8
:10513000E100877F8093E10082E080934602109235
:1051400042028091E1008E7F8093E1008091E20035
:105150008E7F8093E2008091E20080618093E20084
:1051600042E060E080E00E94FA268091F0008860D2
:105170008093F0000E945D24FF91EF91BF91AF9169
:105180009F918F917F916F915F914F913F912F915F
:105190000F900FBE0F901F9018951F920F920FB691
:1051A0000F9211242F933F934F935F936F937F93AD
:1051B0008F939F93AF93BF93CF93DF93EF93FF931F
:1051C000C091E900CF708091EC00D82FD17080FDA4
:1051D000D0E81092E9008091F000877F8093F00082
:1051E00078940E9411291092E9008091F000886063
:1051F0008093F000CD2BCF70C093E900FF91EF9129
:10520000DF91CF91BF91AF919F918F917F916F91DE
:105210005F914F913F912F910F900FBE0F901F9074
:1052200018951F93CF93DF93CDB7DEB7AA970FB62C
:10523000F894DEBF0FBECDBFE7E4F2E088E08E0F4A
:105240009091F10091938E13FBCF0E947024809176
:10525000E80083FF28C18091470290914802492FBE
:1052600050E04A30510508F01EC1FA01E556FF4FE3
:105270000C94F82D803821F0823809F014C108C050
:105280008091430290914402992389F082600FC07B
:1052900080914B028F70873008F005C18093E90040
:1052A0008091EB0085FB882780F91092E9009091AE
:1052B000E800977F9093E8008093F1001092F1004E
:1052C000D0C0282F2D7F09F0EEC0882319F082303E
:1052D00061F0E9C080914902813009F0E4C0933067
:1052E00009F080E0809344022EC080914902811130
:1052F0002AC080914B028F702FEF280F263008F0C4
:10530000D2C08093E9002091EB0020FF1CC09330B5
:1053100021F48091EB00806214C09091EB009061C9
:105320009093EB0021E030E0A90102C0440F551F2B
:105330008A95E2F74093EA001092EA008091EB0030
:1053400088608093EB001092E9008091E800877FED
:105350008093E8000E942F27A6C08111A4C010915D
:1053600049021F778091E3008078812B8093E300CE
:105370008091E800877F8093E8000E942F2780912A
:10538000E80080FFFCCF8091E30080688093E30019
:10539000111102C082E001C083E08093460283C005
:1053A0008058823008F07FC08091490290914A0273
:1053B0008C3D53E0950779F583E08A838AE28983FF
:1053C0004FB7F894DE01139620E03EE051E2E32F60
:1053D000F0E050935700E49120FF03C0E295EF7096
:1053E0003F5FEF708E2F90E0EA3010F0C79601C05B
:1053F000C0968D939D932F5F243149F74FBF8091C5
:10540000E800877F8093E8006AE270E0CE010196B1
:105410000E94362615C060914B0270914C02AE017D
:105420004F5F5F4F0E945D25BC01892BE1F1909198
:10543000E800977F9093E80089819A810E949926DD
:105440008091E8008B778093E8002DC0803859F573
:105450008091E800877F8093E800809142028093EA
:10546000F1008091E8008E7773CF81111CC090917C
:1054700049029230C0F48091E800877F8093E80071
:10548000909342020E942F2780914202811106C010
:105490008091E30087FD02C081E001C084E0809339
:1054A00046020E9461248091E80083FF0AC0809137
:1054B000E800877F8093E8008091EB008062809312
:1054C000EB00AA960FB6F894DEBF0FBECDBFDF91FA
:1054D000CF911F9108950895CF938091460288231C
:1054E000A1F0C091E900CF709091EC00892F8170FC
:1054F00090FD80E8C82B1092E9008091E80083FDC0
:105500000E941129CF70C093E900CF91089550589F
:10551000BB27AA270E949F2A0C944A2C0E943C2C4D
:1055200038F00E94432C20F039F49F3F19F426F400
:105530000C94122C0EF4E095E7FB0C940C2CE92F44
:105540000E945B2C58F3BA1762077307840795070C
:1055500020F079F4A6F50C947D2C0EF4E0950B2E3A
:10556000BA2FA02D0B01B90190010C01CA01A001B5
:105570001124FF27591B99F0593F50F4503E68F110
:105580001A16F040A22F232F342F4427585FF3CF51
:10559000469537952795A795F0405395C9F77EF422
:1055A0001F16BA0B620B730B840BBAF09150A1F06B
:1055B000FF0FBB1F661F771F881FC2F70EC0BA0FF1
:1055C000621F731F841F48F4879577956795B79579
:1055D000F7959E3F08F0B0CF9395880F08F0992774
:1055E000EE0F9795879508950E94082B0C944A2CEE
:1055F0000E94432C58F00E943C2C40F029F45F3F5D
:1056000029F00C940C2C51110C947E2C0C94122C1F
:105610000E945B2C68F39923B1F3552391F3951BFA
:10562000550BBB27AA2762177307840738F09F5FC3
:105630005F4F220F331F441FAA1FA9F335D00E2E30
:105640003AF0E0E832D091505040E695001CCAF79D
:105650002BD0FE2F29D0660F771F881FBB1F261760
:1056600037074807AB07B0E809F0BB0B802DBF0137
:10567000FF2793585F4F3AF09E3F510578F00C9406
:105680000C2C0C947E2C5F3FE4F3983ED4F386956B
:1056900077956795B795F7959F5FC9F7880F911D27
:1056A0009695879597F90895E1E0660F771F881F13
:1056B000BB1F621773078407BA0720F0621B730BC6
:1056C000840BBA0BEE1F88F7E095089529F416F0C5
:1056D0000C940C2C0C947D2C0C94122C0E94632C9A
:1056E000A8F39638A0F707F80F92E8942BE33AEA6C
:1056F00048EB5FE70E94102D0F920F920F924DB76B
:105700005EB70F920E94C62CEAE4F1E00E94152CCD
:105710004F915F91EF91FF91E595EE1FFF1F49F0CB
:10572000FE57E0684427EE0F441FFA95E1F74195D4
:10573000550B0E94902C0F9007FE0C94842C08951A
:105740000E94632C88F09F5798F0B92F9927B75182
:10575000B0F0E1F0660F771F881F991F1AF0BA9515
:10576000C9F714C0B13091F00E947D2CB1E00895CA
:105770000C947D2C672F782F8827B85F39F0B93FBC
:10578000CCF3869577956795B395D9F73EF49095C8
:105790008095709561957F4F8F4F9F4F0895E89446
:1057A00009C097FB3EF490958095709561957F4F69
:1057B0008F4F9F4F9923A9F0F92F96E9BB27939517
:1057C000F695879577956795B795F111F8CFFAF427
:1057D000BB0F11F460FF1BC06F5F7F4F8F4F9F4F58
:1057E00016C0882311F096E911C0772321F09EE8B6
:1057F000872F762F05C0662371F096E8862F70E01C
:1058000060E02AF09A95660F771F881FDAF7880FF5
:105810009695879597F9089597F99F6780E870E0C6
:1058200060E008959FEF80EC0895DF93CF931F937E
:105830000F93FF92EF92DF927B018C01689406C078
:10584000DA2EEF010E940D2DFE01E894A59125911D
:10585000359145915591A6F3EF010E949F2AFE01D3
:105860009701A801DA9469F7DF90EF90FF900F910C
:105870001F91CF91DF91089500240A941616170600
:1058800018060906089500240A9412161306140631
:1058900005060895092E0394000C11F4882352F094
:1058A000BB0F40F4BF2B11F460FF04C06F5F7F4F4C
:1058B0008F4F9F4F089557FD9058440F551F59F033
:1058C0005F3F71F04795880F97FB991F61F09F3FED
:1058D00079F087950895121613061406551FF2CF16
:1058E0004695F1DF08C0161617061806991FF1CF66
:1058F00086957105610508940895E894BB2766278D
:105900007727CB0197F908959B01AC0160E070E027
:1059100080E89FE30C94F42A0C940C2C0C946F2DCB
:105920000E94632CD8F39923C9F3940F511DA3F35C
:105930009150504094F059F0882332F0660F771F51
:10594000881F91505040C1F79E3F51052CF7880F9A
:10595000911D9695879597F908955F3FACF0983E15
:105960009CF0BB27869577956795B79508F4B1604D
:105970009395C1F7BB0F58F711F460FFE8CF6F5F45
:105980007F4F8F4F9F4FE3CF0C947E2CFA01DC01A9
:10599000AA0FBB1F9B01AC01BF5728F42227332756
:1059A0004427507820C0B75190F4AB2F002446957F
:1059B00037952795011CA395D2F3002071F0220F93
:1059C000331F441FB395DAF30ED00C94872A61304D
:1059D0007105A0E88A07B94630F49B01AC0166273F
:1059E000772788279078309621F02083318342836F
:1059F000538308950E940D2D0C944A2C0E943C2C38
:105A000038F00E94432C20F0952311F00C940C2CBC
:105A10000C94122C11240C947E2C0E945B2C70F39D
:105A2000959FC1F3950F50E0551F629FF001729F43
:105A3000BB27F00DB11D639FAA27F00DB11DAA1F52
:105A4000649F6627B00DA11D661F829F2227B00D9F
:105A5000A11D621F739FB00DA11D621F839FA00D2A
:105A6000611D221F749F3327A00D611D231F849F7A
:105A7000600D211D822F762F6A2F11249F575040D1
:105A80009AF0F1F088234AF0EE0FFF1FBB1F661F4C
:105A9000771F881F91505040A9F79E3F510580F015
:105AA0000C940C2C0C947E2C5F3FE4F3983ED4F3C2
:105AB000869577956795B795F795E7959F5FC1F7B9
:105AC000FE2B880F911D9695879597F908959F93C2
:105AD0000E947F2D0F9007FCEE5F0C94A82D9F3F36
