:100000000C941D030C9485050C9464030C946403F8
:100010000C9464030C9464030C9464030C946403C4
:100020000C9464030C9464030C94D6270C94A828B5
:100030000C94D01D0C9464030C9464030C9464031E
:100040000C9464030C9464030C9464030C94640394
:100050000C9464030C94381E0C9464030C94640395
:100060000C9464030C9464030C9464030C94640374
:100070000C9464030C9464030C9464030C94640364
:100080000C9464030C9464030C9464030C94640354
:100090000C9464030C9464030C9464030C94640344
:1000A0000C9464030C9464030C946403F006F2064D
:1000B000FD06F406F606F806FA06FC06FF0601073A
:1000C00003070E070507070709070B070D071007AA
:1000D0006A146A149C149C14D614F4147C167C16AE
:1000E00036157C16D915D9154B1654167C1675166F
:1000F000E615E615E615E615E615E615E615E61528
:10010000E615E615E615E615E615E615E615E61517
:10011000F71505160C1613161D160D170D171F17BC
:100120001F1716171F171F171F170D170D171B1750
:100130001F171F171B1715293C29342A3C29342A5D
:100140008829AB29342A022A112A07634236B79B31
:10015000D8A71A39685618AEBAAB558C1D3CB7CC27
:100160005763BD6DEDFD753EF6177231BF0000009F
:10017000803F05A84CCDB2D44EB93836A9020C50F8
:10018000B9918688083CA6AAAA2ABE000000803F32
:10019000155C1E001F0020002100220000002B0023
:1001A00014001A000800150017000000394204006E
:1001B0001600070009000A000000E1001D001B00F6
:1001C0000600190005000000E000E300E200010065
:1001D00003512C000251280027002600250024008E
:1001E000230000003100130012000C0018001C0056
:1001F0000000340033000F000E000D000B00000063
:10020000E500380037003600100011000000010042
:1002100001000100010001002A000251000000005D
:1002200000000000000000000000000000000000CE
:1002300000000000000000000000000000000000BE
:1002400000000000000000000000000000000000AE
:10025000000000000000000000000000000000009E
:10026000000000000000000000000000000000008E
:10027000000000000000000000000000000000007E
:10028000000000000000000000000000000000006E
:10029000000000000000000000000000000000005E
:1002A00000000000000000003A003B003C003D0060
:1002B0003E003F00000001004A0052004D004B008C
:1002C000010000000100500051004F004E000100ED
:1002D0000000E10001000100010001000100000038
:1002E000E000E300E2004C0003512C000251450005
:1002F0004400430042004100400000000100300083
:100300002F0001002E002D000000010030022F02FE
:1003100001000100010000000100010001000100D6
:1003200001000100000001000100010001004C007B
:100330002A0002513A003B003C003D003E003F00D5
:1003400000000100BF5CC15CC05C005CA900000053
:100350000100BE5CC25CBD5C0100AA000000E100BF
:100360000100010001000100A8000000E000E3001E
:10037000E200010003512C000251450044004300FB
:1003800042004100400000004A0049004E00520077
:100390004B00300000004D004C004F005100500059
:1003A00001000000AB00AC00AE0001000100145CD5
:1003B0000000010001000100010001002A000251BB
:1003C0006801F000B40078005A007F3F1F643214C7
:1003D000643214783C1E1E140A050000000000015F
:1003E00001010101010101010202020202020202F5
:1003F00002030303030303030304040404040405C6
:100400000505050506060606060707070708080886
:10041000080909090A0A0A0A0B0B0B0C0C0C0D0D32
:100420000D0E0E0F0F0F10101111111212131314C5
:1004300014151516161717181819191A1A1B1C1C3B
:100440001D1D1E1F1F202021222223242525262793
:100450002728292A2B2B2C2D2E2F2F3031323334C5
:100460003536363738393A3B3C3D3E3F40414243D2
:1004700044464748494A4B4C4D4F505152535556AC
:1004800057585A5B5C5E5F606263646667696A6C5A
:100490006D6E707173747678797B7C7E80818384D5
:1004A00086888A8B8D8F91929496989A9B9D9FA116
:1004B000A3A5A7A9ABADAFB1B3B5B7B9BBBDBFC11C
:1004C000C4C6C8CACCCFD1D3D6D8DADCDFE1E4E6E3
:1004D000E8EBEDF0F2F5F7FAFCFF04033000000062
:1004E0001803500072006F006A006500630074001A
:1004F00020005A0065006E00000010034C006500EB
:1005000067006F006E0075007400000004030904AA
:1005100009025400030100A0FA09040000010301CC
:100520000100092111010001224000070581030893
:10053000000A090401000103010200092111010060
:1005400001224D000705820308000A090402000188
:100550000300000009211101000122360007058374
:100560000308000A1201100100000008EBCE561229
:1005700000020102030105010980A10185021601A3
:10058000002603001A81002A83007510950181005E
:10059000C0050C0901A1018503160100269C021A61
:1005A00001002A9C02751095018100C00501090215
:1005B000A1010901A100050919012905150025015D
:1005C00095057501810295017503810105010930C9
:1005D00009311581257F9502750881060938158135
:1005E000257F950175088106050C0A3802158125BD
:1005F0007F950175088106C0C005010906A10105A6
:100600000719E029E7150025019508750181029574
:1006100001750881010508190129059505750191E4
:10062000029501750391010507190029FF150026A0
:10063000FF00950675088100C00011241FBECFEF92
:10064000DAE0DEBFCDBF04B603FE27C080914F02C3
:1006500090915002A0915102B09152028730904B7C
:10066000A740B04BD1F410924F021092500210925A
:1006700051021092520214BE84B7877F84BF0FB616
:10068000F894A89580916000886180936000109232
:1006900060000FBEE0E0F8E3099511E0A0E0B1E0F2
:1006A000E2E5FCE502C005900D92A034B107D9F750
:1006B00022E0A0E4B1E001C01D92AF34B207E1F73F
:1006C0000E9401250C94272E0C940000CF93DF93F9
:1006D0008091E901836088608093E901ADE1B1E038
:1006E00042E251E061E070E08D91E82FE295EF7019
:1006F000F0E021A18F70EB0102C0CC0FDD1F8A95C5
:10070000E2F7CE019C2F9095922391A392A1892B81
:1007100082A34A175B0741F7A6E1B1E04DE151E042
:1007200061E070E08D91E82FE295EF70F0E021A19B
:100730008F70EB0102C0CC0FDD1F8A95E2F7CE016E
:100740009C2F9095922391A392A1892B82A34A1763
:100750005B0741F7559A209AE0E4F1E0ABE4B1E0A1
:100760008AE491E011921D928E179F07D9F7DF91CD
:10077000CF9108952F923F924F925F926F927F9206
:100780008F929F92AF92BF92CF92DF92EF92FF92A1
:100790000F931F93CF93DF9300D000D0CDB7DEB778
:1007A00080910001811103C005E010E002C000E06B
:1007B00010E08DE1C82E81E0D82E9801255B3E4FD8
:1007C000790192E2892E91E0992E3C832B83AA2411
:1007D000A394B12C34E0732E6B817C81DB014C90AF
:1007E0001C92F60181916F01E82FE295EF70F0E025
:1007F00021A18F70A50102C0440F551F8A95E2F711
:10080000CA01242B21A322A1642E6094262122A3B5
:1008100050EA5A95F1F7A6E1B1E0BA83A98320E046
:1008200030E0A981BA815D90BA83A983452D4295B4
:100830004F7050E0DA0190962C90AB81BC813C90D7
:10084000452D4F70D50102C0AA0FBB1F4A95E2F794
:10085000AD01422139F44A2D022E01C0440F0A9401
:10086000EAF701C040E0342AAB81BC813C922F5FA3
:100870003F4F27303105A9F691A1692261A292A1CB
:10088000892B82A31196BC83AB83FB018081481620
:1008900061F0F1E0F09355010E94021E9093570120
:1008A000809356018BB187258BB98C149D0409F078
:1008B00093CF809155018823A9F0809156019091A2
:1008C00057010E940E1E069768F0F801E05CFE4F8B
:1008D00080E0D7019D917D0191938F5F8530C9F7AD
:1008E0001092550181E00F900F900F900F90DF91C3
:1008F000CF911F910F91FF90EF90DF90CF90BF901D
:10090000AF909F908F907F906F905F904F903F90AF
:100910002F9008950F931F93CF93DF938091000141
:10092000811103C0C0E0D0E002C0C5E0D0E00E9469
:10093000EA058C01892B91F4C05CDE4F80E090E0E9
:10094000FC01E65AFE4F20812993019685309105DE
:10095000B9F70E9458238093590102C001E010E0CA
:10096000C801DF91CF911F910F910895CF930E94FD
:10097000BA03C82F0E948A04892BD9F05D98809110
:100980004A018F5F80934A018630B0F08091000168
:10099000811103C0E0E0F0E002C0E5E0F0E0E05CDF
:1009A000FE4F80E090E01192019685309105D9F7D5
:1009B00003C05D9A10924A018C2FCF9108950E9436
:1009C000BA0380910001811103C0E5E0F0E002C0AC
:1009D000E0E0F0E0E05CFE4F80E090E02191DC019F
:1009E000A65ABE4F2C93019685309105B9F7809198
:1009F00059010C94F308E82FF0E0E05CFE4F808191
:100A000008950895E8EDF0E08081806180838AE1B7
:100A10008A95F1F700C08091D900817008950E94F5
:100A2000020591E08927809300010E940205882336
:100A300019F00E94780504C00E94F91D0E947C05EF
:100A4000789408950E9466030E94DF04FDCF0E94FF
:100A50000F050E940205811102C00E94220508951F
:100A6000509A08955098589A0895589A08950E9457
:100A70003205489BFECF80E88A95F1F708950E94E1
:100A8000320598E080E029B1880F2170822B20E8A0
:100A90002A95F1F725E02A95F1F70000915099F792
:100AA00008950F931F93CF93082F0E943005C8E03D
:100AB00010E0C15088F0C8010C2E02C095958795B2
:100AC0000A94E2F780FF03C00E94350501C05898E0
:100AD00080E88A95F1F7EDCFCF911F910F9108959E
:100AE0000E943005589880E88A95F1F70C943505F6
:100AF0000E9430050C9435050E943205E89AE9E61B
:100B0000F0E080818C7F808308951F920F920FB652
:100B10000F921124EF92FF921F932F933F934F93C5
:100B20005F936F937F938F939F93AF93BF93CF9375
:100B3000DF93EF93FF930E947005C0E0D0E010E0D8
:100B4000CE01865A9E4F7C01FC0180810E94510596
:100B50000E947005F7018081180F2196C530D105DC
:100B600079F7812F0E9451050E947005F0E8FA95EF
:100B7000F1F780E48A95F1F70E943F0580935901CF
:100B80000E947005C09159010E943F05D82F0E9414
:100B900070050E94320580915801DC1711F08160C8
:100BA00001C08E7F80935801FF91EF91DF91CF912B
:100BB000BF91AF919F918F917F916F915F914F9175
:100BC0003F912F911F91FF90EF900F900FBE0F90CC
:100BD0001F901895EF92FF921F93CF93DF93F89495
:100BE0000E943005589825E02A95F1F700000E94F0
:100BF00032050E94350530E83A95F1F7489930C042
:100C00000E943705C0E0D0E010E00E943F05FE01E1
:100C1000E65AFE4F7F0180830E943705F7018081ED
:100C2000180F2196C530D10581F70E943F05C82FC6
:100C30000E9437051C1314C0809159010E94510570
:100C40000E943705809159010E9451050E94370585
:100C50000E9430050E943505789480E090E003C042
:100C6000789481E090E0DF91CF911F91FF90EF9019
:100C70000895CF93DF93EC010E94231DBE0180E015
:100C800090E0DF91CF910C94011B823D9C4551F483
:100C9000FB018281882339F081E090E00E943906CF
:100CA00080E0089581E0089581E008950C94450660
:100CB0000E94F9162FEF84E39CE021508040904081
:100CC000E1F700C0000087E797E790930108809361
:100CD00000080C945E1E0F931F93CF93DF938C013B
:100CE000FC01C081D181CE010E94FF1BBE010E9488
:100CF000FD08EC01B8010E945606882309F46CC275
:100D0000B801CE010E949C0B882309F465C2C23C45
:100D1000FCE5DF0741F4F8018281882309F45CC215
:100D20000E942E0E59C2C33C8CE5D80708F014C1AE
:100D3000CB3B9CE5D90761F4F8018281882309F453
:100D40004BC20E94B11C8272E1F00E94CD0E44C2DF
:100D5000CC3BECE5DE07C0F0CE3B9CE5D90709F4BF
:100D6000CCC008F0DEC0CC3BFCE5DF0709F0CDC00D
:100D7000F8018281882309F42FC20E94B11C82727B
:100D800021F30E94C30E28C2C531FCE5DF0708F03D
:100D90007DC0C2308CE5D80708F452C0F8018281CA
:100DA000882309F459C00E94101D811102C00E94BD
:100DB000EA1C0E94281D90E09093400280933F021D
:100DC000FE01E350FC45E231F10530F4EA5AFF4FF1
:100DD00080913F020C94D92D80913F02816027C001
:100DE000826025C0846023C0806121C080621FC0F2
:100DF00080641DC080681BC08460886018C08E7FBE
:100E000016C08D7F14C08B7F12C08F7E10C08F7D67
:100E10000EC08F7B0CC08F770AC08B7F877F07C087
:100E200087FB222720F991E0922790FB87F9809396
:100E30003F0280913F020E942C1D0E94F916CCC1F6
:100E4000C1159CE5D90779F0C130DC45A1F081E0FE
:100E50008093640180936501C801DF91CF911F9158
:100E60000F910C945406F8018281882309F4B4C1CF
:100E70000E945806B1C1F8018281882309F4ACC1EF
:100E80008091E90181608093E901A6C1C531FCE54B
:100E9000DF0739F50E94B11C982FF801828120915B
:100EA000030130910401882379F09A7A81E009F4F2
:100EB00080E080935F01911102C069E201C065E3A7
:100EC000C9010E946E1D0AC080915F01811102C09C
:100ED00069E201C065E3C9010E94701D0E947E1C89
:100EE0007BC1CA3BDC4509F0B2CFF801828188237F
:100EF00009F472C10E94D60E6FC1F8018281882365
:100F000009F46AC10E94BF0D67C1CD3BDC4509F001
:100F10009ECFF8018281882309F45EC10E94A70D4B
:100F20005BC1F8018281C03CFCE5DF0731F4882316
:100F300009F452C10E94F90D4FC1C13CDC4530F4A7
:100F4000882309F449C10E94DE0D46C1882309F4B3
:100F500043C10E94130E40C1C93CECE5DE0749F4D1
:100F6000F8018281882309F437C188E10E94480E84
:100F700033C1CA3CFCE5DF0708F088C0C53C8CE5FE
:100F8000D807B1F4F8018281882309F425C10E94B1
:100F90007C0C663071058105910540F00E947C0C47
:100FA000683071058105910508F4EBCE86E0DECF4F
:100FB000C63C9CE5D90728F5C33CECE5DE0739F4CF
:100FC000F8018281882309F407C181E0CFCFC43CB6
:100FD000DC4509F03CCFF8018281882309F4FCC08C
:100FE0000E947C0C623071058105910540F00E94E1
:100FF0007C0C653071058105910508F4C2CE82E054
:10100000B5CFF8018281C73CFCE5DF07A1F4882356
:1010100009F4E2C00E947C0C6F30710581059105D6
:1010200040F00E947C0C643171058105910508F443
:10103000A8CE8FE09BCFC83CDC45A0F4882309F400
:10104000CBC00E947C0C693071058105910540F090
:101050000E947C0C6E3071058105910508F491CEDB
:1010600089E084CF882309F4B7C00E947C0C6531E5
:1010700071058105910540F00E947C0C6731710576
:101080008105910508F47DCE85E170CFCC3CECE57F
:10109000DE0739F5F8018281882361F0109265013D
:1010A0000E94021E909363018093620180E20E947D
:1010B000271492C08091650181110FC08091620157
:1010C000909163010E940E1E8436910530F487E2F0
:1010D0000E94C61287E20E94C81380E20E942E146A
:1010E0007BC0CD3CFCE5DF0708F041C0CA3C8CE585
:1010F000D807B1F4F8018281882309F46DC00E94F9
:101100007C0C693171058105910540F00E947C0CD1
:10111000623271058105910508F433CE89E126CF4D
:10112000CB3CDC4509F093CEF8018281882351F055
:10113000109264010E94021E9093610180936001ED
:1011400082E0B5CF8091640181110FC08091600170
:10115000909161010E940E1E8436910530F486E262
:101160000E94C61286E20E94C81382E0B7CFC03D3B
:10117000ECE5DE0731F4F8018281882369F180E033
:1011800009C0C13DFCE5DF0741F4F80182818823F5
:1011900019F182E00E949D251FC0CD3CDC4509F07D
:1011A00056CEF8018281811179CF8091650181113C
:1011B00094CF80916201909163010E940E1E84364B
:1011C000910508F08ACF80E20E942E1488E20E94E6
:1011D000C61288E20E94C81380E0DF91CF911F9170
:1011E0000F91089508950C94F2080C94F2080C9451
:1011F000F50880E090E00895089526E4829FC001FC
:101200001124FC0127E0729FE00DF11D1124E60F6F
:10121000F11DEE0FFF1FE057FE4F85919491089549
:10122000880F991FFC01E054FC4F8591949108951B
:10123000CF93DF930E94FD080E94F30AEC01811511
:1012400021E5920708F042C0811540E5940708F0B7
:101250001CC1883E910500F5803E910508F0BFC194
:10126000883A910570F4853A910508F099C081306B
:10127000910509F4B4C108F46BC1049708F0AFC13B
:1012800067C18D3B910508F496C0803C910508F438
:101290005FC1805C9109E8C0C11580E3D80780F484
:1012A000C11520E2D20708F0DDC0C03FD10508F427
:1012B0004FC1CF3FD10511F008F091C1D0658FC16A
:1012C000C11540E4D40708F0DDC0D2C0C11589E5DE
:1012D000D80740F5C11528E5D20708F023C1C1158C
:1012E00044E5D40778F4C11583E5D80708F0FFC0BA
:1012F000C11522E5D20708F0E4C0DC2FCC27C16F6E
:10130000D06A6DC1C11545E5D40708F406C1C11501
:1013100086E5D80708F01CC1CF71DD27DC2FCC276C
:10132000D0625DC1C53B2CE5D20709F408C1C0F409
:10133000C33B8CE5D80709F4FCC008F0FDC0C1151B
:101340004AE5D40708F004C1CE0124E096958795BC
:101350002A95E1F78F70CF70C06ED0E0D06AE7C0F9
:10136000C83B8CE5D80709F4F0C060F4C63B4CE5F7
:10137000D40709F4E7C0C73BDC4509F0E9C0C0E089
:10138000D2ED2DC1CE0190568115904208F0E0C0FB
:101390008D2F8F710E946F0BDD27D0628F71C7C0B8
:1013A000853A910509F4D7C0863A910509F0D6C06F
:1013B000C2E8D0E414C1883A910509F4D2C0893A50
:1013C000910509F4D1C08A3A910509F4D0C08B3A4D
:1013D000910509F4CFC08C3A910509F4CEC08B3B3E
:1013E000910509F4CDC08C3B910509F4CCC08D3A30
:1013F000910509F4CBC0803B910509F4CAC08E3A2F
:10140000910509F4C9C08F3A910509F4C8C0813B20
:10141000910509F4C7C0823B910509F4C6C0833B1E
:10142000910509F4C5C0843B910509F4C4C0853B0E
:10143000910509F4C3C0863B910509F4C2C0873BFE
:10144000910509F4C1C0883B910509F4C0C0893BEE
:10145000910509F4BFC08A3B910509F4BEC0C0E004
:10146000D4E4BDC0CE019F700E941009EC01B7C04A
:10147000CE019927D3FF03C0EC01D86CB0C0EC01BA
:10148000D06CADC0DF70D06AAAC074E09695879525
:101490007A95E1F7282F23703C2F337081E090E09C
:1014A00002C0880F991F3A95E2F79C68922BCF7083
:1014B000C695C69540E2C49FE0011124C82BD92BE4
:1014C0008EC0CE018370992721E030E002C0220F48
:1014D000331F8A95E2F78C2F8695869540E2849F8C
:1014E000C0011124E901C82BD92BDC6878C0CE01DA
:1014F0008370992721E030E002C0220F331F8A95C4
:10150000E2F78C2F8695869540E2849FC0011124D6
:10151000E901C82BD92BDA6862C0DC2FCC27C46F55
:10152000D06A5DC0DC2FCC27C06FD06A58C0D82BE2
:1015300056C0C0E0D4ED53C0C0E0D5ED50C0C0E00F
:10154000D1ED4DC0C0E0D0ED4AC0C0E0D3ED47C002
:10155000C0E0D0E044C0C1E8D0E441C0C3E8D0E47A
:101560003EC0C2EED4E43BC0C9EED4E438C0CAEEFB
:10157000D4E435C0C5EBD4E432C0C6EBD4E42FC00C
:10158000C3EBD4E42CC0C4EBD4E429C0C7EBD4E44F
:1015900026C0CCECD4E423C0CDECD4E420C0C3E816
:1015A000D5E41DC0CAE8D5E41AC0C2E9D5E417C025
:1015B000C4E9D5E414C0C1E2D6E411C0C3E2D6E464
:1015C0000EC0C4E2D6E40BC0C5E2D6E408C0C6E251
:1015D000D6E405C0C7E2D6E402C0CAE2D6E4CE0132
:1015E000DF91CF9108958238910549F1B0F48133AC
:1015F000910509F459C048F48932910509F44FC0A6
:101600008A32910509F455C008958533910509F48E
:1016100041C08933910599F00895833E910531F1D8
:1016200038F4803E910591F0823E9105A9F008952D
:10163000863E910501F1873E910539F1089520918B
:101640003F0220FD3BC021FD39C0089580913F023B
:1016500080FF34C089E341C080913F0282FF30C0E7
:1016600080913F0284FD2EC083EE37C080913F02FF
:1016700082FD26C0F5CF80913F0283FF25C0809177
:101680003F0284FD1FC087EE28C080913F0283FD8A
:101690001BC0F5CF80913F0285FD18C019C0809115
:1016A0003F0285FD15C012C080913F0286FD12C029
:1016B00013C080913F0286FD0FC00CC080EE0DC0AC
:1016C00082EE0BC080E009C086EE07C089E205C04B
:1016D00085E303C08AE201C081E390E00895CF93DF
:1016E000C82F0E94281D90E09093400280933F02F3
:1016F00082FF0DC09C2F9871983019F4C77FC46089
:1017000006C09C2F9471943011F4CB7FC86083FF86
:101710000DC09C2F9871983119F4C77EC46106C022
:101720009C2F9471943111F4CB7EC86184FDC77EE7
:101730008C2FCF91089508950F931F93CF93FB01A2
:101740002281211102C0C1E041C08C01C09173010E
:10175000C11125C086319C45B1F70E949B0B81E0E9
:10176000809373010E94021E909372018093710115
:1017700010926601109268011092670110926A013E
:101780001092690110926C0110926B0110926E011F
:1017900010926D011092700110926F0117C080912C
:1017A0007101909172010E940E1E883C910558F6BD
:1017B00090916601E92FF0E0EE0FFF1FE959FE4F0F
:1017C000118300839F5F90936601C0E08C2FCF91BF
:1017D0001F910F910895EF92FF920F931F93CF9354
:1017E000DF93E901662309F44BC0242F30E0EFEFCB
:1017F000F0E0E61BF109B901E69F9001E79F300D8B
:10180000F69F300D1124232F8B01031B11095CE37C
:10181000E52EF12CB7010E94B12DFB01BC01069F02
:10182000C001079F900D169F900D1124B7010E94D3
:10183000B12DE230F105B1F040F4309779F03197F5
:1018400011F5832F242F461B21C0E430F105A1F0B0
:1018500068F03597C1F4842F861B18C0832F262F7C
:10186000230F14C0862F830FE42F03C0E42FE61B41
:10187000842F432F2E2F0AC0842F462F430F06C0DC
:10188000842F242F03C080E020E040E0E42FF0E02C
:10189000E652FC4F4491E22FF0E0E652FC4F949167
:1018A000E82FF0E0E652FC4FE49149839883EA8305
:1018B000DF91CF911F910F91FF90EF90089588E0F5
:1018C00090E00C94E72DAB01BC0188E090E00C9413
:1018D000052EE1E0F2E083E08083109202028FEFB8
:1018E00082838383609101027091020280910302DE
:1018F000909104020C94630C6091010260FF06C099
:1019000066956F7370E080E090E0089560E070E0AD
:10191000CB0108958091010280FF06C060E170E074
:1019200089E092E00C948511E9E0F2E011821082E6
:101930001282339682E0E933F807C1F7EFCF909136
:10194000010290FF0CC0E9E0F2E0818360834283F2
:10195000339692E0E933F907C1F70C948A0C0895A5
:10196000EF92FF920F931F93CF93DF9300D01F92BC
:10197000CDB7DEB70091010210910202209103025F
:10198000309104020093050210930602209307028F
:10199000309308022091010220FF21C0042FF62E6F
:1019A000E92E182F9E012F5F3F4F0E94EB0B809175
:1019B000050210FB87F980930502169580910602B7
:1019C0008078182BE0FA17F910930602F0920702BC
:1019D000009308024B8169818A810E949F0C0F90BD
:1019E0000F900F90DF91CF911F910F91FF90EF908B
:1019F00008958F929F92AF92BF92CF92DF92EF9213
:101A0000FF920F931F93CF93DF93EC01062F142FB8
:101A10008091010280FF8EC0982F9E77923021F432
:101A2000CE010E94B00C5CC0E82FE695EF739EE3F8
:101A30009E0F9F73943018F41091040251C09AE3E2
:101A40009E0F9F73993070F4881F8827881F90918C
:101A50000202292F220FC22FC82B97FB992790F93A
:101A6000D92F3EC087E28E0F8F738A30C8F5F0E021
:101A70007997E0FD02C021E001C02FEFEE7FE05436
:101A8000FC4F85919491AC0184E0569547958A95D9
:101A9000E1F724036001259FD00C11244E0188E951
:101AA000881A8EEF980A99E0E92E92E0F92E28E63E
:101AB000A22EBB24B394C401B5010E94B12D97019D
:101AC000412F602F0E94EB0B8C0C9D1C93E0E90EC4
:101AD000F11C89E3E81682E0F80669F70E948A0C97
:101AE000809101029C2FC0FB87F98093010296959B
:101AF000809102028078892BD0FB87F980930202C3
:101B0000009303021093040260910102709102029B
:101B10008091030290910402DF91CF911F910F9168
:101B2000FF90EF90DF90CF90BF90AF909F908F90FD
:101B30000C94630CDF91CF911F910F91FF90EF9068
:101B4000DF90CF90BF90AF909F908F900895E1E08D
:101B5000F2E02081221F2227221F30910202432F10
:101B6000440F842F822B37FB992790F9089668E65B
:101B700071E00E94C52D438162810C94F90C209183
:101B80000102221F2227221F30910202432F440FFD
:101B9000842F822B37FB992790F9883091051CF40C
:101BA000805A9E4F05C0089768E671E00E94C52DD7
:101BB00040910402609103020C94F90C60910302BD
:101BC000862F90E0883F910514F4685F01C06FEFA5
:101BD00080910102881F8827881F90910202292F77
:101BE000220F97FB992790F940910402822B0C94C5
:101BF000F90C60910302862F90E0089714F068506A
:101C000001C060E080910102881F8827881F9091A1
:101C10000202292F220F97FB992790F94091040285
:101C2000822B0C94F90C40910402842F90E0883FA1
:101C3000910514F4485F01C04FEF80910102881FA5
:101C40008827881F90910202292F220F97FB99273E
:101C500090F960910302822B0C94F90C40910402DC
:101C6000842F90E0089714F0485001C040E0809124
:101C70000102881F8827881F90910202292F220FB6
:101C800097FB992790F960910302822B0C94F90C31
:101C90009091010290FF42C09178811102C0926040
:101CA00007C0833210F0946403C08F73880F982BA1
:101CB00090930102609101027091020280910302EF
:101CC000909104020E94630C80910102982F9E77EC
:101CD000923019F41092890110C0982F96959F7335
:101CE0002EE3290F2F73273120F491E0909389017F
:101CF00004C0995D9F739A3068F3881F8827881FF6
:101D000090910202292F220F97FB992790F9409179
:101D1000040260910302822B0C94F90C08958091C7
:101D2000E90181608093E90181E080938A010E944A
:101D3000101D811104C00E94EA1C0E94690C0E94BF
:101D40005F0C6093010270930202809303029093F0
:101D500004026E7761F40E94690C0E945F0C60932C
:101D6000010270930202809303029093040281E0C7
:101D7000809389018091010280FF04C086958F7352
:101D80000C94480E08958091010286958F738F5FA1
:101D9000833208F081E00C94480E80910102869510
:101DA0008F73815009F482E20C94480E80910102F5
:101DB000982F909590FB80F9809301026091010229
:101DC0007091020280910302909104020E94630CC0
:101DD0008091010280FF04C086958F730C94480E99
:101DE000109289012FEF80E792E0215080409040CF
:101DF000E1F700C000000C948A0CCF93C82F8091AB
:101E00008701909188010E940E1EEC2FF0E0EA52AB
:101E1000FC4FE491F0E08E179F0708F443C00E9446
:101E2000021E90938801809387016091860170E083
:101E300080E090E00E94B22B20E030E04FE753E4D6
:101E40000E94D52A2BED3FE049E450E40E94DB2CB0
:101E50000E94482D0E944F2B2BE43AE34EE25FE3B1
:101E60000E94682A20EF3BEF48ED52E40E94DB2CF1
:101E70000E94812B462F80910102881F8827881F8E
:101E800090910202292F220F97FB992790F96091D8
:101E90000302822B0E94B00C8091860190E0019693
:101EA00080938601CF910895CF93C82F80918401AC
:101EB000909185010E940E1EEC2FF0E0ED52FC4F38
:101EC000E491F0E08E179F07E8F00E94021E9093C5
:101ED0008501809384014091040260910302809106
:101EE0008201909183010E94B00C809182019091B7
:101EF0008301019668E671E00E94B12D9093830101
:101F000080938201CF910895CF92DF92FF920F9339
:101F10001F93CF93DF93F82E8091800190918101E0
:101F20000E940E1EEF2DE695F0E0E053FC4FE49189
:101F3000F0E08E179F07C0F10E94021E909381016E
:101F40008093800109E012E0C0E0D0E088E6C82E6E
:101F5000DD24D39480917E0190917F018C0F9D1F91
:101F6000B6010E94B12D98014091040260910302D4
:101F70000E94EB0B66960D5F1F4FC03681E0D807BD
:101F800049F70E948A0C80917E0190917F01F0FEBA
:101F900006C0019668E671E00E94B12D01C001976C
:101FA00090937F0180937E01DF91CF911F910F91DC
:101FB000FF90DF90CF900895CF92DF92EF92FF9243
:101FC0000F931F93CF93DF93C82F80FF02C01FEFA3
:101FD00001C011E080917C0190917D010E940E1E54
:101FE000C695EC2FF0E0E353FC4FE491F0E08E1740
:101FF0009F0708F458C00E94021E90937D018093B1
:102000007C01C9E0D2E0E12CF12C198218821A82FD
:1020100094E0C92ED12C00E080917B01800F87FDD8
:10202000805F082E000C990BE816F906E9F4809100
:1020300004028C9DA0018D9D500D1124559547954E
:102040005595479580910102881F8827881F909198
:102050000202592F550F97FB992790F99E01609125
:102060000302852B0E94EB0B010F81E0C81AD108F7
:1020700099F68FEFE81AF80A239680E1E816F10442
:1020800021F60E948A0C80917B01113031F481117C
:1020900002C08FE006C0815004C090E001968F70AE
:1020A000992780937B01DF91CF911F910F91FF9032
:1020B000EF90DF90CF9008950F931F93CF93DF930E
:1020C000C82F8091790190917A010E940E1EEC2F09
:1020D000F0E0E653FC4FE491F0E08E179F0708F420
:1020E00056C00E94021E90937A0180937901C9E044
:1020F000D2E0FE01118210821282339682E0E9332F
:10210000F807C1F700E010E080917801082E000C7C
:10211000990B08171907ECF080910201082E000CAA
:10212000990B80179107ACF080910102881F8827D6
:10213000881F90910202592F550F97FB992790F90C
:102140009E014091040260910302852B0E94EB0BDB
:1021500003C0198218821A820F5F1F4F2396003125
:10216000110591F60E948A0C8091010190917801ED
:10217000980F9093780120910201280F209302017B
:10218000121614F49F301CF0819580930101DF91A9
:10219000CF911F910F910895EF92FF920F931F938C
:1021A000CF93DF9380917601909177010E940E1E6C
:1021B000883E9340D0F10E94021E90937701809355
:1021C0007601C0917401D09175012196C170DD270F
:1021D000D0937501C093740189E0E82E82E0F82E57
:1021E00010E008E7812F8695FE01E80FF11DCF0171
:1021F0008170992797014091040260910302FC01CC
:102200000E9FC0010F9F900D11240E94EB0B1F5FCA
:10221000F3E0EF0EF11C103129F7DF91CF911F9100
:102220000F91FF90EF900C948A0CDF91CF911F914A
:102230000F91FF90EF90089580918901882391F18B
:1022400090910102892F86958F732EE3280F2F73AB
:10225000243018F482500C94FD0E2AE3280F2F73BB
:10226000233018F486500C94540F27E3280F2F7353
:10227000263018F489500C94840F21E3280F2F7313
:10228000263018F48F500C94DC0F2BE2280F2F739C
:10229000233018F485510C945C109E77903311F420
:1022A0000C94CC1008952BB1342F309523233BB1DF
:1022B000432B3FB7F894FC01680F791FE617F70727
:1022C00089F0819198E04BB9000000C087FF2BB9DD
:1022D000880F000000C000C000C02BB900C09A9554
:1022E00091F7ECCF3FBF08952AB1242B2AB99B0167
:1022F000220F331F620F731F0E94531187EC90E06F
:102300000197F1F700C00000089542E00C947411A9
:102310009093900180938F010895E0918F01F09147
:102320009001309721F00190F081E02D099480E038
:102330000895E0918F01F0919001309721F0028093
:10234000F381E02D09940895E0918F01F0919001BF
:10235000309721F00480F581E02D099408952091B3
:102360008D0130918E012817390771F090938E01FD
:1023700080938D01E0918F01F0919001309721F0D1
:102380000680F781E02D0994089520918B0130910A
:102390008C012817390771F090938C0180938B0181
:1023A000E0918F01F0919001309721F00084F18548
:1023B000E02D099408950C94270581E008950E946A
:1023C000F91D0E9466030E946F1E0E94AA220C94AF
:1023D0008F0EBF92CF92DF92EF92FF920F931F93D7
:1023E000CF93DF93CDB7DEB72A970FB6F894DEBF51
:1023F0000FBECDBF0E94B6040E94DD11811111C035
:102400008FEF89838A831B820E94021E8160782F4E
:102410009D838C8349815A816B818D810E949212A8
:1024200054C082E9C82E81E0D82E00E010E0B02E22
:10243000802F0E94FB04E82EF60121916F01F82EF7
:10244000F22631F40F5F1F4F0A30110581F7D8CF04
:102450008091E90181FD0E94010580E090E02F2D2F
:1024600030E0482FB901082E02C0759567950A948F
:10247000E2F760FF25C08E83BF8281E090E06C01AF
:1024800002C0CC0CDD1C4A95E2F72E2D30E02C2149
:102490003D21232B09F480E088870E94021E816081
:1024A000782F9A8789874E815F8168858A850E9407
:1024B0009212F801EE56FE4F80818C25808305C074
:1024C00001968730910569F6BDCF0E9402200E94D7
:1024D0008D11909191018917A9F00E948D1180931F
:1024E00091012A960FB6F894DEBF0FBECDBFDF91E3
:1024F000CF911F910F91FF90EF90DF90CF90BF9001
:102500000C94F7082A960FB6F894DEBF0FBECDBF25
:10251000DF91CF911F910F91FF90EF90DF90CF90BF
:10252000BF900895CF93DF93CDB7DEB72B970FB64B
:10253000F894DEBF0FBECDBF4F83588769877A8777
:102540008B87DE01119686E0FD0111928A95E9F7ED
:1025500085E0FE01379601900D928A95E1F7498159
:102560005A816B817C818D819E810E94C6192B9638
:102570000FB6F894DEBF0FBECDBFDF91CF910895A7
:10258000FC01808191810E943E1C0895CF93882395
:1025900009F4FCC0C82F8238C1F40E948D1181FD5E
:1025A000F5C069E380910301909104010E946E1DC2
:1025B0000E947E1C2FEF81EE94E0215080409040DD
:1025C000E1F700C0000069E319C0833801F50E94FB
:1025D0008D1180FDDBC063E58091030190910401C2
:1025E0000E946E1D0E947E1C2FEF81EE94E0215010
:1025F00080409040E1F700C0000063E58091030156
:10260000909104010E94701DCF910C947E1C84381F
:10261000C1F40E948D1182FDB9C067E4809103016D
:10262000909104010E946E1D0E947E1C2FEF81EE8E
:1026300094E0215080409040E1F700C0000067E442
:10264000DDCF8CEF8C0F813A68F48C2F0E9413221F
:1026500081119CC06C2F80910301909104010E9414
:102660006E1DD2CF80E28C0F883048F4C77081E0B5
:1026700001C0880FCA95EAF70E94B41CC5CF8BE54C
:102680008C0F833078F4C53A29F0C63A31F083E8EC
:1026900090E005C081E890E002C082E890E0CF9130
:1026A0000C94AF1188E58C0F853108F06FC0C83AE3
:1026B00061F1C93A69F1CA3A71F1CB3A79F1CC3A90
:1026C00081F1CB3B89F1CC3B91F1CD3A99F1C03B03
:1026D000A1F1CE3AA9F1CF3AB1F1C13BB9F1C23B78
:1026E000C1F1C33BC9F1C43BD1F1C53BD9F1C63BF4
:1026F000E1F1C73BE9F1C83BF1F1C93BF9F1CA3B54
:1027000009F43FC080E090E03EC082EE90E03BC024
:1027100089EE90E038C08AEE90E035C085EB90E01D
:1027200032C086EB90E02FC083EB90E02CC084EBAE
:1027300090E029C087EB90E026C08CEC90E023C0AD
:102740008DEC90E020C083E891E01DC08AE891E024
:102750001AC082E991E017C084E991E014C081E2D7
:1027600092E011C083E292E00EC084E292E00BC0DE
:1027700085E292E008C086E292E005C087E292E03E
:1027800002C08AE292E0CF910C94C511CF910895D6
:10279000882309F45BC0682F823879F40E948D1178
:1027A00081FF54C069E380910301909104010E946C
:1027B0006E1D0E947E1C69E310C08338B1F40E9434
:1027C0008D1180FF43C063E5809103019091040166
:1027D0000E946E1D0E947E1C63E580910301909112
:1027E00004010E94701D0C947E1C843879F40E94B0
:1027F0008D1182FF2BC067E4809103019091040149
:102800000E946E1D0E947E1C67E4E7CF8CEF860F4E
:10281000813A18F380E2860F883048F4677081E0CF
:1028200001C0880F6A95EAF70E94BA1CDCCF8BE5DD
:10283000860F833020F480E090E00C94AF11685A4A
:10284000653120F480E090E00C94C5110895882350
:1028500021F00E94B41C0C947E1C0895882321F062
:102860000E94BA1C0C947E1C08958F929F92AF9286
:10287000BF92DF92EF92FF920F931F93CF93DF935C
:102880007C01D62FC72FFC01058102950F701281A4
:1028900011110E94D11C0E94771C882379F011230A
:1028A00069F080E28D0F883048F082E00E94601C61
:1028B0000E94771C91E0D82ED92601C0D12CBC2EC5
:1028C000B2948FE0B8228B2D90E0FC01E859FF4FC5
:1028D0000C94D92D8C2F807FCF70882311F0C29556
:1028E000C07F112399F0CC2309F4C0C180E28D0F81
:1028F000883010F0D11104C08C2F0E94B41C03C08A
:102900008C2F0E94C41C0E947E1CB0C18D2F0E947F
:10291000C813CC2309F4F0C180E28D0F883010F089
:10292000D11104C08C2F0E94BA1C03C08C2F0E94AE
:10293000CA1C0E947E1CE0C18C2F807FCF70803229
:1029400011F0C295C07FDD2319F0D130A9F01EC06F
:10295000112351F08C2F002309F440C1013009F0FC
:102960003DC10E94E41CC8C1002319F0013009F4E4
:10297000C3C10E94E71C18C0112321F0063008F0E3
:10298000BBC10EC0053008F0B7C10EC0112351F015
:10299000002331F0F701858180FF68C18F70858346
:1029A0008C2F1CC1011173C18C2F1EC18C2F8695D9
:1029B0008695837019F0813061F09EC1112321F05A
:1029C0008D2F9C2F937002C080E090E00E94AF1189
:1029D000A0C1112321F08D2F9C2F937002C080E0A5
:1029E00090E00E94C51195C11123F9F0D53F51F037
:1029F000D63F71F0D43FA9F48091390290913A0208
:102A000081600BC08091390290913A02826005C0CA
:102A10008091390290913A02846090933A028093B7
:102A200039028D2F0E940A1F1EC0D53F51F0D63F9C
:102A300071F0D43FA9F48091390290913A028E7FCF
:102A40000BC08091390290913A028D7F05C0809130
:102A5000390290913A028B7F90933A028093390227
:102A60008D2F0E94721F0E94F71F53C18C2F8370FD
:102A700009F04CC0111149C12D2F229526952770C0
:102A8000220F220F6D2F6F70862F90E0A0E0B0E034
:102A90004C015D01022E04C0880C991CAA1CBB1CB1
:102AA0000A94D2F7D4FF12C08FE090E0A0E0B0E02B
:102AB00004C0880F991FAA1FBB1F2A95D2F7BC011B
:102AC000CD01609570958095909503C060E070E0B1
:102AD000CB01C695C695C370C23051F080F4682909
:102AE00079298A299B29C13071F00E94151B0DC1DB
:102AF000682979298A299B290E94271B06C10E94DF
:102B0000151BC501B4010E94031BFFC0112319F05E
:102B10008C2F817001C08695882309F4F6C02D2F73
:102B2000229526952770220F220F6D2F6F70862F0A
:102B300090E0A0E0B0E04C015D01022E04C0880CE2
:102B4000991CAA1CBB1C0A94D2F7D4FF12C08FE0B8
:102B500090E0A0E0B0E004C0880F991FAA1FBB1F3F
:102B60002A95D2F7BC01CD0160957095809590951E
:102B700003C060E070E0CB01C695C695C370C2305B
:102B800051F080F4682979298A299B29C13071F094
:102B90000E94DA1BBAC0682979298A299B290E94D8
:102BA000EC1BB3C00E94DA1BC501B4010E94C81B14
:102BB000ACC08D2F90E0FC01E05EF109E531F1053C
:102BC00008F050C0E858FF4F0C94D92DDF708C2FBF
:102BD0008F71112331F00E94611B8D2F0E942714E9
:102BE0008BC00E94821B8D2F0E942E1485C0112342
:102BF00041F0053008F080C08C2F8F710E94A71B18
:102C00007BC0063008F078C0F7CF112339F08C2F45
:102C10008F710E94611B70C01123C9F38C2F8F71BB
:102C20000E94821B69C0112329F08C2F8F710E9492
:102C30004C1B62C00E94471B5FC0112349F0CF713B
:102C40008C2F0E94611B63E08C2F0E94571C54C084
:102C500081E00E94601C023008F44EC082E00E94B5
:102C6000601C4AC0112331F0002389F28D2F0E948D
:102C7000C61242C0002391F2D93349F4FFEF27EE88
:102C800083E0F15020408040E1F700C000008D2F2C
:102C90000E94C81331C04C2F4F706D2FC7010E9486
:102CA000F9080E94741A35C0111133C0CF70C230B8
:102CB00091F038F4CC2361F0C130F1F40E94E422A9
:102CC00028C0C43071F050F0C530B1F480E00AC0C3
:102CD0000E94C7221EC00E9400231BC00E941A230C
:102CE00018C085E00E943D2314C04C2F4F706D2FFB
:102CF000C7010E94FC080DC098E0B91631F0B91662
:102D000040F086EF8B0D823020F40E948D110E94DE
:102D1000F708DD20E1F00E94531C80FD18C0F70188
:102D200012820E944D1C0E94611BC7010E94B316B3
:102D30000E944D1CDF91CF911F910F91FF90EF905A
:102D4000DF90BF90AF909F908F900C94821BDF918B
:102D5000CF911F910F91FF90EF90DF90BF90AF90B8
:102D60009F908F9008950F931F93CF93DF93EC0163
:102D7000988189812B813C81232B31F08F3F31F465
:102D800081E09F3F19F403C081E001C080E080FD35
:102D900013C0CE010E946B06882371F0688179818F
:102DA0008A810E94491C8C010E94FE1B0E94F11A1C
:102DB000B801CE010E943514DF91CF911F910F9180
:102DC00008950E94D11C0E94E11C80910301909102
:102DD00004010E94721D0E947E1C0E9490200E948D
:102DE000F71F80E090E00E94AF1180E090E00C942B
:102DF000C5110E94C11C0C94E1160E943E1CE92FD3
:102E0000E295EF704E2F50E0FA013297EE30F10567
:102E1000B0F4E357FF4F0C94D92D803F91F018F494
:102E2000803E68F40EC0843F51F40BC0803E48F0F1
:102E3000813F29F406C093FB882780F9089580E03C
:102E4000089581E00895CF93DF9300D000D01F92C2
:102E5000CDB7DEB70F900F900F900F900F90DF91CE
:102E6000CF910895CF93DF9300D000D000D0CDB79D
:102E7000DEB726960FB6F894DEBF0FBECDBFDF914A
:102E8000CF9108951F93CF93DF93C0919C0116E0DB
:102E900080919D01C81799F0D0E01C9FF0011D9F03
:102EA000F00D1124E256FE4F408151816281738101
:102EB000848195810E9432172196C770E9CFDF91F6
:102EC000CF911F9108954091CE015091CF01609113
:102ED000D0017091D1018091D2019091D3010C94D5
:102EE0003217CF938091D30182958F7009F05FC024
:102EF0008091D001882309F45AC080919C01B0913F
:102F00009D017091CE01A091CF014091D1015091CE
:102F1000D20191E07F3F09F090E0692FC6E08B1766
:102F200009F445C04115510521F0AF3F21F020E0E3
:102F300003C021E001C0262F90E020FD35C0C89FCE
:102F4000F001C99FF00D1124E256FE4F21812A1392
:102F50002BC02081271328C02281211125C0238165
:102F600034812417350710F421503109241B350B07
:102F700024363105C8F42091D3012F7020612093AD
:102F8000D30126E0289FF001299FF00D1124ED5573
:102F9000FE4F80818F70806180838EEC91E00E9473
:102FA000B316CF910C94421701968770B8CFCF918A
:102FB0000895AF92BF92CF92DF92EF92FF920F935C
:102FC0001F93CF93DF93CDB7DEB761970FB6F89419
:102FD000DEBF0FBECDBF8C0185E0F801DE011D967E
:102FE00001900D928A95E1F7D8014C9111965C9170
:102FF00011971296EC903091CE016091CF018091A3
:10300000D1019091D201009731F06F3F31F421E06E
:103010003F3F19F403C021E001C020E0B22FB1709E
:10302000BB2E20FD60C1F801C380D480A090D001E8
:10303000AA2009F4EEC02091D301C816D90628F0C1
:10304000D601A81BB90BCD0104C0809590958C0DBD
:103050009D1DFF24F3948436910580F0F12C207F90
:1030600009F09CC07C2DD98AC88A6E2D89890E945E
:1030700023178EEC91E00E94B3162DC1822F807F22
:1030800009F054C0561314C0431312C0FE2CE110B3
:103090000FC02F7020612093D3010E9463178EEC24
:1030A00091E00E94B3168091D301F80185835CC141
:1030B000CD2831F05F3F31F481E04F3F19F403C078
:1030C00081E001C080E080FD03C081E08E2502C068
:1030D00080E090E0F82FF170FF2E80FF1CC08091FF
:1030E0009C0120919D0136E0821709F41AC190E0FD
:1030F000389FF001399FF00D1124E256FE4F618197
:10310000561306C06081461303C06281E61203C0F5
:1031100001968770E9CFFE2CEE2009F425C180913D
:10312000D30181608093D301F12C1EC1561309C0D5
:10313000431307C0E11005C08091D301F8018583D6
:10314000A4C04D875E878D859E850E94FD168823CD
:1031500079F1EE2069F12091D301822F82958F7051
:1031600090E0029774F08091CE019091CF01988702
:103170008F831986DB86CA862C87CE0107960E942C
:10318000B31686E0F801AEECB1E001900D928A959D
:10319000E1F70E9471170E9463170DC0561771F076
:1031A0004D875E878D859E850E94FD1681111AC010
:1031B000C8010E94B316FF24F394D6C04313F0CF86
:1031C000E110EECF8091D301F8018583C8010E9400
:1031D000B31686E0EEECF1E0DF011D928A95E9F787
:1031E000FA2CC2C0EE2021F32091D301822F8295C8
:1031F0008F7090E002972CF28091CE019091CF01D8
:103200009A8389831B82DD82CC822E83CE01019634
:10321000B6CFC816D90628F0F601E81BF90BCF0186
:1032200004C0809590958C0D9D1D8436910548F0C5
:10323000F12C7C2DD98AC88A6E2D89890E9423178A
:103240004AC0FE2CEE2009F4B3CF561333C043130B
:1032500031C02091D30120FD24C0822F82958F7030
:10326000482F50E041155105E1F0D80115962C93F7
:1032700015974F30510549F08F5F982F9295907FA9
:10328000822F8F70892B15968C93C8010E94B316DC
:1032900086E0F801AEECB1E001900D928A95E1F77D
:1032A0003DC086E0F801AEECB1E001900D928A9548
:1032B000E1F75AC04D875E878D859E850E94FD1679
:1032C00081115FCF8091D30181608093D301C801C8
:1032D0000E94B31649C0EEECF1E086E0DF011D92DA
:1032E0008A95E9F71BC0EE2009F462CF4D875E870F
:1032F0008D859E850E94FD16F82E882309F458CFEF
:1033000086E0F801AEECB1E001900D928A95E1F70C
:103310008EEC91E00E94C0120E9471170E94631708
:1033200023C04D875E878D859E850E943E1C292F78
:1033300022952F70223028F49F7039F0811105C03A
:103340000BC0243028F49F7049F4805E883020F050
:10335000C8010E94B316BF2CFB2C06C0D8011596DD
:103360009C91907F91F7F8CF8F2D61960FB6F894CE
:10337000DEBF0FBECDBFDF91CF911F910F91FF90A8
:10338000EF90DF90CF90BF90AF9008951F93CF93B1
:10339000DF93CDB7DEB72C970FB6F894DEBF0FBE24
:1033A000CDBF4F83588769877A878B879C87CE01EB
:1033B00007960E94D9178823D1F09F8188852A8596
:1033C0003B85232B31F08F3F31F481E09F3F19F48F
:1033D00003C081E001C080E080FD47C04F81588577
:1033E00069857A858B859C850E9432173EC086E070
:1033F000FE013796DE01119601900D928A95E1F754
:10340000FF81E8856A857B856115710531F0EF3FA5
:1034100031F481E0FF3F19F403C081E001C080E096
:1034200080FD23C020919D0130E0C9010196877085
:10343000992740919C0150E084179507F1F1F98399
:10344000EA837D836C8396E0929FD001939FB00DB9
:103450001124A256BE4FFE01319601900D929A950D
:10346000E1F780939D010E94421716E080919C0134
:1034700090919D01891771F1189FC0011124825606
:103480009E4F0E94D917882329F1E0919C011E9F2D
:10349000F0011124E256FE4F408151816281738117
:1034A000848195810E94321780919C0190E0019661
:1034B0008770992780939C01D9CF0E94F9161092AA
:1034C0009D0110929C01EEECF1E086E0DF011D927F
:1034D0008A95E9F72C960FB6F894DEBF0FBECDBFE4
:1034E000DF91CF911F910895EF92FF920F931F9359
:1034F000CF93DF938C01892B09F46CC0F12CEE245F
:10350000E394E8012196F8018491843740F48430F3
:1035100008F051C0813081F0823019F15BC08537ED
:1035200009F444C0A8F19CE7980F903708F052C006
:103530008F770E94C81341C00E5F1F4FFE01849118
:1035400090E2980F983050F48770FE2D01C0FF0F65
:103550008A95EAF78F2F0E94D41C14C00E94C612CD
:103560002DC00E5F1F4FFE01849190E2980F98309E
:1035700060F48770FE2D01C0FF0F8A95EAF78F2F48
:103580000E94DA1C0E947E1C19C00E94C81316C03B
:103590000E5F1F4FFE01C491CC2381F08FE99FE0A5
:1035A0000197F1F700C00000C150F6CF0E5F1F4F2A
:1035B000FE01F49003C00E94C6128E018F2D882355
:1035C00009F49FCFEFE9FFE03197F1F700C0000069
:1035D0008150F5CFDF91CF911F910F91FF90EF9028
:1035E0000895089508950C94F21A0E94F31A6093B6
:1035F000D8017093D9018093DA019093DB010C9488
:10360000E1160C94F51A0F931F930091D8011091B5
:10361000D9012091DA013091DB01602B712B822BD3
:10362000932B1F910F910C94F51A0F931F930091F8
:10363000D8011091D9012091DA013091DB0160238A
:103640007123822393231F910F910C94F51A0F93EA
:103650001F930091D8011091D9012091DA01309186
:10366000DB0160277127822793271F910F910C940C
:10367000F51A0C94F21A0E94391B6093D4017093CE
:10368000D5018093D6019093D7010C94E11660E0A8
:1036900070E0CB010C943B1B0F931F9341E050E073
:1036A00060E070E08A019B0104C0000F111F221F1F
:1036B000331F8A95D2F7C901B8011F910F910C945D
:1036C0003B1B0F931F9341E050E060E070E004C0AB
:1036D000440F551F661F771F8A95D2F78091D4013A
:1036E0009091D501A091D601B091D7018A019B019B
:1036F000082B192B2A2B3B2BC901B8011F910F91C5
:103700000C943B1B0F931F9341E050E060E070E08E
:1037100004C0440F551F661F771F8A95D2F7409546
:103720005095609570958091D4019091D501A091AC
:10373000D601B091D7018A019B01082319232A23BE
:103740003B23C901B8011F910F910C943B1B0F93B0
:103750001F9341E050E060E070E004C0440F551F4B
:10376000661F771F8A95D2F78091D4019091D50179
:10377000A091D601B091D7018A019B010827192792
:103780002A273B27C901B8011F910F910C943B1BBD
:103790000F931F930091D4011091D5012091D60170
:1037A0003091D701602B712B822B932B1F910F919E
:1037B0000C943B1B0F931F930091D4011091D501E2
:1037C0002091D6013091D701602371238223932366
:1037D0001F910F910C943B1B0F931F930091D401E9
:1037E0001091D5012091D6013091D7016027712722
:1037F000822793271F910F910C943B1B0895CF9222
:10380000DF92EF92FF920F931F93CF93DF938C0180
:10381000C090D401D090D501E090D601F090D701AE
:103820008091D8019091D901A091DA01B091DB018A
:10383000C82AD92AEA2AFB2ACFE1D0E0D701C6015B
:103840000C2E04C0B695A795979587950A94D2F744
:1038500080FD04C0219790F780E007C0B8018C2F4D
:103860000E9418090197B1F38C2FDF91CF911F911E
:103870000F91FF90EF90DF90CF900895CF93DF935B
:10388000EC010E94FF1BBE010E941809DF91CF913D
:103890000895CB010E943E1C08958091DC0185951E
:1038A0008595859508958091DC018770089598E04D
:1038B000899F90011124262B2093DC010C94611B1D
:1038C0002091DC01809582238093DC01982F9770F2
:1038D00069F430E0482F082E000C550B24173507EB
:1038E00029F08595859585950C94821B0895909176
:1038F000DC01977081E009F480E00895E091030114
:10390000F09104018091E8018083E0910301F0913E
:10391000040190818091E701892B8083E09103016C
:10392000F091040190818091E601892B8083809140
:10393000DD01882381F0E0910301F0910401908181
:10394000892B808380910301909104010E943A1D8C
:1039500081111092DD0180910301909104010C947A
:1039600099118091E80108959091E801892B809345
:10397000E801089580959091E80189238093E801FA
:1039800008951092E80108959091E701892B8093A2
:10399000E701089580959091E70189238093E701DD
:1039A00008951092E70108959091E601892B809384
:1039B000E601089580959091E60189238093E601C0
:1039C00008951092E60108958093DD010895109204
:1039D000DD0108956DEE7EEF80E090E00E94112EF3
:1039E00060E082E090E00E94F32D60E083E090E0F0
:1039F0000E94F32D60E084E090E00E94F32D60E0EF
:103A000085E090E00E94F32D60E086E090E00E9467
:103A1000F32D40E050E0BA0188E090E00C94052ED0
:103A200080E090E00E94ED2D21E08D3E9E4F09F058
:103A300020E0822F089582E090E00C94DF2D83E057
:103A400090E00C94DF2D682F83E090E00C94F32D30
:103A500084E090E00C94DF2D682F84E090E00C94DB
:103A6000F32D86E090E00C94DF2D682F86E090E047
:103A70000C94F32DFC0131969C01285F3F4F80E0B0
:103A8000919191118F5FE217F307D1F708959C018F
:103A9000FC0132969FEF80E04191461789F09F3FED
:103AA00019F4411101C0982F8F5F8630A9F79F3F0D
:103AB00039F0F901E90FF11D97FDFA956283089538
:103AC00008959C012A5F3F4FFC014281461301C0CB
:103AD0001282019682179307B9F708950C94471D37
:103AE0000C94611DFC01319608961192E817F907B4
:103AF000E1F7089508950C947A1D0C947A1DCF93E4
:103B00000E947D1D0E94B6040E947B1DC0E08C2F88
:103B10000E94FB04811104C0CF5FCA30C1F701C00D
:103B200081E0CF9108950C947A1D0E94931D80919D
:103B30004602843051F11092EA0120E488E190E0DD
:103B40000FB6F894A895809360000FBE2093600094
:103B500080E00E94F30880E00E94F70883B7817F2D
:103B6000846083BF83B7816083BF7894889583B76F
:103B70008E7F83BF0FB6F894A8958091600088610E
:103B800080936000109260000FBE08950E947A1D1D
:103B90000E94F9160E94AA220E948D110C94F70827
:103BA0001F920F920FB60F9211248F939F93AF9392
:103BB000BF938091EA01811113C080913B029091E3
:103BC0003C02A0913D02B0913E024196A11DB11D63
:103BD00080933B0290933C02A0933D02B0933E023F
:103BE000BF91AF919F918F910F900FBE0F901F903B
:103BF000189582E084BD93E095BD9AEF97BD8093C0
:103C00006E0008952FB7F89480913B0290913C028A
:103C1000A0913D02B0913E022FBF0895CF92DF9256
:103C2000EF92FF920F931F932FB7F89440913B02AE
:103C300050913C0260913D0270913E022FBF6A019B
:103C40007B01EE24FF248C0120E030E0C016D10679
:103C5000E206F30610F4415051099A01281B390B72
:103C6000C9011F910F91FF90EF90DF90CF900895C1
:103C700078941F920F920FB60F9211248F939F93F7
:103C8000AF93BF9380913B0290913C02A0913D0283
:103C9000B0913E020196A11DB11D80933B0290930D
:103CA0003C02A0933D02B0933E02BF91AF919F9121
:103CB0008F910F900FBE0F901F90189587E797E791
:103CC00090930108809300089AE088E10FB6F89479
:103CD000A895809360000FBE90936000FFCF0E9474
:103CE000101D811102C00E94EA1C0E941B1D8093BE
:103CF000E9010E94281D90E09093400280933F02CA
:103D00000E941F1D682F70E080E090E00C94011B62
:103D10008091ED0180FF0BC06091080185E0689FF4
:103D2000B001112475956795759567952BC081FF36
:103D300009C06091080185E0689FB0011124759564
:103D4000679520C082FF07C06091080185E0689FE9
:103D5000B001112417C09091EE019923D1F0609128
:103D60000701961788F72091080185E0289F9001A8
:103D70001124929FA001939F500D112470E0CA015D
:103D80000E94C52D6038710540F46115710519F464
:103D900006C065E070E0862F08958FE7089581E002
:103DA00008958091ED0180FF08C06091060170E0E8
:103DB000759567957595679521C081FF06C06091DF
:103DC000060170E07595679519C082FF04C0609187
:103DD000060170E010C09091EE01992399F0609176
:103DE00005019617A0F780910601899FC001112453
:103DF00070E00E94C52D6038710540F461157105B1
:103E000019F406C061E070E0862F08958FE70895E9
:103E100081E00895803F21F40E94881E819504C0AE
:103E2000813F29F40E94881E8093F1010895823F0A
:103E300021F40E94881E819504C0833F29F40E94CA
:103E4000881E8093F0010895893F19F40E94D11EC5
:103E500005C08A3F31F40E94D11E81958093F20102
:103E600008958B3F21F40E94D11E819504C08C3FA0
:103E700029F40E94D11E8093F3010895843F21F418
:103E80008091EF01816017C0853F21F48091EF019F
:103E9000826011C0863F21F48091EF0184600BC0E5
:103EA000873F21F48091EF01886005C0883F31F49D
:103EB0008091EF0180618093EF0108958D3F21F49F
:103EC0008091ED0181600BC08E3F21F48091ED0166
:103ED000826005C08F3F29F48091ED01846080935A
:103EE000ED010895803F39F48091F10187FF6CC0A6
:103EF0001092F10169C0813F29F48091F1011816F7
:103F0000BCF362C09091F001823F29F497FF5CC03E
:103F10001092F00159C0833F19F41916CCF354C024
:103F2000893F41F48091F20118160CF04DC01092B7
:103F3000F2014AC08A3F29F48091F20187FF44C010
:103F4000F6CF8B3F39F48091F30187FF3DC010928B
:103F5000F3013AC08C3F29F48091F3011816BCF3A9
:103F600033C0843F21F48091EF018E7F17C0853FDD
:103F700021F48091EF018D7F11C0863F21F4809163
:103F8000EF018B7F0BC0873F21F48091EF01877F8A
:103F900005C0883F31F48091EF018F7E8093EF015F
:103FA00013C08D3F21F48091ED018E7F0BC08E3FB9
:103FB00021F48091ED018D7F05C08F3F29F4809120
:103FC000ED018B7F8093ED018091F00181110EC096
:103FD0008091F10181110AC08091F201811106C026
:103FE0008091F301811102C01092EE0108958FEECD
:103FF00091E00E94A4110E94021E9093EC01809314
:10400000EB0108951F93CF93DF938091EB01909183
:10401000EC010E940E1EAC019091EE01992321F05B
:104020002091090130E006C020910A018AE0289F12
:10403000900111244217530708F46EC08091F001DB
:10404000C091F101D091F2011091F301811107C0EB
:10405000C1115EC0D1115CC011115AC05DC09F3F3B
:1040600019F09F5F9093EE01181624F40E94881EA9
:104070008093F0018091F00187FF05C00E94881EA7
:1040800081958093F0011C1624F40E94881E809371
:10409000F1018091F10187FF05C00E94881E819582
:1040A0008093F1014091F001442379F03091F101C6
:1040B000332359F025EB4203A00111245093F00162
:1040C0003203C00111249093F1011D1624F40E94C3
:1040D000D11E8093F2018091F20187FF05C00E94FA
:1040E000D11E81958093F201111624F40E94D11EF5
:1040F0008093F3018091F30187FF05C00E94D11ED8
:1041000081958093F301DF91CF911F910C94F71F5C
:104110009F3F09F0A6CFB7CFDF91CF911F910895B0
:10412000EFEEF1E085E0DF011D928A95E9F710924C
:10413000EE011092ED010895833081F128F4813071
:1041400059F08230D1F00895853009F449C0B8F1B2
:10415000863009F456C0089580910A01262F30E078
:10416000280F311D2F3F310524F4680F60930A0199
:1041700008958FEF80930A01089580910901262FF9
:1041800030E0280F311D2F3F310524F4680F609374
:10419000090108958FEF8093090108958091080126
:1041A000262F30E0280F311D2F3F310524F4680FF2
:1041B0006093080108958FEF80930801089580911E
:1041C0000701262F30E0280F311D2F3F310524F441
:1041D000680F6093070108958FEF8093070108959A
:1041E00080910601262F30E0280F311D2F3F310529
:1041F00024F4680F6093060108958FEF8093060101
:10420000089580910501262F30E0280F311D2F3FA2
:10421000310524F4680F6093050108958FEF8093B2
:1042200005010895833011F128F4813049F082307E
:1042300091F00895853081F120F18630C1F1089523
:1042400080910A01681720F4861B80930A01089563
:1042500010920A01089580910901681720F4861BC5
:104260008093090108951092090108958091080131
:10427000681720F4861B80930801089510920801A6
:10428000089580910701681720F4861B8093070129
:10429000089510920701089580910601681720F48F
:1042A000861B80930601089510920601089580915F
:1042B0000501681720F4861B80930501089510926C
:1042C000050108950F931F9341E050E060E070E016
:1042D0008A019B0104C0000F111F221F331F8A9502
:1042E000D2F7C901B8010E94011B1F910F910C94D4
:1042F000F9168732D8F58E3108F07DC08E3009F47A
:1043000067C098F4873009F455C08B3009F476C043
:10431000863009F077C08091E901817F8E7F80939C
:10432000E90181E08093F5010895863109F466C0C2
:1043300068F4803109F066C08091E90183FB22278F
:1043400020F991E0922790FB83F94BC0893109F461
:1043500055C08B3109F056C08091E90181FB2227BD
:1043600020F991E0922790FB81F93BC0883309F452
:1043700045C048F4893209F443C0853309F440C08C
:104380008732F1F13FC08334D9F120F48A33D0F180
:10439000895332C08834B1F50E94F9162FEF83EDAE
:1043A00090E3215080409040E1F700C000000E945F
:1043B0005E1E24C08091E901982F9095917090FB2A
:1043C00080F98093E901911119C0897F877F10C01E
:1043D0008091E90182FB222720F991E0922790FB4E
:1043E00082F98093E901992349F08091E901816084
:1043F0008093E90103C08D510E94622181E00895FC
:1044000080E0FACF80E0089580E008950C940422C3
:104410008E518A3030F4E82FF0E0E95DFE4F808164
:10442000089580E00895CF93C82F8091F5018130E1
:1044300069F018F08230C9F183C0E0910301F09176
:1044400004018081823209F07DC007C0E091030140
:10445000F09104018081823261F48C2F0E94062247
:10446000811104C08C2F0E9479211DC081E090E051
:104470001AC08C2F0E940422811114C0C43179F01B
:1044800048F4CB3079F0C03109F060C082E080930D
:10449000F50108C0C93219F0C83321F057C0109295
:1044A000F50154C081E0817053C0C93289F118F51B
:1044B000C43171F1B0F4C73009F046C08EE1809389
:1044C0000A0182E3809309018AE08093080184E174
:1044D0008093070188E08093060188E280930501BC
:1044E00033C082EE8C0F863078F58C2F0E94082224
:1044F0008093F40129C0CE34E9F020F4CB3421F5C7
:104500006AE013C0C13579F0C235F1F461E00DC045
:104510008091F401882319F01092F40115C081E014
:104520008093F50115C061E006C08091F4010E94FE
:104530009C200AC06AE08091F4010E94122104C00C
:104540001092F50180E004C081E002C080E0ABCFB2
:10455000CF9108950E94101D811102C00E94EA1C93
:104560000E94311D80934102282F269530E026308D
:10457000310524F081708A6080934102809141026C
:1045800080FF02C0869501C080E00C94F308209162
:104590004102822F8695482F50E04530510544F462
:1045A0008F5F982F990F822F8170892B8093410202
:1045B000809141028160809341020E94351D80916B
:1045C000410286950C94F30880914102982F9695AC
:1045D00091F09158990F8170892B809341028E7FC1
:1045E00091E009F490E08091410290FB80F9809382
:1045F00041020E94351D8091410286950C94F3087A
:1046000080914102982F909590FB80F98093410210
:10461000813019F483E080934102809141020E942D
:10462000351D8091410280FF02C0869501C080E067
:104630000C94F30890914102892F86958F5F8F77B4
:104640009170863028F4880F892B8093410202C034
:1046500090934102809141028E7F91E009F490E0B5
:104660008091410290FB80F9809341020E94351DA8
:104670008091410286950C94F308863008F085E01D
:10468000880F909141029170892B809341028E7F17
:1046900091E009F490E08091410290FB80F98093D1
:1046A00041020E94351D8091410286950C94F308C9
:1046B00080914102869508958091FE0108950F939F
:1046C0001F93CF93DF9300D01F92CDB7DEB78C013D
:1046D0000E94AD25823011F0843019F583E0898382
:1046E0001B830A838093E9008FEF9091E80081504B
:1046F00095FD06C095ED9A95F1F700008111F5CF73
:104700008091E80085FF0DC040E050E063E070E07C
:10471000CE0101960E94CA258091E8008E77809391
:10472000E8000F900F900F90DF91CF911F910F91A4
:104730000895CF93DF9300D01F92CDB7DEB72091BD
:104740004602243031F522E02983805891099B8369
:104750008A8383E08093E9008FEF9091E800815095
:1047600095FD06C095ED9A95F1F700008111F5CF02
:104770008091E80085FF0DC040E050E063E070E00C
:10478000CE0101960E94CA258091E8008E77809321
:10479000E8000F900F900F90DF91CF910895CF9385
:1047A000DF93EC010E94AD25823011F08430F9F4E2
:1047B00082E08093E9008FEF9091E800815095FDB1
:1047C00006C095ED9A95F1F700008111F5CF809123
:1047D000E80085FF0CC040E050E065E070E0CE01ED
:1047E0000E94CA258091E8008E778093E800DF91CF
:1047F000CF910895CF93DF93EC010E94AD258230D5
:1048000011F0843039F581E08093E9008FEF9091C9
:10481000E800815095FD06C095ED9A95F1F70000EE
:104820008111F5CF8091E80085FF14C040E050E091
:1048300068E070E0CE010E94CA258091E8008E7782
:104840008093E80088E0FE01A6EFB1E001900D92B0
:104850008A95E1F7DF91CF9108958091450281110A
:1048600009C00E945B270E94B8278091E200846003
:104870008093E200089510924502089508950895E6
:104880000C94C61D42E061EC81E00E94D42642E017
:1048900061EC82E00E94D42642E061EC83E00C945B
:1048A000D42680914802833009F453C030F481301B
:1048B00071F0823009F48CC008958A3009F478C010
:1048C0008B3009F45EC0893009F09AC020C0809115
:1048D0004702813A09F094C08091E800877F809375
:1048E000E80080914B0290914C02892B21F468E002
:1048F00086EF91E003C060E080E090E070E00E940D
:1049000015268091E8008B778093E80008958091C8
:104910004702813209F074C080914B0290914C02A1
:10492000892B09F06DC08091E800877F8093E800B3
:104930008091E80082FD05C0809146028111F8CF88
:104940005FC08091F1008093FE018091E8008B7739
:1049500053C080914702813A09F052C080914B02C6
:1049600090914C02892B09F04BC08091E800877F21
:104970008093E8008091E80080FFFCCF80911501D2
:1049800036C0809147028132D9F580914B029091D7
:104990004C02892BA9F58091E800877F8093E8007D
:1049A0000E94092780914902809315010C94F91601
:1049B00080914702813221F58091E800877F8093C2
:1049C000E8000E94092780914A028093FF01089520
:1049D00080914702813AA1F48091E800877F80931B
:1049E000E8008091E80080FFFCCF8091FF01809378
:1049F000F1008091E8008E778093E8000C940927FD
:104A0000089584B7877F84BF0FB6F894A8958091E6
:104A10006000886180936000109260000FBE80E8A3
:104A200080936100109261000E94DB110E945B275D
:104A30000E94B8278091E20084608093E20078941D
:104A40000E944D2A0E94DF118BE091E00E948811A4
:104A500080914602853069F40E94951D8091440240
:104A60008823B1F30E947F1D882391F30E94B4250F
:104A7000EFCF0E94E9110E941C11EACF0C9440254F
:104A8000292F332723303105C9F060F42130310557
:104A900081F02230310509F047C084E590E020E143
:104AA00035E046C02132310511F12232310561F184
:104AB0003BC082E190E024E635E03AC0992781309E
:104AC000910561F040F08230910559F0039761F54E
:104AD000EAEDF4E008C0ECE0F5E005C0EAEFF4E050
:104AE00002C0E0EEF4E0849190E09F0121C06330C9
:104AF0007105D0F4660F771FFB01E65CFE4F208145
:104B0000318189E090E014C06330710568F4FB01E5
:104B1000EE0FFF1FEC5CFE4F20813181FB01EF5C4B
:104B2000FE4F808190E004C080E090E020E030E023
:104B3000FA013183208308950895CF93C82F0E94EE
:104B40009C25C0930002CF91089580914602843045
:104B500011F081E0089582E00895809100028111B2
:104B600002C00C94A525089580E189BD82E189BD2C
:104B700009B400FEFDCF8091D8008F7D8093D800CE
:104B80008091E00082608093E0008091E00081FDF0
:104B9000FCCF0895CF92DF92EF92FF920F931F9375
:104BA000CF93DF93EC018B017A010E9428278111BA
:104BB00033C0E114F10439F0F70180819181081BC1
:104BC000190BC80FD91FC12CD12C0115110519F1D2
:104BD0008091E80085FD16C08091E8008E77809373
:104BE000E800E114F10449F0F70180819181C80ED9
:104BF000D91ED182C08285E00FC00E942827882359
:104C000021F30AC089918093F10001501109FFEF4F
:104C1000CF1ADF0ADACF80E0DF91CF911F910F9199
:104C2000FF90EF90DF90CF90089520914D0230914A
:104C30004E022617370748F06115710539F42091A7
:104C4000E8002E772093E80001C0B901FC0120E0C4
:104C50006115710579F1809146028823F1F1853063
:104C6000F1F18091E80083FD3CC08091E80082FD75
:104C70002EC08091E80080FFEBCF2091F30080915F
:104C8000F20090E0922B6115710551F0883091058A
:104C900038F421912093F100615071090196F3CF0E
:104CA00021E0089709F020E08091E8008E7780935A
:104CB000E800CECF2111CFCF0AC0809146028823D1
:104CC00061F0853061F08091E80083FD0AC0809139
:104CD000E80082FFF2CF80E0089582E0089583E04B
:104CE000089581E0089520914D0230914E022617DB
:104CF000370748F06115710539F42091E8002E77E7
:104D00002093E80001C0B901FC0120E061157105A4
:104D100091F180914602882309F440C0853009F45E
:104D20003FC08091E80083FD3DC08091E80082FD96
:104D30002FC08091E80080FFE9CF2091F30080919F
:104D4000F20090E0922B6115710559F088309105C1
:104D500040F424912093F10031966150710901963D
:104D6000F2CF21E0089709F020E08091E8008E77EB
:104D70008093E800CBCF2111CCCF0AC080914602AE
:104D8000882361F0853061F08091E80083FD0AC0DE
:104D90008091E80082FFF2CF80E0089582E00895DC
:104DA00083E0089581E00895982F973068F59093F7
:104DB000E900981739F07091EC002091ED005091C6
:104DC000F00003C0242F762F50E021FD02C09F5F2A
:104DD000ECCF3091EB003E7F3093EB003091ED0053
:104DE0003D7F3093ED003091EB0031603093EB006C
:104DF0007093EC002093ED005093F0002091EE00B2
:104E000027FDE5CF80E008958F708093E90081E071
:104E100008958091470287FF11C08091E80082FDCC
:104E200005C0809146028111F8CF11C08091E80041
:104E30008B770BC080914602882349F08091E8006F
:104E400080FFF8CF8091E8008E778093E800089586
:104E50002091E4003091E50095E64091EC00842F2C
:104E6000817040FF23C08091E80080FD1DC08091CB
:104E70004602882399F0853099F08091EB0085FDFA
:104E800011C04091E4005091E5002417350729F343
:104E9000915011F09A01E1CF84E0089582E00895E5
:104EA00083E0089581E0089580E008954091E8004E
:104EB00042FFDDCF08950E94C9270E94D127E0EE6E
:104EC000F0E0808181608083E8EDF0E080818F7781
:104ED000808319BCA7EDB0E08C918E7F8C9380818C
:104EE0008F7E80831092450208950F931F93CF9376
:104EF000DF930E94C9270E94D127C8EDD0E08881A6
:104F00008F77888388818068888388818F7D888374
:104F100019BC109246021092420210924402109262
:104F2000430200EE10E0F80180818B7F808388814E
:104F30008160888342E060E080E00E94D426E1EE58
:104F4000F0E080818E7F8083E2EEF0E080818160FE
:104F50008083808188608083F80180818E7F808358
:104F6000888180618883DF91CF911F910F9108958F
:104F7000E8EDF0E080818F7E8083E7EDF0E08081D6
:104F80008160808384E082BF81E0809345020C943D
:104F90007527E8EDF0E080818E7F80831092E2003B
:104FA00008951092DA001092E10008951F920F9276
:104FB0000FB60F9211242F933F934F935F936F93EC
:104FC0007F938F939F93AF93BF93EF93FF938091C2
:104FD000E10082FF0BC08091E20082FF07C0809158
:104FE000E1008B7F8093E1000E944C2A8091DA00DF
:104FF00080FF1FC08091D80080FF1BC08091DA0025
:105000008E7F8093DA008091D90080FF0DC080E10F
:1050100089BD82E189BD09B400FEFDCF81E08093A6
:1050200046020E942D2405C019BC109246020E941F
:105030003B248091E10080FF19C08091E20080FF55
:1050400015C08091E2008E7F8093E2008091E200A3
:1050500080618093E2008091D80080628093D800C4
:1050600019BC85E0809346020E943F248091E100B4
:1050700084FF30C08091E20084FF2CC080E189BDB4
:1050800082E189BD09B400FEFDCF8091D8008F7DFB
:105090008093D8008091E1008F7E8093E100809121
:1050A000E2008F7E8093E2008091E2008160809335
:1050B000E20080914202882311F084E007C08091D1
:1050C000E30087FD02C081E001C083E080934602D7
:1050D0000E9440248091E10083FF29C08091E2007A
:1050E00083FF25C08091E100877F8093E10082E00B
:1050F00080934602109242028091E1008E7F80935D
:10510000E1008091E2008E7F8093E2008091E200D6
:1051100080618093E20042E060E080E00E94D4265B
:105120008091F00088608093F0000E943E24FF91FF
:10513000EF91BF91AF919F918F917F916F915F910F
:105140004F913F912F910F900FBE0F901F90189588
:105150001F920F920FB60F9211242F933F934F93EC
:105160005F936F937F938F939F93AF93BF93CF93EF
:10517000DF93EF93FF93C091E900CF708091EC0033
:10518000D82FD17080FDD0E81092E9008091F00016
:10519000877F8093F00078940E94EC281092E900B9
:1051A0008091F00088608093F000CD2BCF70C09389
:1051B000E900FF91EF91DF91CF91BF91AF919F9166
:1051C0008F917F916F915F914F913F912F910F90B0
:1051D0000FBE0F901F9018951F93CF93DF93CDB7FD
:1051E000DEB7AA970FB6F894DEBF0FBECDBFE7E4D7
:1051F000F2E08091F100819322E0EF34F207C9F7E9
:105200000E9451248091E80083FF2EC180914702C3
:1052100090914802492F50E04A30510508F024C1CE
:10522000FA01E556FF4F0C94D92D803821F08238D1
:1052300009F01AC108C08091430290914402992359
:1052400089F082600FC080914B028F70873008F028
:105250000BC18093E9008091EB0085FB882780F9E2
:105260001092E9009091E800977F9093E800809376
:10527000F1001092F100D1C0282F2D7F09F0F4C069
:10528000882319F0823061F0EFC0809149028130AB
:1052900009F0EAC0933009F080E0809344022EC008
:1052A0008091490281112AC080914B028F702FEFAB
:1052B000280F263008F0D8C08093E9002091EB0039
:1052C00020FF1CC0933021F48091EB00806214C059
:1052D0009091EB0090619093EB0021E030E0A90108
:1052E00002C0440F551F8A95E2F74093EA001092DE
:1052F000EA008091EB0088608093EB001092E90057
:105300008091E800877F8093E8000E940927ACC065
:105310008111AAC0109149021F778091E300807823
:10532000812B8093E3008091E800877F8093E800E1
:105330000E9409278091E80080FFFCCF8091E30064
:1053400080688093E300111102C082E001C083E015
:105350008093460289C08058823008F085C08091D1
:10536000490290914A028C3D53E0950779F583E01C
:105370008A838AE289834FB7F894DE01139620E08E
:105380003EE051E2E32FF0E050935700E49120FF1C
:1053900003C0E295EF703F5FEF708E2F90E0EA3030
:1053A00010F0C79601C0C0968D939D932F5F243156
:1053B00049F74FBF8091E800877F8093E8006AE259
:1053C00070E0CE0101960E94152616C060914B0236
:1053D00070914C02AE014F5F5F4F0E943E25BC01B1
:1053E000892B09F441C09091E800977F9093E800E1
:1053F00089819A810E9473268091E8008B7780933F
:10540000E80032C0803881F58091E800877F809382
:10541000E800809142028093F1008091E8008E774D
:1054200072CF811121C08091490290914A0299273F
:105430000297D4F48091E800877F8093E800809100
:105440004902809342020E94092780914202811101
:1054500006C08091E30087FD02C081E001C084E0C6
:10546000809346020E9442248091E80083FF0AC094
:105470008091E800877F8093E8008091EB00806254
:105480008093EB00AA960FB6F894DEBF0FBECDBF97
:10549000DF91CF911F9108950895CF938091460297
:1054A0008823A1F0C091E900CF709091EC00892F82
:1054B000817090FD80E8C82B1092E9008091E8008F
:1054C00083FD0E94EC28CF70C093E900CF9108952E
:1054D0005058BB27AA270E94802A0C942B2C0E948C
:1054E0001D2C38F00E94242C20F039F49F3F19F431
:1054F00026F40C94F32B0EF4E095E7FB0C94ED2BC3
:10550000E92F0E943C2C58F3BA17620773078407EF
:10551000950720F079F4A6F50C945E2C0EF4E09536
:105520000B2EBA2FA02D0B01B90190010C01CA015D
:10553000A0011124FF27591B99F0593F50F4503E08
:1055400068F11A16F040A22F232F342F4427585FFA
:10555000F3CF469537952795A795F0405395C9F712
:105560007EF41F16BA0B620B730B840BBAF09150CA
:10557000A1F0FF0FBB1F661F771F881FC2F70EC069
:10558000BA0F621F731F841F48F48795779567953C
:10559000B795F7959E3F08F0B0CF9395880F08F028
:1055A0009927EE0F9795879508950E94E92A0C9404
:1055B0002B2C0E94242C58F00E941D2C40F029F422
:1055C0005F3F29F00C94ED2B51110C945F2C0C943F
:1055D000F32B0E943C2C68F39923B1F3552391F3EC
:1055E000951B550BBB27AA2762177307840738F052
:1055F0009F5F5F4F220F331F441FAA1FA9F335D0AF
:105600000E2E3AF0E0E832D091505040E695001C62
:10561000CAF72BD0FE2F29D0660F771F881FBB1F1C
:10562000261737074807AB07B0E809F0BB0B802DFA
:10563000BF01FF2793585F4F3AF09E3F510578F026
:105640000C94ED2B0C945F2C5F3FE4F3983ED4F365
:10565000869577956795B795F7959F5FC9F7880FFA
:10566000911D9695879597F90895E1E0660F771F4C
:10567000881FBB1F621773078407BA0720F0621BDD
:10568000730B840BBA0BEE1F88F7E095089529F48D
:1056900016F00C94ED2B0C945E2C0C94F32B0E94C2
:1056A000442CA8F39638A0F707F80F92E8942BE360
:1056B0003AEA48EB5FE70E94F12C0F920F920F92AB
:1056C0004DB75EB70F920E94A72CEAE4F1E00E946A
:1056D000F62B4F915F91EF91FF91E595EE1FFF1F24
:1056E00049F0FE57E0684427EE0F441FFA95E1F7B2
:1056F0004195550B0E94712C0F9007FE0C94652C60
:1057000008950E94442C88F09F5798F0B92F99274C
:10571000B751B0F0E1F0660F771F881F991F1AF09C
:10572000BA95C9F714C0B13091F00E945E2CB1E077
:1057300008950C945E2C672F782F8827B85F39F076
:10574000B93FCCF3869577956795B395D9F73EF435
:1057500090958095709561957F4F8F4F9F4F0895DD
:10576000E89409C097FB3EF49095809570956195FB
:105770007F4F8F4F9F4F9923A9F0F92F96E9BB27B1
:105780009395F695879577956795B795F111F8CF2D
:10579000FAF4BB0F11F460FF1BC06F5F7F4F8F4F98
:1057A0009F4F16C0882311F096E911C0772321F08E
:1057B0009EE8872F762F05C0662371F096E8862F26
:1057C00070E060E02AF09A95660F771F881FDAF77D
:1057D000880F9695879597F9089597F99F6780E8C0
:1057E00070E060E008959FEF80EC0895DF93CF9321
:1057F0001F930F93FF92EF92DF927B018C016894CD
:1058000006C0DA2EEF010E94EE2CFE01E894A5916D
:105810002591359145915591A6F3EF010E94802A7B
:10582000FE019701A801DA9469F7DF90EF90FF90ED
:105830000F911F91CF91DF91089500240A941616BD
:10584000170618060906089500240A94121613066E
:10585000140605060895092E0394000C11F48823FC
:1058600052F0BB0F40F4BF2B11F460FF04C06F5F18
:105870007F4F8F4F9F4F089557FD9058440F551FEE
:1058800059F05F3F71F04795880F97FB991F61F0C2
:105890009F3F79F087950895121613061406551F39
:1058A000F2CF4695F1DF08C0161617061806991FA5
:1058B000F1CF86957105610508940895E894BB279A
:1058C00066277727CB0197F908959B01AC0160E02B
:1058D00070E080E89FE30C94D52A0C94ED2B0C9497
:1058E000502D0E94442CD8F39923C9F3940F511DD5
:1058F000A3F39150504094F059F0882332F0660F92
:10590000771F881F91505040C1F79E3F51052CF7DB
:10591000880F911D9695879597F908955F3FACF094
:10592000983E9CF0BB27869577956795B79508F4C8
:10593000B1609395C1F7BB0F58F711F460FFE8CF42
:105940006F5F7F4F8F4F9F4FE3CF0C945F2CFA0117
:10595000DC01AA0FBB1F9B01AC01BF5728F4222713
:1059600033274427507820C0B75190F4AB2F002440
:10597000469537952795011CA395D2F3002071F029
:10598000220F331F441FB395DAF30ED00C94682A0C
:1059900061307105A0E88A07B94630F49B01AC017B
:1059A0006627772788279078309621F020833183E7
:1059B0004283538308950E94EE2C0C942B2C0E945A
:1059C0001D2C38F00E94242C20F0952311F00C940B
:1059D000ED2B0C94F32B11240C945F2C0E943C2C87
:1059E00070F3959FC1F3950F50E0551F629FF00132
:1059F000729FBB27F00DB11D639FAA27F00DB11D4B
:105A0000AA1F649F6627B00DA11D661F829F2227D3
:105A1000B00DA11D621F739FB00DA11D621F839F5A
:105A2000A00D611D221F749F3327A00D611D231F30
:105A3000849F600D211D822F762F6A2F11249F577E
:105A400050409AF0F1F088234AF0EE0FFF1FBB1F81
:105A5000661F771F881F91505040A9F79E3F510540
:105A600080F00C94ED2B0C945F2C5F3FE4F3983E98
:105A7000D4F3869577956795B795F795E7959F5FEA
:105A8000C1F7FE2B880F911D9695879597F908957C
:105A90009F930E94602D0F9007FCEE5F0C94892D60
:105AA0009F3F31F0915020F4879577956795B79592
:105AB000880F911D9695879597F908950C94F32B6F
:105AC0000E94442CD8F3E894E0E0BB279F57F0F005
:105AD0002AED3FE049EC06C0EE0FBB0F661F771FB3
